:1000000000500020F51D00001D1E00005D130000C3
:1000100000000000000000000000000000000000E0
:100020000000000000000000000000001D1E000095
:1000300000000000000000001D1E00001D1E00004A
:100040001D1E00001D1E00001D1E00001D1E0000C4
:100050001D1E0000FD0300001D1E00001D1E0000EF
:10006000990200001D1E00001D1E00001D1E000044
:10007000110300008D0F0000BD0300001D1E0000D5
:100080001D1E00001D1E00001D1E00001D1E000084
:100090001D1E00001D1E00001D1E00001D1E000074
:1000A0001D1E00001D1E00001D1E00001D1E000064
:1000B0001D1E00001D1E00001D1E000010B5064C78
:1000C0002378002B07D1054B002B02D0044800E019
:1000D00000BF0123237010BDE403002000000000D6
:1000E000C4370000044B10B5002B03D0034904486B
:1000F00000E000BF10BDC04600000000E803002083
:10010000C4370000402292029A1A92467047C046B5
:10011000174B002B00D1134B9D46FFF7F3FF002137
:100120008B460F461348144A121A01F0C6FF0E4BB5
:10013000002B00D098470D4B002B00D09847002093
:10014000002104000D000D48002802D00C4800E0FA
:1001500000BF01F069FF2000290000F057FF01F007
:100160004DFFC04600000800000000000000000035
:1001700000500020E403002040090020000000009F
:100180000000000030B505000C0000200D4A0DE015
:100190005208013BDBB2002B06D0D107F8D552083C
:1001A00009494A4092B2F4E70130C0B2A04203DAF2
:1001B0002B5C5A400823EEE7130A120290B2184350
:1001C00080B230BDFFFF000001A0FFFFF0B5C646C2
:1001D00000B582B06B46DC1DFF2323701E4F1E222C
:1001E0000021380001F069FF1C4E0F220021300071
:1001F00001F063FF1A4D2B780E331A4A90461370A4
:1002000022004146380001F02DFA174C43461A7877
:10021000B91C200001F048FF144B210005C905C39B
:100220001A000B881380A77A2F70E37A6B70043161
:100230003A00300001F038FF33041B0C6B80360CA1
:10024000AE8039000C316118A81D022201F02CFF8C
:1002500002B080BCB846F0BD20040020D8070020C2
:100260005C0700203E0400204004002050070020CE
:1002700070B5074D01232B60064C6421200001F06E
:1002800055FC00232B606421200001F04FFC70BD61
:10029000C842005000010140064B9B68DB0708D5AF
:1002A0000122044B9A6004490B7801330B70034B15
:1002B0001A70704700000140BF0700200A090020A3
:1002C00010B5104BDB69DB0503D40E4B0022DA615D
:1002D00010BD0C4BDB69DB07F7D50B4C21880B4BB2
:1002E000C9180122074801F035FD238801339BB26C
:1002F0002380FA2252009342EBD9034B00221A804A
:10030000E7E7C04600401540980700205C05002044
:1003100010B5FFF7D5FF10BDA023DB05D9688022FB
:10032000D2020A43DA60DA6804490A40DA60044B10
:10033000044A5A620322DA607047C046FFFFFBFF9F
:1003400000401540FE080030A023DB05D96880225C
:1003500092020A43DA60DA6804490A40DA60044B20
:10036000044A5A620322DA607047C046FFFFFDFF6D
:1003700000001540FE08003010B582B00C4C0D4B4B
:100380000093082304220021200001F0D1F900226B
:100390000021200001F002FB80214900200001F033
:1003A00009FB054B8022D2011A6002B010BDC04685
:1003B00000000340006A180000E100E010B50C4B9B
:1003C0005B69DB050AD40A4B186B0A490A78531C8F
:1003D000DBB20B70084988540F2B00D810BD054BB9
:1003E00000221A700F320021034801F066FEF5E783
:1003F00000000340F8070020FC070020154B1B6A93
:100400001B0726D5134B08221A62134B1B68002BBF
:1004100016D0124A137804210B43DBB21370022169
:100420008B4313700E4B1B78002B05D000230C4A16
:1004300013700C4A13700CE00A4B01221A7008E08A
:10044000064A137801210B43DBB2137004218B435E
:1004500013707047C0400050CC4200501B03002076
:100460000C090020E707002010B5394A136806215F
:100470000B431360364BDB68DB06FBD5344BDB6884
:100480009B07FBD5324B1A6907210A431A619A6907
:1004900008318A439A619968E022D2020A439A603D
:1004A0005969C02292040A435A619A6929490A404B
:1004B0009A618021284C00228904200000F08EFEE1
:1004C000200000F0CDFE01F0AFFCA023DB051A6B8D
:1004D000FF218A431A631A6BCC390A431A631A6CD8
:1004E0001E490A401A64196CCC2292010A431A640C
:1004F0009A6B1204120C9A63194A9A63194C2000E1
:1005000000F0AEFE802100228900200000F066FE8F
:10051000154C200000F0A4FE80210022890120005B
:1005200000F05CFE114C01220421200000F0B4FE1A
:100530000F4B00221A600821200000F0ADFE0D4A8A
:100540000321200000F0BDFE0B4B20221A6010BDDD
:1005500000020050FFF0FFFF0C008067FF00FFFF6C
:10056000000022220200805E0300C05EC0400050F6
:10057000C84200500100010000E100E0F8B5DE468D
:1005800057464E464546E0B5774C200001F041FE07
:1005900002000021200001F090FD744B188801300A
:1005A00080B218800A22724901F07AFD714E3078CB
:1005B000714D0A22290001F073FD70786F4B9B4644
:1005C0000A22190001F06CFDB0786D4B9A460A22A0
:1005D000190001F065FDF0786A4B99460A2219006E
:1005E00001F05EFD3079684B98460A22190001F04F
:1005F00057FD7079654F0A22390001F051FDB0793D
:100600000A22634901F04CFDF079624E0A22310062
:1006100001F046FD200001F0FCFD201802225E4999
:1006200001F042FD5D49200001F0E6FD29002000B7
:1006300001F0E2FD200001F0ECFD2018584D0222EF
:10064000290001F031FD5749200001F0D5FD594640
:10065000200001F0D1FD200001F0DBFD2018022276
:10066000290001F021FD5049200001F0C5FD51464F
:10067000200001F0C1FD200001F0CBFD2018022276
:10068000290001F011FD4949200001F0B5FD49465E
:10069000200001F0B1FD200001F0BBFD2018022276
:1006A000290001F001FD4249200001F0A5FD41466D
:1006B000200001F0A1FD200001F0ABFD2018022276
:1006C000290001F0F1FC3B49200001F095FD3900C3
:1006D000200001F091FD200001F09BFD2018022276
:1006E000290001F0E1FC3449200001F085FD284992
:1006F000200001F081FD200001F08BFD2018022276
:10070000290001F0D1FC2D49200001F075FD3100D8
:10071000200001F071FD200001F07BFD2018022275
:10072000290001F0C1FC2649200001F065FD1049B7
:10073000200001F061FD200001F06BFD2018022275
:10074000204901F0B1FC200001F063FDC0B21E4B56
:1007500018700A221D4901F0A3FCF0BCBB46B2464A
:10076000A946A046F8BDC046100800200604002097
:10077000000400209C070020C8070020D0070020AC
:10078000D4070020CC070020BC0700200C08002064
:1007900010090020C40700208032000064000020FF
:1007A00084320000A4000020C40000208400002047
:1007B00024000020E400002000020020440000206B
:1007C0000000002088320000F707002064070020A6
:1007D00010B5134B1A78062A08D89300114AD3583B
:1007E0009F4605221049114801F0CAFA10BD09229E
:1007F0000F490E4801F0C4FAF8E70A220D490B48E8
:1008000001F0BEFAF2E70A220B49084801F0B8FAF3
:10081000ECE70A4B02221A70014B00221A70E5E73E
:10082000BF070020B83200008C32000000001540E5
:1008300094320000A0320000AC3200001E02002002
:1008400010B5234B1A780A2A34D89300214AD3587A
:100850009F460A222049214801F092FA10BD0B223E
:100860001F491E4801F08CFAF8E70B221D491B486E
:1008700001F086FAF2E70B221B49184801F080FAD2
:10088000ECE70C221949154801F07AFAE6E70E2246
:100890001749124801F074FAE0E70E2215490F4893
:1008A00001F06EFADAE7144B04221A70084B0022AA
:1008B0001A70D3E7114B1B78002B03D0013B0F4A72
:1008C0001370CBE70E4B1A78014B1A70C6E7C0467F
:1008D000BF07002034330000D43200000000154070
:1008E000E0320000EC320000F83200000433000077
:1008F00014330000243300001E020020C007002033
:100900000B09002010B5204B1A78092A2ED8930025
:100910001E4AD3589F460E221D491E4801F030FA48
:1009200010BD0C221C491B4801F02AFAF8E70B22E3
:100930001A49184801F024FAF2E70C221649154822
:1009400001F01EFAECE70B221449124801F018FAE4
:10095000E6E70B2211490F4801F012FAE0E7104BCD
:1009600005221A70084B00221A70D9E70D4B1B782C
:10097000002B03D0013B0B4A1370D1E70A4B1A78C6
:10098000014B1A70CCE7C046BF0700207C33000043
:100990001433000000001540603300007033000085
:1009A0001E020020C00700200B09002010B5154BC7
:1009B0001B78032B1FD009D8012B10D0022B19D183
:1009C0000B221149114801F0DBF913E0042B11D17E
:1009D0000F4B06221A700B4B00221A700AE00B4CC8
:1009E00002220C49200001F0CBF90E220A49200016
:1009F00001F0C6F910BD0C220849044801F0C0F905
:100A0000F8E7C046BF070020703300000000154023
:100A10001E02002020330000A433000060330000D9
:100A200070B53A4B1A780A2A62D89300384AD358DC
:100A30009F460D223749384801F0A2F970BD0D22BA
:100A40003649354801F09CF9F8E7334C0C2234491B
:100A5000200001F095F9334D01222900200001F01A
:100A60008FF903223049200001F08AF90122290080
:100A7000200001F085F901222C49200001F080F9C5
:100A800001222900200001F07BF9294E300001F0FD
:100A9000C0FB02003100200001F072F901222900A0
:100AA000200001F06DF902222249200001F068F9CE
:100AB000C4E711222049184801F062F9BEE70F226D
:100AC0001E49154801F05CF9B8E712221C4912488A
:100AD00001F056F9B2E70D220E490F4801F050F926
:100AE000ACE7184B08221A70084B00221A70A5E7D1
:100AF000154B1B78002B03D0013B134A13709DE765
:100B0000124B1A78014B1A7098E7C046BF070020B5
:100B100020340000B433000000001540C43300004E
:100B2000D433000020000020E433000084320000B1
:100B30000401002020330000E8330000FC330000F3
:100B40000C3400001E020020C00700200B0900200A
:100B5000044B1978044A11705F221A70034B187005
:100B60007047C046BF0700200B090020C0070020C7
:100B700010B5404B1A78102A00D96DE093003E4A18
:100B8000D3589F460A223D493D4801F0F9F810BD6F
:100B900009223C493A4801F0F3F8F8E709223A49BA
:100BA000374801F0EDF80120FFF7D2FFEFE70A2206
:100BB0003649334801F0E4F8E9E70A22344930487D
:100BC00001F0DEF80120FFF7C3FFE0E70D22314915
:100BD0002B4801F0D5F8DAE709222F49284801F01F
:100BE000CFF8D4E710222D49254801F0C9F8CEE707
:100BF0000B222B49224801F0C3F80520FFF7A8FF7C
:100C0000C5E70B2227491E4801F0BAF8BFE70C22BE
:100C100025491B4801F0B4F8B9E70B2223491848CD
:100C200001F0AEF8B3E70E222149154801F0A8F80B
:100C3000ADE70B221F49124801F0A2F8A7E70B22EB
:100C40001D490F4801F09CF8A1E71C4B03221A70C4
:100C5000084B00221A709AE7194B1B78002B03D01F
:100C6000013B174A137092E7164B1A78014B1A7022
:100C70008DE7C046BF070020F43400004C3400006C
:100C80000000154058340000643400007034000047
:100C90007C3400008834000098340000A434000044
:100CA000B4340000D4320000EC320000C034000044
:100CB000CC340000DC340000E83400001E020020C8
:100CC000C00700200B09002070B5604B1A78112A6C
:100CD00000D9ADE093005E4AD3589F460D225D498E
:100CE0005D4801F04DF870BD0D225C495A4801F095
:100CF00047F80220FFF72CFFFFF740FC0F220021EE
:100D0000574801F0DAF9EEE7534C0C225549200020
:100D100001F036F8544D01222900200001F030F88E
:100D200003225249200001F02BF801222900200063
:100D300001F026F801224E49200001F021F801229D
:100D40002900200001F01CF84A4E300001F061FA41
:100D500002003100200001F013F8012229002000D8
:100D600001F00EF802224449200001F009F8BAE728
:100D7000394C0C224149200001F002F8404D280076
:100D800001F047FA02002900200000F0F9FF0322D9
:100D90003749200000F0F4FF03223A49200000F018
:100DA000EFFF02223449200000F0EAFF9BE7022017
:100DB000FFF7CEFE344D280001F02BFA0200264C3E
:100DC0002900200000F0DCFF02222B49200000F067
:100DD000D7FF88E72C4D280001F01BFA02002B4CAE
:100DE0002900200000F0CCFF02222349200000F05F
:100DF000C7FF11222649184800F0C2FF73E70F22EF
:100E00002449154800F0BCFF6DE712222249124820
:100E100000F0B6FF67E70D220E490F4800F0B0FF63
:100E200061E71E4B08221A70084B00221A705AE71D
:100E30001B4B1B78002B03D0013B194A137052E760
:100E4000184B1A78014B1A704DE7C046BF070020B7
:100E500060350000B433000000001540C4330000CA
:100E60009C070020D433000020000020E433000061
:100E700084320000200200202033000038350000BA
:100E8000640700204835000010080020004015408D
:100E90004C350000FC3300000C3400001E02002022
:100EA000C00700200B09002010B5044B1B78002B55
:100EB00001D0002010BD00F063FFFBE79607002083
:100EC00070B5294BDB69DB0529D4274B0022DA6199
:100ED00070BD264B00221A70254B18782338254BFD
:100EE000C018254901F09CF9C11D244C0F22200097
:100EF00001F0DAF8224D092222492800FFF7D4FF39
:100F0000200001F086F9020021002800FFF7CCFF45
:100F10001BE00133DBB2164A1370F92B1FD8124BBA
:100F2000DB69DB07D1D5124D2978124C0919012252
:100F30000D4800F00FFF2978091901221048FFF72A
:100F4000B3FF0A4B1B78002BC3D1094B1B78094A0E
:100F5000D25C0D2ADDD10C4A01211170D9E71300B2
:100F600000221A70DBE7C04600001540D7070020BA
:100F70009707002060040020A83500000804002026
:100F800000401540B0350000C107002010B5064CE8
:100F90002368064A13402360FFF792FF22688023EC
:100FA0009B051343236010BD00000140FFFFFFDFDE
:100FB00010B5104B1B78092B0DD90A2B0DD121220E
:100FC0000D490E48FFF770FF0D4B05221A70094BB3
:100FD00000221A7010BD002BFCD10A4B1B78002B8D
:100FE00003D0013B074A1370F4E7074B1A78014B13
:100FF0001A70EFE7BF070020BC3500000040154025
:101000001E020020C00700200B09002070B5A0229E
:10101000D20580235B005921D1504339D150723120
:10102000D150D358002BF2D0FFF71EFA80256D0067
:10103000A023DB0500225A51FFF76EF9504C012125
:10104000200000F0F5FD1A224E492000FFF72CFF8A
:10105000FFF77AF94C4C04224C49200000F090FE36
:101060000121200000F0E4FD8021494C0322090504
:10107000200000F023FD226880239B05134323609A
:10108000444B1D6022688023DB0513432360FFF778
:1010900073F996218901404800F0E8FDFFF7E8F870
:1010A00000F04EFA09E000F097FA3C4B1B78232B36
:1010B0000DD03B4B1B78002B3FD13A4B1B78002BBC
:1010C000F1D0384B00221A70FFF780F8EDE7364C6C
:1010D00021780C313548FFF755F8354A1080354BEB
:1010E0001880030A13800002184380B21080E3883E
:1010F00098420AD00A220021284800F0DEFF082288
:101100000021294800F0D9FFD3E7244B9B785A2BC4
:10111000F0D10F220021284800F0CFFF274C1E22DB
:101120000021200000F0C9FF254B220013CB13C281
:10113000198811809B789370DCE7194B00221A7094
:10114000204B1A78082AB8D893001F4AD3589F46D4
:10115000FFF73EFBB1E7FFF70BFDAEE7FFF770FBD4
:10116000ABE7FFF7CFFBA8E7FFF720FCA5E7FFF70A
:10117000ABFDA2E7FFF754FC9FE7FFF719FF9CE7E1
:1011800000401540E0350000000015408C320000A2
:101190000000014000E100E0000005405007002091
:1011A0000A090020E70700205C0700204004002017
:1011B0009A0700201C040020E80700209C0700205C
:1011C000D80700201E020020FC35000010B500F0FA
:1011D0002BFE014B186810BD74030020F0B587B0DA
:1011E00002AC1C4BE0CBE0C41B68236000230093DF
:1011F00020330193830AFF2425001D401C4210D098
:10120000840C032323409B006C461C59124B9C46C4
:101210006444236847091F263E40B540AB431A4348
:101220002260430E072214001C401A4210D0020F05
:10123000032313409B0002AA9A58084B9C46624421
:101240001368000D1F2528408440A34319431160F3
:1012500007B0F0BD20360000180200501002005008
:1012600070B584B001AA0A4B1033110070CB70C165
:10127000830F9B009B58074A944663441A681F21BA
:1012800008401E3981400A431A6004B070BDC04650
:10129000203600000402005070B5002300E0013346
:1012A0000F2B0DD801249C402142F8D004685E0029
:1012B0000325B540AC431500B5402C430460EEE770
:1012C00070BD10B58369140E8C4023438361C369DC
:1012D0001202120A8A401A43C26110BD10B50400FE
:1012E0000168104800F0F2FE61680F4800F0EEFE61
:1012F000A1680E4800F0EAFEE1680D4800F0E6FE45
:1013000021690C4800F0E2FE61690B4800F0DEFE46
:10131000A1690A4800F0DAFEE169094800F0D6FE4A
:1013200010BDC0463C360000483600005436000070
:10133000603600006C36000078360000843600000D
:101340009036000010B50400034800F04BFF200069
:10135000FFF7C4FFFEE7C0469C360000064B0420A2
:101360007146084203D0EFF309807146EAE7EFF3D4
:101370000880E7E7FEE7C0464513000010B51000FF
:10138000130005E000240C570B4B1C6013000131C7
:101390005A1E002B0FD0084B9B691B02FBD4002365
:1013A000CB560A2BEED1044B0D241C60024B9B69DB
:1013B0001B02FBD4E6E710BD00000540044B9B690F
:1013C0005B04FBD4024B1B680B7001207047C046C6
:1013D00000000540F8B57F2318400E4CA3680D2689
:1013E000B34301221343A36020620B4F0121380055
:1013F00000F09CFB00232362236B084D2B7001211E
:10140000380000F093FBA368B34305221343A360A5
:101410002878F8BD000003400001014028090020A1
:10142000F8B50D0080235B421843C0B20B4CA36893
:101430000D26B34301221343A3602062084F01210C
:10144000380000F073FB25620121380000F06EFBCC
:10145000A368B34305221343A360F8BD0000034013
:101460000001014010B5344B1B78834216D00C2884
:1014700015D0102826D0082837D0042848D02F4B64
:1014800059781C2399430120FFF7CAFF2720FFF753
:10149000A1FF0306FAD5284B00221A7010BD274B76
:1014A00059781C2399430C231943C9B20B38FFF711
:1014B000B7FF2720FFF78EFF0306FAD51E4B0C223D
:1014C0001A70EBE71D4B59781C23994310231943DD
:1014D000C9B20F38FFF7A4FF2720FFF77BFF0306F1
:1014E000FAD5154B10221A70D8E7144B59781C23E3
:1014F000994308231943C9B20738FFF791FF272002
:10150000FFF768FF0306FAD50B4B08221A70C5E7F0
:101510000A4B59781C23994304231943C9B2033851
:10152000FFF77EFF2720FFF755FF0306FAD5024B92
:1015300004221A70B2E7C0461A0300201C030020E0
:1015400010B50420FFF78EFF0A20FFF743FF80212C
:10155000014389B20A20FFF763FF0A20FFF73AFF31
:101560004306FAD50A20FFF735FF8021014389B2EF
:101570000A20FFF755FF0A20FFF72CFF4306FAD594
:10158000012406E0114B195DE0B2FFF749FF013479
:10159000A4B24F2CF6D90D4A2E23D35CDB080720CA
:1015A000184001300A4B1870002307E01A002F3250
:1015B0000649895C074AD15401339BB282B29A42F0
:1015C000F4D80020FFF74EFF10BDC0461C030020DA
:1015D000180900201C09002010B5194B1B78DB07E7
:1015E00000D410BD174B00221A70174B02321A702C
:1015F000164C2523E35C3F21194040231943C9B20F
:1016000089B22520FFF70CFF2E23E15C12339943AA
:101610002E20FFF705FF0E4A03210E48FFF751FE6B
:101620001020FFF71FFF064A137802210B43DBB29D
:10163000137001218B4313701F318B431370D0E75C
:101640001B03002016090020170900201C0300209E
:1016500001000100C040005010B50020FFF7BAFEA5
:10166000C0B210BD70B50D001600032313702B4BD4
:101670001B782B4A10605A0704D4DA0630D49B0634
:101680003DD470BD0020FFF7EDFEFFF7E5FF254BD1
:101690001870254B00221A80244B1A700DE0204B45
:1016A0001C68224A1378591C1170E418FFF7D4FF04
:1016B00020701D490B8801330B801A4B19781A4B87
:1016C0001B889942EBD8297000233370134A137892
:1016D00001210B43DBB2137004218B431370D0E75D
:1016E0000020FFF7BFFE0D4A137801210B43DBB248
:1016F000137010218B43137001233370C1E7002056
:10170000FFF7B0FE054A137801210B43DBB21370DB
:1017100020218B43137002233370B2E71B03002098
:1017200024090020170900201409002016090020B0
:10173000F0B5C64600B582B005000F0090461C000B
:10174000036E012293430366202C3AD0FFF73EFD3F
:101750000600002F00D0E5E00023AB6022023A43F0
:1017600043461A43012422432A60089B98420AD820
:10177000824B9D4227D08249CB69824A1A408023FE
:101780001B051343CB617D4B9D4225D07C4BDA6911
:10179000C0231B051A4200D18CE0794BDB69C022C3
:1017A000120513408022D204934257D0744BDB6958
:1017B000C0221205134080221205934270D0724F4E
:1017C00079E00024C2E76E49CB69704A1A40802351
:1017D0009B041343CB61D6E7694BDA69C0239B04B2
:1017E0001A4263D0664BDB69C02292041340802208
:1017F000520493420AD0624BDB69C0229204134028
:1018000080229204934223D05F4F54E0604B0193B7
:101810005B4B1B6AA022D20213424CD11A0315D58E
:101820005C4F9A0347D4990B03220A4001A98A5CB2
:10183000D805C00D02305B0A1F2119400231BF08D4
:101840007843514300F048FB870034E0524FE8E70B
:101850004B4B1B695B062BD577082CE04C4B019357
:10186000474B1B6AA022D202134224D11A0315D57A
:10187000484F9A031FD4990B03220A4001A98A5C9E
:10188000D805C00D02305B0A1F2119400231BF0884
:101890007843514300F020FB87000CE03E4FE8E71F
:1018A000374B1B695B0623D5770804E03A4F02E00B
:1018B000370000E0384F089B9E421BD9089B9F428F
:1018C0001CD9089B002B1DD0B800C01940000899F6
:1018D00000F002FB05300A2100F0FEFA0100421E72
:1018E000FF2A15D96B68FF2213436B603E0A32E072
:1018F0003700E0E700236B603E002CE000236B60C4
:101900003E0028E06B68FF2213436B603E0A22E032
:101910006B68FF20834313436B60380000F0DCFAF0
:10192000060018E00023AB6024023C434246144307
:10193000012214432C606B60104B9D4210D0104B61
:10194000DA6910491140802212050A43DA611B69E5
:101950005B0600D54608300002B080BCB846F0BD3A
:10196000074BDA6909491140802292040A43DA617F
:101970001B695B06EFD54608EDE7C0460000034053
:1019800000020050FFFFFFF3006CDC02FFFFFFFCD2
:101990000102020400805101001BB70010B5036969
:1019A000034C234009070B4312061343036110BD88
:1019B000FFFFFFCCCB0704D5026880239B021343B3
:1019C00003608B0704D5826880235B011343836027
:1019D0004B0704D5826880239B01134383600B0768
:1019E00004D5826880239B0013438360CB0604D513
:1019F000826880235B00134383604B0603D5036931
:101A00008022134303610B0603D5036908221343A5
:101A10000361CB0503D503690422134303618B05DE
:101A200003D503692022134303614B0503D50369E2
:101A3000102213430361704730B589B06946194BD2
:101A40000A0032CB32C232CB32C212CB12C2164B98
:101A5000984211D0154B984214D0154B984217D08C
:101A6000144B5A69120D07231340022B16D09B000A
:101A70006A46985809B030BD0E4B5A69120A0723BE
:101A80001340F2E70B4B5A69120B07231340ECE7A4
:101A9000084B5A69120C07231340E6E7064B1868F7
:101AA000E8E7C046B43600000000014000010140F4
:101AB000000011400002005074030020F0B5C6463B
:101AC00000B505000E009046FFF7B6FF040043087E
:101AD000434521D3124B984210D9C40807274146E9
:101AE000200000F0F9F93E432E606860791C414304
:101AF000200000F0F1F980BCB846F0BD094B9842D7
:101B000002D984080327EAE7074B984202D9440820
:101B10000127E4E70027E2E700270220E3E7C046C9
:101B20000090D0030048E8010024F400F0B5C64658
:101B300000B505000F00FFF77FFF06000100364BE0
:101B4000186800F0C9F9441C00232B606B61334B0B
:101B50009E4208D8FA239B009F420BD32F4B9F42F3
:101B60000AD92E4F08E0632F1ED92C4B9F4203D970
:101B70002A4F01E0FA27BF00284B9E4216D83100B9
:101B8000274800F0A9F901007B01DB1B9800C01970
:101B9000C00000F0A1F90023984668608023DB05AF
:101BA000424613432B602FE06427E5E71D4B9E421E
:101BB0000AD9F60807239846F92F16D8300078433B
:101BC000164900F089F9E8E7174B9E4203D9B60899
:101BD00003239846F0E7154B9E4203D9760801236C
:101BE0009846E9E700239846E6E731000C4800F004
:101BF00073F901007B01DB1B9800C019C00000F0E5
:101C00006BF9CAE7C046013C002CFBD12B689B0155
:101C1000FCD480BCB846F0BD7403002040420F00E5
:101C200000CA9A3B0090D0030048E8010024F40069
:101C300043680B4343600A4B984207D0094B9842D4
:101C400009D0094B802252011A607047064B80224E
:101C500052011A60F9E7044B802292011A60F4E7FE
:101C6000000005400000154000E100E0F0B587B03D
:101C700004000D0002AA314B43CB43C21B68136022
:101C80002F4B5F693F0E032217409B691B0A0F26EB
:101C90001E40002323630333E360A368294A1340F3
:101CA000A360012F1CD0002D18D0BF0002ABF85844
:101CB000711C00F011F9060068083018290000F0C6
:101CC0000BF9023880235B02984232D3E8003018C7
:101CD000290000F001F900090238606207B0F0BD88
:101CE000194B0193164B1B6AA022D20213421ED13C
:101CF0001A031AD5154A990313D4980B03210140EE
:101D000001A8415C8C46D805C00D02305B0A1F213A
:101D100019400231920850436346594300F0DCF801
:101D20008200BB0002A95A50BDE7094AE3E700223E
:101D3000F7E7C0239B0518436062CFE7D436000065
:101D4000000200500FFFF0FF010202040080510169
:101D5000001BB70030B504000D001100002002E0A8
:101D600023682B540130884209D20023A26952040F
:101D7000F6D501338022D2059342F7D3002030BD3F
:101D8000F0B504000F001600002502E07B5D236023
:101D90000135B5420DD00021A26980235B051000FA
:101DA00018401A42F2D101318023DB059942F3D366
:101DB000F0BD2800FCE710B500F01AF958230360C5
:101DC0000120404210BD10B500F012F95823036005
:101DD0000120404210BD10B500F00AF958230360FD
:101DE000002010BD10B500F003F958230360012056
:101DF000404210BD0649074A074B9B1A03DD043BCE
:101E0000C858D050FBDC00F065F8FEF781F90000FF
:101E1000D037000000000020E4030020FEE7C046A9
:101E2000ABBE74469847204730B583B01F4B1A6944
:101E3000072414401E4A01921B6AA022D2021342B8
:101E400032D11A032ED51B489A0311D4990B0322C1
:101E50000A4001A9895CDD05ED0D02355B0A1F22F0
:101E60001340023380086843594300F035F880007E
:101E7000114B1860022C02D0A400104BE0580B4B01
:101E80009B690F211940013100F026F80C4B1860B6
:101E90000C4B9C4660440C4900F01EF80B4B18603C
:101EA00003B030BD0A48CFE70020E1E70002005050
:101EB000010202040080510170030020E43600009A
:101EC0007403002020A1070040420F006C03002093
:101ED000001BB70070470000002243088B4274D3F8
:101EE00003098B425FD3030A8B4244D3030B8B421B
:101EF00028D3030C8B420DD3FF22090212BA030C24
:101F00008B4202D31212090265D0030B8B4219D304
:101F100000E0090AC30B8B4201D3CB03C01A524124
:101F2000830B8B4201D38B03C01A5241430B8B426C
:101F300001D34B03C01A5241030B8B4201D30B0355
:101F4000C01A5241C30A8B4201D3CB02C01A52417C
:101F5000830A8B4201D38B02C01A5241430A8B423F
:101F600001D34B02C01A5241030A8B4201D30B0228
:101F7000C01A5241CDD2C3098B4201D3CB01C01A42
:101F8000524183098B4201D38B01C01A524143094C
:101F90008B4201D34B01C01A524103098B4201D33A
:101FA0000B01C01A5241C3088B4201D3CB00C01AA7
:101FB000524183088B4201D38B00C01A524143081F
:101FC0008B4201D34B00C01A5241411A00D2014644
:101FD000524110467047FFE701B5002000F006F8B7
:101FE00002BDC0460029F7D076E770477047C0466B
:101FF000014B18687047C04678030020084B10B5A5
:102000000400002B02D0002100E000BF054B18683F
:10201000836A002B00D09847200001F023F9C046C6
:10202000000000000437000070B500260C4D0D4C78
:10203000641BA410A64209D1002601F015F90A4D2F
:102040000A4C641BA410A64205D170BDB300EB5826
:1020500098470136EEE7B300EB5898470136F2E7B0
:10206000DC030020DC030020DC030020E003002070
:10207000931E10B50C00222B04D900231C000B70FA
:10208000200010BD0A2A09D1002807DA2D230B7081
:1020900001214042611800F0D9F8F1E70021F9E789
:1020A00010B5FFF7E5FF10BD002310B59A4200D12F
:1020B00010BDCC5CC4540133F8E70300821893428E
:1020C00000D1704719700133F9E700000FB40B4BD2
:1020D00013B51C68002C05D0A369002B02D1200089
:1020E00000F0E6FA05AB2000049AA168019300F025
:1020F000F9FC16BC08BC04B01847C04678030020A1
:1021000070B505000E00002804D08369002B01D1B2
:1021100000F0CEFAAB69AC68002B02D1280000F0C9
:10212000C7FA2D4B9C4222D16C68636EDB0705D445
:10213000A3899B0502D4A06D00F05BFBA3891B075C
:1021400002D52369002B29D12100280000F00AF9CB
:10215000002823D001256D42636EDB0705D4A389D7
:102160009B0502D4A06D00F045FB280070BD1B4B01
:102170009C4201D1AC68D8E7194B9C42D5D1EC68A0
:10218000D3E70136A360002B04DAA2699A4216DC79
:102190000A2914D023685A1C22601970A368317868
:1021A000013B0029EDD1A360002B0FDA28002200AB
:1021B0000A3100F081F80A25431CCDD1CAE722007C
:1021C000280000F079F8431CE8D1C3E70A2523680A
:1021D0005A1C22601D70BFE75037000070370000A6
:1021E0003037000010B5034B01001868FFF788FF77
:1021F00010BDC04678030020020010B5137814000B
:102200000132002BFAD1CA5CE2540133002AFAD120
:1022100010BD0023C25C0133002AFBD1581E704759
:102220000A7830B5002A0CD130BD9A4208D101237A
:10223000CC5C002CF8D0C55CA54201D10133F7E796
:1022400001300378002BF0D11800EDE7F0B50C0059
:1022500016008DB025220700164902A8FFF724FFBB
:10226000621E0092B31E02AA00250192222B04D9FD
:1022700025702C0020000DB0F0BD38003100FFF7B4
:10228000B1FE0B00019A2900D35C009A0135535529
:102290003B0007009E42F0D90023220063550B004B
:1022A000C81A8342E6DD1078E55C1570E05401320F
:1022B000013BF5E708370000F8B505000E001400F3
:1022C000002804D08369002B01D100F0F1F9224BE2
:1022D0009C422ED16C68A369A360A3891B0732D5E9
:1022E0002369002B2FD023682269F7B2981A6369FB
:1022F000F6B2834205DC2100280000F037F90028FF
:1023000027D1A3680130013BA36023685A1C2260D7
:102310001F706369834204D0A389DB0707D50A2EA7
:1023200005D12100280000F021F9002811D130004A
:10233000F8BD0A4B9C4201D1AC68CCE7084B9C42EB
:10234000C9D1EC68C7E72100280000F00BF800288D
:10235000C9D001267642EAE7503700007037000006
:1023600030370000374B70B51D6806000C00002D9B
:1023700005D0AB69002B02D1280000F099F9324B4F
:102380009C420FD16C680C23E25E93B211072DD4EE
:10239000D90611D409230120336037331343A381B5
:1023A000404270BD294B9C4201D1AC68EBE7284B01
:1023B0009C42E8D1EC68E6E75B0713D5616B002926
:1023C00008D023004433994202D0300000F080FA54
:1023D000002363632422A3899343A38100236360C2
:1023E000236923600823A2891343A3812369002B57
:1023F0000BD1A0218022A389890092000B40934237
:1024000003D02100300000F01FFA0C22A35E01204F
:102410001A0099B2024003420FD00022A260626902
:102420005242A261002022698242BAD10A06B8D57E
:1024300040221343A3810138B3E7880700D46269BF
:10244000A260EFE7780300205037000070370000EB
:1024500030370000F7B58B8905000C001A075FD4F0
:102460004A68002A04DC0A6C002A01DC0020FEBD58
:10247000E76A002FFAD0002280212E682A601A0015
:1024800049010A400B4234D0606DA3895B0706D531
:102490006368C01A636B002B01D0236CC01A020062
:1024A000216A00232800E76AB847A189431C06D1A6
:1024B0002B681D2B31D82C4ADA40D3072DD50023A9
:1024C000636023692360CB0405D5431C02D12B68CC
:1024D000002B00D16065616B2E600029C6D02300FF
:1024E0004433994202D0280000F0F2F900206063E2
:1024F000BDE701232800216AB847431CC5D12B68DA
:10250000002BC2D01D2B01D0162B01D12E60ADE7C0
:102510004023A2891343A381A9E740230B43FAE791
:102520000F69002FA2D00A680F60D21B019200220F
:102530009B0700D14A69A260019B002B00DC95E754
:102540003A002800019B216AA66AB047002806DCF1
:1025500040230120A28940421343A38187E7019BC6
:102560003F181B1A0193E7E7010040200B6970B583
:1025700005000C00002B02D10025280070BD0028AA
:1025800004D08369002B01D100F092F8144B9C42D7
:102590001BD16C680C22A35E002BEDD0626ED207BB
:1025A00004D49B0502D4A06D00F023F9280021007B
:1025B000FFF750FF636E0500DB07DED4A3899B05A0
:1025C000DBD4A06D00F016F9D7E7064B9C4201D191
:1025D000AC68DFE7044B9C42DCD1EC68DAE7C0462C
:1025E000503700007037000030370000002310B56E
:1025F0000400036043608360818143661900C281E7
:1026000003614361836108225C30FFF756FD054B8F
:1026100024626362044BA362044BE362044B2363B2
:1026200010BDC04681300000A9300000E13000003C
:102630000D31000010B5024900F0BAF810BDC046D7
:102640006D25000070B568254A1E55430E0029000F
:10265000743100F0A9F9041E08D000212A0001609D
:1026600046600C30A0606832FFF727FD200070BD87
:1026700010B5024800F0BDF810BDC0463109002079
:1026800010B5024800F0B6F810BDC0463109002070
:1026900010B5024800F0ADF810BDC0463209002068
:1026A00010B5024800F0A6F810BDC046320900205F
:1026B00013B50400FFF7ECFFA369002B02D0FFF76E
:1026C000EFFF13BDA364E3642365134B134A1B6838
:1026D000A2620193A34201D10123A361200000F073
:1026E0001FF86060200000F01BF8A060200000F0E0
:1026F00017F800220421E0606068FFF777FF0122ED
:102700000921A068FFF772FF02221221E068FFF79B
:102710006DFF0123A361D2E70437000035260000D6
:10272000F8B50700FFF7A4FF1F4B1E68B369002B25
:1027300002D13000FFF7BCFF4836B4687368013B34
:1027400004D53368002B22D03668F6E70C22A55E4C
:10275000002D1AD12000154B5830E360656600F05B
:1027600047F8FFF78DFF2000082229002560A560AB
:10277000656025616561A5615C30FFF79EFC65635E
:10278000A563A564E5642000F8BD6834D7E704219B
:102790003800FFF757FF041E3060D5D1FFF770FFF8
:1027A0000C233B60EFE7C046043700000100FFFF49
:1027B000F7B5040006000027019148346368A56856
:1027C0000093009B013B009304D52468002CF5D1B5
:1027D0003800FEBDAB89012B08D90E22AB5E013358
:1027E00004D029003000019B984707436835E8E78B
:1027F000704770477047000070B50E001D000E2333
:10280000C95E140096B0002908DA0C22B35E0022DB
:102810002A601B0611D48023DB000FE06A4600F01B
:10282000A1FC0028F1DBF02301991B021940054BA4
:10283000C9184B4259412960EDE74023002023602D
:1028400016B070BD00E0FFFFF7B502268B890500CA
:102850000C00334206D02300473323602361012359
:102860006361F7BD6A4601ABFFF7C6FF0099070039
:10287000280000F099F8002808D10C22A35E9A05E0
:10288000EFD4032293431E43A681E4E70F4BAB62D0
:102890008023A28920601343A381009B2061636190
:1028A000019B002B0DD028000E23E15E00F06CFC94
:1028B000002806D00322A38993431A00012313435F
:1028C000A381A0890743A781CBE7C0463526000036
:1028D00070B50500002910D00C1F2368002B00DA0A
:1028E000E418280000F082FC1D4A1368002B05D173
:1028F00063601460280000F081FC70BDA34208D919
:10290000216860188342F3D118685B684118216020
:10291000EEE71A005B68002B01D0A342F9D91168D9
:102920005018A0420BD1206809185018116083423A
:10293000E0D118685B68411811605360DAE7A04283
:1029400002D90C232B60D5E721686018834203D19C
:1029500018685B684118216063605460CAE7C0462C
:102960003409002070B50F4E0D00316804000029B5
:1029700002D100F073FB30602900200000F06EFBF4
:10298000431C0AD00323C51C9D43A84207D0291A23
:10299000200000F063FB431C01D101256D4228009B
:1029A00070BDC04638090020F7B50322CB1C934305
:1029B000083306001F000C2B32D20C27B94231D845
:1029C000300000F013FC324D2B681C00002C2ED17F
:1029D00039003000FFF7C6FF0400431C1ED12C68ED
:1029E0002500002D4AD123682900E3183000019307
:1029F00000F034FB019B834243D123680337FF1A65
:102A000003239F4308370C2F00D20C2739003000D6
:102A1000FFF7A8FF431C34D02368DF19276013E0B9
:102A2000002BCBDA0C23002533602800FEBD226882
:102A3000D11B20D40B2917D9E2192760A34211D149
:102A40002A606368116053603000250000F0D6FBF7
:102A500007220B35231D9543EA1A9D42E5D05B1BE7
:102A6000A350E2E75A60ECE76268A34201D12A6012
:102A7000EAE75A60E8E723006468A7E72C006D687E
:102A8000AFE70C233000336000F0B8FBCDE7C04661
:102A900034090020936810B5013B9360002B04DAE1
:102AA0009469A34207DB0A2905D01368581C1060FB
:102AB0001970080010BDFFF7FFFB0100F9E7F8B53A
:102AC00006000F001400D518AC4201D1002007E029
:102AD00021783A003000FFF7DDFF0134431CF3D1C9
:102AE000F8BD0000F0B5A1B006000C001F00039275
:102AF000002804D08369002B01D1FFF7D9FD8E4B4C
:102B00009C421CD17468636EDB0705D4A3899B05C6
:102B100002D4A06DFFF76DFEA3891B0702D52369C0
:102B2000002B1DD121003000FFF71CFC002817D01E
:102B3000636EDB070DD50120404221B0F0BD7F4B15
:102B40009C4201D1B468DEE77D4B9C42DBD1F46846
:102B5000D9E7A3899B05EED4A06DFFF74BFEEAE70A
:102B6000002308AD6B6120336B761033AB7607978B
:102B7000039F3B78002B01D0252B4ED1039BFB1AE2
:102B80000593039B9F420DD0059B21003000039AC3
:102B9000FFF795FF431C00D1B5E06A69059B944699
:102BA00063446B613B78002B00D1ACE001227B1CBD
:102BB0000393002352426A6004A9543252182B60D6
:102BC000EB60AB601370AB65039B052219785D4821
:102BD00000F000FB039B5F1C002820D12A68D3066D
:102BE00004D5532304A95B1820211970130704D5B9
:102BF000532304A95B182B211970039B1B782A2BE4
:102C000016D00021EB68039F3A78781C303A84464E
:102C1000092A4FD9002911D117E00137A9E7494BFB
:102C20002A68C01A0123834013432B600397CBE724
:102C3000079B191D1B680791002B01DB0B9304E018
:102C40005B42EB60022313432B603B782E2B0AD1AF
:102C50007B782A2B37D1079B02371A1D1B680792F6
:102C6000002B2DDB099303223978374800F0B2FAA4
:102C7000002807D0344B2A68C01A402383401343EE
:102C800001372B6039787B1C062230480393297664
:102C900000F0A0FA002845D02D4B002B27D10722A9
:102CA000079B07339343083307936B69049A9B1878
:102CB0006B615DE70A214B4367469B180939A3E71F
:102CC00001235B42CEE700231A0001376B6039789D
:102CD000781C30398446092903D9002BC3D00992C6
:102CE000C1E70A235A4367465218093BEFE707AB8F
:102CF0000093220029003000164B00E000BF049032
:102D0000049B0133D1D1636EDB0705D4A3899B05F6
:102D100002D4A06DFFF76EFDA3895B0600D50AE71C
:102D20000D980AE707AB0093220029003000094BF9
:102D300000F082F8E3E7C04650370000703700002B
:102D40003037000090370000963700009A370000B7
:102D500000000000BF2A0000F7B5150001938A6843
:102D60000B690C000090934200DA130022002B60E4
:102D700043321278002A01D001332B6023689B066E
:102D800002D52B6802332B602268062317001F40F0
:102D90001A4227D0230043331B785A1E93412268DE
:102DA000920630D4220001990098089E4332B04721
:102DB000431C25D0062320682A68E16800250340CB
:102DC000042B03D18D1AEB43DB171D40A368226946
:102DD000934201DD9B1AED180027BD4220D100204F
:102DE00010E00137E3682A689B1ABB42D2DD22005B
:102DF000012301990098089E1932B047431CF0D175
:102E000001204042FEBD3020E1184331087021000E
:102E10005A1C45310978A218433202331170C1E7B8
:102E20002200012301990098089E1A32B047431CE2
:102E3000E6D00137D1E70000F0B58BB006920A006A
:102E400043320793059004920A7E0C00109B782A67
:102E500007D8622A09D8002A00D1C1E0582A00D137
:102E60008CE026004236327022E0100063381528CC
:102E7000F7D800F0DFF916001F00F6FFF6FFF6FFA7
:102E8000F6FF1F00F6FFF6FFF6FFF6FFA80036007C
:102E90009A00F6FFF6FFB900F6FF3600F6FFF6FFE0
:102EA0009E0026001A684236111D1960136833709F
:102EB0000123A7E0086819680A1D05060BD50D68EF
:102EC0001A60002D03DA2D23049A6D421370614BB2
:102ED0000A2703931BE00D681A604106F1D52DB255
:102EE000EFE70D681968081D18602E0601D50D68FA
:102EF00003E06D06FBD50D68ADB2564B0827039372
:102F00006F2A00D002372300002243331A7063680F
:102F1000A360002B03DB0422216891432160002D74
:102F200002D1049E002B0CD0049E28003900FFF72C
:102F300059F8039B013E5B5C33702B0005009F42F8
:102F4000F3D9082F09D12368DB0706D56368226906
:102F5000934202DC3023013E3370049B9B1B2361B0
:102F6000079B210000930598069B09AAFFF7F4FE32
:102F7000431C4CD1012040420BB0F0BD45310A70DA
:102F8000344A03921A68216820CA1A60080616D5C6
:102F9000CB0702D52023194321601027002DB2D181
:102FA000202322689A432260ADE7202209680A4361
:102FB00022602200782145321170274AE1E7480655
:102FC000E6D5ADB2E4E71A680D68101D49691860CE
:102FD00013682E0601D5196002E06D06FBD5198035
:102FE0000023049E2361BBE71A68111D196016684F
:102FF00000213000626800F0EDF8002801D0801B4D
:103000006060636823610023049A1370A8E7236952
:10301000320006990598079DA847431CAAD023684B
:103020009B0715D4099BE0689842A5DA1800A3E72E
:103030002200012306990598079E1932B047431CC8
:1030400098D00135E368099A9B1AAB42F0DCE9E7B6
:103050000025F7E7A1370000B2370000002370B564
:10306000064D040008002B6000F0EEF8431C03D16D
:103070002B68002B00D0236070BDC0462C090020B7
:1030800070B50C000E25495F00F0C0F8002803DB86
:10309000636D1B18636570BDA389024A1340A38149
:1030A000F9E7C046FFEFFFFFF8B51F008B89050069
:1030B0000C001600DB0505D50E23C95E0022022395
:1030C00000F074F8A389054A28001340A381320058
:1030D0000E23E15E3B0000F01FF8F8BDFFEFFFFF9D
:1030E00070B50C000E25495F00F060F8A389421C02
:1030F00003D1054A1340A38170BD802252011343BE
:10310000A3816065F8E7C046FFEFFFFF10B50E230F
:10311000C95E00F015F810BD70B50400080011007C
:103120001A000023054D2B60FEF728F9431C03D13C
:103130002B68002B00D0236070BDC0462C090020F6
:10314000002370B5064D040008002B60FEF733FE27
:10315000431C03D12B68002B00D0236070BDC046F8
:103160002C090020002370B5064D04000800110052
:103170002B60FEF728FE431C03D12B68002B00D0E8
:10318000236070BD2C090020002370B5064D04009B
:1031900008002B60FEF71FFE431C03D12B68002B99
:1031A00000D0236070BDC0462C09002070B504001B
:1031B000080011001A000023054D2B60FEF712FED7
:1031C000431C03D12B68002B00D0236070BDC04688
:1031D0002C090020C9B28218904201D1002070470A
:1031E00003788B42FBD00130F6E7000010B50248AF
:1031F000FFF7FFFA10BDC0463009002010B50248A5
:10320000FFF7F8FA10BDC0463009002070B5040081
:10321000080011001A000023054D2B60FEF7CEF8C0
:10322000431C03D12B68002B00D0236070BDC04627
:103230002C09002003B47146490840004900095E8A
:1032400049008E4403BC7047044A030010680028FC
:1032500002D0C318136070470148FAE73C09002008
:1032600040090020FEE7C046F8B5C046F8BC08BCDF
:103270009E467047F8B5C046F8BC08BC9E467047ED
:103280007B0000002C0000007D00000041540D0A6E
:10329000000000004154453156310D0A0000000085
:1032A00041542B43474D4D0D0A00000041542B4320
:1032B000474D490D0A000000EC070000E20700003E
:1032C000EE070000FA07000006080000EC07000007
:1032D0001208000041542B435245473F0D0A00009D
:1032E00041542B43475245473F0D0A0041542B435D
:1032F000474143543F0D0A0041542B434D45453D42
:10330000310D0A0041542B43474154543D310D0ABD
:103310000000000041542B43474143543D312C31C0
:103320000D0A000041542B434750414444523D2074
:10333000310D0A00B4080000520800005E080000C9
:103340006A08000076080000820800008E0800006D
:103350009A0800005C0800005C080000A608000055
:1033600041542B4E45544F50454E0D0A000000006D
:1033700041542B4950414444520D0A006C0900004D
:103380001609000022090000200900002E09000093
:103390003A09000046090000520900002009000017
:1033A0005E09000041542B4E45544F50454E3D316F
:1033B0000D0A000041542B485454505445524D0DB1
:1033C0000A00000041542B48545450494E49540DB2
:1033D0000A00000041542B48545450504152413D82
:1033E0000000000055524C0041542B4854545041A9
:1033F0004354494F4E3D300D0A00000041542B48C4
:10340000545450484541440D0A00000041542B4893
:10341000545450524541443D302C3530300D0A0053
:10342000F00A0000320A00003E0A00004A0A0000CA
:10343000B20A00003C0A00003C0A0000BE0A00007C
:10344000CA0A0000D60A0000E20A000041542B43D9
:10345000474D520D0A00000041542B4347534E0D77
:103460000A00000041542B43494D490D0A00000059
:1034700041542B43434C4B3F0D0A000041542B4316
:1034800050494E3F0D0A000041542B434744434FDF
:103490004E543F0D0A00000041542B4353510D0A76
:1034A0000000000041542B49505245583D393630F8
:1034B000300D0A0041542B434F50533F0D0A00007A
:1034C00041542B4346554E3F0D0A000041542B43B7
:1034D00047434C4153533F0D0A00000041542B43D6
:1034E0005343413F0D0A000041542B434D47463F93
:1034F0000D0A0000580C0000840B0000900B000027
:103500009C0B0000AE0B0000BA0B0000CC0B0000BF
:10351000D80B0000E40B0000F00B0000020C0000D0
:103520000E0C00001A0C0000260C0000320C0000EB
:103530003E0C00004A0C000041542B4854545044A7
:103540004154413D000000003130300041542B48CF
:10355000545450414354494F4E3D310D0A00000030
:10356000300E0000DC0C0000E80C0000080D00002C
:10357000700D0000E60C0000E60C0000AE0D00002F
:10358000D40D0000E60C0000E60C0000FE0D00006B
:103590000A0E0000E60C0000160E0000E60C00000B
:1035A000220E0000E60C000043494D4900000000D7
:1035B000494D4549206973203A000000436865631E
:1035C0006B20436F6E6E65637469766974792070E1
:1035D0006572696F646963616C6C790D0A00000043
:1035E0004544454C20534D4152542044455649438F
:1035F0004553202D203030310D0A0000BA10000054
:1036000050110000561100005C1100006211000012
:10361000681100006E110000741100007A110000A2
:1036200000000000040000000C0000002400000066
:1036300000000000040000002C0000007230202078
:103640003D20307825780A00723120203D203078E6
:1036500025780A00723220203D20307825780A0033
:10366000723320203D20307825780A0072313220D4
:103670003D20307825780A006C7220203D2030787B
:1036800025780A00706320203D20307825780A00D4
:10369000707372203D20307825780A00496E2048EA
:1036A000617264204661756C742048616E646C655B
:1036B00072000000001BB700008000000000000046
:1036C00000000000000000001027000000000000C3
:1036D00000805101001BB7000000000000800000C6
:1036E00000805101001BB7000080000000E048048A
:1036F00010270000006CDC02000000000000000049
:10370000008051017C0300203031323334353637AC
:1037100038396162636465666768696A6B6C6D6E8F
:103720006F707172737475767778797A0000000023
:103730000000000000000000000000000000000089
:103740000000000000000000000000000000000079
:103750000000000000000000000000000000000069
:103760000000000000000000000000000000000059
:103770000000000000000000000000000000000049
:103780000000000000000000000000000000000039
:10379000232D302B2000686C4C006566674546473A
:1037A00000303132333435363738394142434445BD
:1037B000460030313233343536373839616263642C
:0837C000656600000000000036
:0837C8003CC9FF7F0100000075
:1037D000434F554E5445523A00000000000000008F
:1037E00000000000000000000000000000000000D9
:1037F0002200000048756D69646974793A00000020
:1038000000000000000000000000000000000000B8
:10381000000000004E4F783A000000000000000059
:103820000000000000000000000000000000000098
:1038300000000000504D312E303A00000000000022
:103840000000000000000000000000000000000078
:1038500000000000504D31303A0000000000000030
:103860000000000000000000000000000000000058
:1038700000000000504D322E353A000000000000DC
:103880000000000000000000000000000000000038
:1038900000000000504D342E303A000000000000BF
:1038A0000000000000000000000000000000000018
:1038B0000000000054656D70617261747572653A44
:1038C00000000000000000000000000000000000F8
:1038D00000000000687474703A2F2F7468696E6776
:1038E00073626F6172642E636C6F75642F617069AF
:1038F0002F76312F576E57777744683444384869AC
:10390000314834486E4A39352F7270630000000028
:1039100000000000000000000000000000000000A7
:103920000000000000000000000000000000000097
:103930000000000000000000000000000000000087
:103940000000000000000000000000000000000077
:103950000000000000000000000000000000000067
:103960000000000000000000000000000000000057
:103970000000000000000000000000000000000047
:103980000000000000000000000000000000000037
:103990000000000000000000000000000000000027
:1039A0000000000000000000000000000000000017
:1039B0000000000000000000000000000000000007
:1039C00000000000000000000000000000000000F7
:1039D000564F433A000000000000000000000000C5
:1039E00000000000000000000000000000000100D6
:1039F000687474703A2F2F7468696E6773626F61B0
:103A000072642E636C6F75642F6170692F76312F2D
:103A1000576E57777744683444384869314834489A
:103A20006E4A39352F74656C656D65747279000066
:103A30000000000000000000000000000000000086
:103A40000000000000000000000000000000000076
:103A50000000000000000000000000000000000066
:103A60000000000000000000000000000000000056
:103A70000000000000000000000000000000000046
:103A80000000000000000000000000000000000036
:103A90000000000000000000000000000000000026
:103AA0000000000000000000000000000000000016
:103AB0000000000000000000000000000000000006
:103AC00000000000000000000000000000000000F6
:103AD00000000000000000000000000000000000E6
:103AE0000000000000000000000004010084001A33
:103AF0000B0052D84000014002A2F520007F091BB4
:103B000040B03B9B80558B408006000000000000C9
:103B10000000170000E4000000039869817E960011
:103B200000000090FF0000008F0200000000000075
:103B3000000000000000000000000100470000003D
:103B400000E0480400E048047C030020000000007E
:103B500050370000703700003037000000000000D0
:103B60000000000000000000000000000000000055
:103B70000000000000000000000000000000000045
:103B80000000000000000000000000000000000035
:103B90000000000000000000000000000000000025
:103BA000000000000000000000000000E500000030
:043BB000BD00000054
:0400000300001DF5E7
:00000001FF
