:1000000000200020013A00006D3A0000BD380000D9
:1000100000000000000000000000000000000000E0
:100020000000000000000000000000006D3A000029
:1000300000000000000000006D3A00006D3A000072
:100040006D3A00006D3A00006D3A00006D3A000014
:100050006D3A00006D3A00006D3A00006D3A000004
:10006000E10A00006D3A00006D3A00006D3A0000B0
:10007000C11F0000A12000006D3A00006D3A000091
:100080006D3A00006D3A00006D3A00006D3A0000D4
:100090006D3A00006D3A00006D3A00006D3A0000C4
:1000A0006D3A00006D3A00006D3A00006D3A0000B4
:1000B0006D3A0000890100006D3A00006D3A0000C1
:1000C00010B5064C2378002B07D1054B002B02D02E
:1000D000044800E000BF0123237010BD9C070020EE
:1000E00000000000A4970000044B10B5002B03D0C3
:1000F0000349044800E000BF10BDC04600000000F6
:10010000A0070020A4970000402292029A1A92466B
:100110007047C046174B002B00D1134B9D46FFF78D
:10012000F3FF00218B460F461348144A121A05F0BC
:1001300020F80E4B002B00D098470D4B002B00D021
:1001400098470020002104000D000D48002802D02F
:100150000C4800E000BF04F0C3FF2000290002F0BB
:1001600073FF04F0A7FFC046000008000000000075
:1001700000000000002000209C07002064140020E4
:1001800000000000000000000123034A136003493F
:1001900090228B507047C046BC07002000300440BE
:1001A00010B5064C0F2308220021200003F07EFA30
:1001B0008022A35801210B43A35010BD00300440FE
:1001C0000C4B9022012199507F3158588022120106
:1001D00002435A50074A9023D358DB07FAD5536895
:1001E0001B041B0C04490B6013681B041B0C034A03
:1001F0001360704700300440B8070020C00700209B
:1002000010B517222449254803F0B2FB8022D205FD
:1002100080235B005921D1504339D1507231D150E4
:10022000D358002BF2D01E4A13684F390B4313608A
:100230001C4C200005F05FF802000021200004F0B3
:1002400098FF194B00221A800DE0A400174B186884
:100250002018174B186000F0CDFA124B1851124AB3
:10026000138801331380104B1C887D2CEDD90D4C65
:10027000200005F040F802002100084803F078FB58
:10028000074A136801218B4313608022D205802323
:100290005B000021D15010BD448A000000200740BF
:1002A00000C00040040800204C0C0020180600206C
:1002B000100C002070B5854D854C022229002000CD
:1002C00003F056FB834E2C223100200003F050FB3C
:1002D0002C228149200003F04BFB2C22310020000E
:1002E00003F046FB02222900200003F041FB1D22FF
:1002F0007A49200003F03CFB1E227949200003F0DC
:1003000037FB784B784A1A605AE0A40077496118A5
:10031000774D0422280004F023FF724B1868201840
:10032000744B1860296800F089FA734A1388013306
:100330001380724B1B889B086F4A1488A342E4D237
:100340006F4C0123237010226E49614803F010FBAB
:100350002378002B0BD16C4A136801218B43136067
:100360008022D20580235B000021D1502CE00023A5
:10037000634A1370604A13800DE0A400594B18685B
:1003800020185C4B186000F035FA604B18515A4A3F
:10039000138801331380594B1A889208564B1C88D6
:1003A000A242EAD2594C200004F0A5FF020021002D
:1003B000474803F0DDFACEE7554B1B78002B53D1AD
:1003C000544B1B78002B7FD0534B1B78002BF3D062
:1003D0004F4B1B78002BF7D000264D4B1E704F4D16
:1003E000424C2900200004F07EFF280004F083FF27
:1003F00002000021280004F0BCFE494B1E80344D51
:100400000B224849280003F0B3FA200004F073FFE0
:1004100002002100280003F0ABFA02222B49280039
:1004200003F0A6FA00223C4B1A70200004F063FF90
:10043000324B18808022D20580235B005921D15095
:100440004339D1507231D150D358002BF2D02E4ABB
:10045000136887390B431360224B186800F090F93A
:10046000254B00221A8064E70026294B1E702B4C76
:100470001E4D2100280004F036FF200004F03BFF51
:1004800002000021200004F074FE254B1E8004228F
:1004900025490F4803F06CFA3121280004F015FFBC
:1004A000002802D0FFF7ACFE8AE732210F4804F0A3
:1004B0000CFF002884D018221C49054803F058FA84
:1004C000154B01221A707BE770BDC04624920000D4
:1004D000002007405C8A00008C8A0000B08A00007F
:1004E000D08A000018060020E8A00000F8090020CB
:1004F000480C0020100C00204C0C002000080020AC
:10050000EC0B0020FC8A000000C000400408002022
:10051000BB120020A1100020040C0020540F00206A
:10052000A4100020F08A0000108B0000188B00003F
:10053000F0B5C64600B5002527E03B4C9C236B4335
:10054000E2189832176860331C190434200004F054
:10055000D2FE02002100380004F0D4FE9C23424663
:100560005343314EF61898363668300004F0C3FE17
:1005700002002E4C3100200003F0FAF904222C492D
:10058000200003F0F5F90135EDB2092D48D8A84651
:100590009C246C43244BE4182100264804F0C6FE3A
:1005A0000700254E3060200004F0A5FE3F1837609C
:1005B00098342468200004F09EFE020000212000F0
:1005C00004F0D7FD3468002C18D0601C9C216943CE
:1005D0003031154BC918023104F0A8FE0200174B48
:1005E00018608442A9D29C2169430F4B5B18983351
:1005F0001868121B210004F085FEAFE70A4C9C230B
:100600006B43E2189832176860331C1904342000D9
:1006100004F071FE02002100380004F073FE9DE733
:1006200080BCB846F0BDC046000000200020074056
:10063000108B0000040800200C0C0020080C002087
:10064000F8B50500144B154A9A608022D205802324
:100650005B005924D450433CD4507234D450D35806
:10066000002BF2D00E4C23680126334323600D4F3C
:10067000380000F085F80C4B18702900380000F0A5
:10068000DDF82368B34323608022D20580235B001A
:100690000021D150F8BDC04600000440A55A00001A
:1006A00000C0004098120000050C002010B5134B4C
:1006B000134A9A608022D20580235B005921D150D1
:1006C0004339D1507231D150D358002BF2D00D4C58
:1006D00023683922134323600B4800F08BF80B4A40
:1006E0001070236801218B4323608021C90580237A
:1006F0005B000020C850107810BDC04600000440C8
:10070000A55A000000C0004098120000050C00200F
:1007100010B5174B00221A60164B2232DA60802285
:1007200092035A60144A9A6001221A61134B1868A6
:10073000142103F015FA0138002803D00D4B1B6972
:10074000DB07F8D4002805D00A4B1B685B0605D4EC
:10075000002010BD0138064B1860FAE7054A1368FF
:1007600040210B43136001204042014B1860F0E729
:10077000500C002000C0004003AA55002C070020A8
:1007800010B5194B00221A6080239B03984219D0A0
:10079000164B2222DA605860213A1A61144B18680D
:1007A000142103F0DDF90138002803D00F4B1B6939
:1007B000DB07F8D4002808D00C4B1B685B0608D474
:1007C000002010BDFFF7A4FFFBE70138064B1860BF
:1007D000F7E7064A136840210B43136001204042AB
:1007E000014B1860EDE7C046500C002000C00040EF
:1007F0002C07002010B500220D4B1A600D4BDA605B
:10080000586001321A610C4B1868282103F0A8F9CE
:100810000138002803D0074B1B69DB07F8D40028F8
:1008200002D0044B986810BD0138014B1860FAE7FC
:10083000500C002000C000402C07002010B5204BB9
:1008400000221A601F4B2132DA6058609960203A0A
:100850001A611D4B1868282103F082F90300013B3F
:10086000002B03D0174A1269D207F8D4002B14D0FA
:10087000144B1B6C5B0615D4124A916980239B00B4
:100880000B4393610138002803D00E4B9B699B05F5
:10089000F8D4002810D0002010BD01204042084BA1
:1008A0001860F9E7074A136C40210B4313640120D9
:1008B0004042034B1860EFE70138014B1860EBE74B
:1008C000500C002000C000402C07002070B5802292
:1008D000D20580235B005921D1504339D150723168
:1008E000D150D358002BF2D0504A13687C390B43B7
:1008F00013604E4B1B6DDB06FBD54C4B1B6D1B0772
:10090000FBD54A4B1A6907210A431A611A6A0F2656
:10091000B2431A629968E022D2020A439A6003F055
:10092000A7F8434C200002F06DFF802100228900CF
:10093000200002F023FF8024E405E06B3D4A1040D4
:10094000CC21C9030143E163A16B3B480840CC21A2
:10095000C9010143A163A36D1A4088239B0313437C
:10096000A365364D280002F04DFF9022C0211203EE
:100970008903280002F002FF314D002201212800E6
:1009800002F0E6FEA36BB34301221343A3636A683C
:1009900080235B0213436B6000220221280002F0D7
:1009A000D7FEA36BF0229343E03A1343A3636A6834
:1009B00080239B0213436B60224E01228021300072
:1009C00002F0C6FE236B1B011B09236301220421D5
:1009D000300002F0BDFE236B1B4A1340236301224B
:1009E0004021280002F0B4FEA36B184D2B40A363F6
:1009F00001224021300002F0ABFE236B2B40236329
:100A0000AC25ED0500220321280002F0B7FE2800E6
:100A100002F0F8FEE020002301220021C00002F0D5
:100A2000C1FF80235B000022E25070BD0002004045
:100A30000200805EFFFF00FFFF00FFFF1CFE436718
:100A40004040004000400040FFF0FFFFFFFFFFF08C
:100A50008023DB05D968802252020A43DA60DA6813
:100A600004490A40DA60044B044A5A620322DA60FD
:100A70007047C046FFFFFEFF0000074086130030AE
:100A80008023DB05D968802292020A43DA60DA68A3
:100A900004490A40DA60044B044A5A620322DA60CD
:100AA0007047C046FFFFFDFF00100740861300306F
:100AB0008023DB05D9688022D2020A43DA60DA6833
:100AC00004490A40DA60044B044A5A620322DA609D
:100AD0007047C046FFFFFBFF002007408613003031
:100AE000084B9B68DB070CD50122064B9A60064930
:100AF0000B7801330B70054B1A70054A13780133DC
:100B000013707047000005409C120020061400205E
:100B10005410002010B5214B1A78082A31D89300C0
:100B20001F4AD3589F4605221E491F4802F020FF46
:100B300010BD09221D491C4802F01AFFF8E70A22DD
:100B40001B49194802F014FFF2E70A221949164816
:100B500002F00EFFECE70C221749134802F008FFE1
:100B6000E6E709221549104802F002FF144B012262
:100B70001A60DDE7134B02221A70084B00221A702C
:100B8000D6E7114B1B78002B03D0013B0E4A1370A4
:100B9000CEE70E4B1A78014B1A70C9E79C12002061
:100BA000788B0000348B0000001007403C8B000065
:100BB000488B0000548B0000608B00006C8B0000A1
:100BC00018480040120700209D1200201314002036
:100BD00010B5294B1A780C2A40D89300274AD358CD
:100BE0009F460A222649274802F0C2FE10BD0B226A
:100BF0002549244802F0BCFEF8E70A22234921488F
:100C000002F0B6FEF2E70C2221491E4802F0B0FEC7
:100C1000ECE70B221F491B4802F0AAFEE6E70B2275
:100C20001D49184802F0A4FEE0E70C221B491548B4
:100C300002F09EFEDAE70E221949124802F098FEF1
:100C4000D4E70E2217490F4802F092FECEE7164B6A
:100C500005221A70084B00221A70C7E7134B1B7845
:100C6000002B03D0013B114A1370BFE7104B1A78D9
:100C7000014B1A70BAE7C0469C120020188C000085
:100C80009C8B000000100740A88B0000B48B000074
:100C9000C08B0000D08B0000DC8B0000E88B0000D4
:100CA000F88B0000088C0000120700209D12002025
:100CB0001314002010B5164B1B78052B0BD8032BF3
:100CC00017D2012B10D0022B14D10C22114912483B
:100CD00002F04EFE0DE0062B0CD1104B06221A70CE
:100CE0000B4B00221A7004E00B220D490A4802F057
:100CF0003FFE10BD0B4B1B78002B03D0013B094A74
:100D00001370F6E7084B1A78014B1A70F1E7C046EA
:100D10009C1200205C8C000000100740120700208D
:100D20004C8C00009D1200201314002070B54A4B1B
:100D30001A780A2A00D981E09300484AD3589F467E
:100D4000474C19224749200002F012FE0D22464965
:100D5000200002F00DFE70BD0D224449404802F013
:100D600007FEF8E73E4C0C224149200002F000FE4D
:100D7000404D01222900200002F0FAFD03223E49E5
:100D8000200002F0F5FD01222900200002F0F0FD14
:100D900001223A49200002F0EBFD01222900200047
:100DA00002F0E6FD364E300004F0A5FA02003100F4
:100DB000200002F0DDFD0B223249200002F0D8FDB8
:100DC000314E300004F097FA02003100200002F0AA
:100DD000CFFD0D222D49200002F0CAFD012229007D
:100DE000200002F0C5FD02222949200002F0C0FDCA
:100DF000B1E7112227491A4802F0BAFDABE70F22EA
:100E00002549174802F0B4FDA5E70D2223491448EF
:100E100002F0AEFD9FE712222149114802F0A8FD21
:100E200099E70D2210490E4802F0A2FD93E71D4BF1
:100E300011221A70084B00221A708CE71A4B1B788B
:100E4000002B03D0013B184A137084E7174B1A7824
:100E5000014B1A707FE7C0469C120020208D0000D5
:100E600000100740688C0000848C0000948C000007
:100E7000A48C00001C060020B48C0000B88C00007C
:100E800018140020BC8C0000BC100020C88C00008E
:100E900024920000D88C0000EC8C0000FC8C000038
:100EA0000C8D0000120700209D120020131400205A
:100EB00070B5454B1A780A2A00D981E09300434A5D
:100EC000D3589F46424C19224249200002F050FD5F
:100ED0000D224149200002F04BFD70BD0D223F491B
:100EE0003B4802F045FDF8E7394C0C223C49200014
:100EF00002F03EFD3B4D01222900200002F038FDAA
:100F000003223949200002F033FD0122290020008C
:100F100002F02EFD01223549200002F029FD0122B8
:100F20002900200002F024FD314E300004F0E3F9E6
:100F300002003100200002F01BFD0D222D4920008F
:100F400002F016FD2C4E300004F0D5F902003100FD
:100F5000200002F00DFD0D222849200002F008FDBE
:100F600001222900200002F003FD02222449200072
:100F700002F0FEFCB1E711222249154802F0F8FC0C
:100F8000ABE70F222049124802F0F2FCA5E70D2240
:100F90001E490F4802F0ECFC9FE712221C490C4846
:100FA00002F0E6FC99E70D220B49094802F0E0FC4B
:100FB00093E7184B11221A70034B00221A708CE72A
:100FC000014B00221A7088E79C1200206C8D0000F3
:100FD00000100740688C0000848C0000948C000096
:100FE000A48C00001C060020B48C0000B88C00000B
:100FF000181400204C8D0000BC1000205C8D0000F7
:1010000024920000D88C0000EC8C0000FC8C0000C6
:101010000C8D00001207002070B5474B1A780C2A7F
:1010200000D97CE09300454AD3589F46444C19228E
:101030004449200002F09CFC0D224349200002F0AC
:1010400097FC70BD0D2241493D4802F091FCF8E744
:101050003B4C0C223E49200002F08AFC3D4D01220F
:101060002900200002F084FC03223B49200002F00A
:101070007FFC01222900200002F07AFC012237497E
:10108000200002F075FC01222900200002F070FC13
:10109000334E300004F02FF902003100200002F03E
:1010A00067FC0E222F49200002F062FC2E4E300019
:1010B00004F021F902003100200002F059FC012265
:1010C0002900200002F054FC02222849200002F0EE
:1010D0004FFCB6E711222649194802F049FCB0E757
:1010E0000F222449164802F043FCAAE70E222249A7
:1010F000134802F03DFCA4E712222049104802F0F8
:1011000037FC9EE70D2210490D4802F031FC98E7AC
:101110001B4B11221A70084B00221A7091E7194BD1
:101120001B78002B03D0013B164A137089E7164B3E
:101130001A78014B1A7084E79C120020DC8D0000A5
:1011400000100740988D0000848C0000948C0000F3
:10115000A48C00001C060020B48C0000B88C000099
:1011600018140020B48D0000BC1000202492000050
:10117000D88C0000EC8C0000FC8C0000C48D0000BA
:10118000120700209D1200201314002070B5474B59
:101190001A780C2A00D97CE09300454AD3589F4620
:1011A000444C19224449200002F0E2FB0D2243493D
:1011B000200002F0DDFB70BD0D2241493D4802F0E8
:1011C000D7FBF8E73B4C0C223E49200002F0D0FB55
:1011D0003D4D01222900200002F0CAFB03223B49B9
:1011E000200002F0C5FB01222900200002F0C0FB14
:1011F00001223749200002F0BBFB01222900200018
:1012000002F0B6FB334E300004F075F802003100F6
:10121000200002F0ADFB0F222F49200002F0A8FBB6
:101220002E4E300004F067F802003100200002F07A
:101230009FFB01222900200002F09AFB022228498C
:10124000200002F095FBB6E711222649194802F06A
:101250008FFBB0E70F222449164802F089FBAAE76A
:101260000E222249134802F083FBA4E712222049F0
:10127000104802F07DFB9EE70D2210490D4802F058
:1012800077FB98E71B4B11221A70084B00221A704B
:1012900091E7194B1B78002B03D0013B164A1370C2
:1012A00089E7164B1A78014B1A7084E79C120020CC
:1012B000208E000000100740988D0000848C0000F4
:1012C000948C0000A48C00001C060020B48C00004C
:1012D000B88C000018140020108E0000BC100020F4
:1012E00024920000D88C0000EC8C0000FC8C0000E4
:1012F0000C8D0000120700209D1200201314002006
:1013000070B5434B1A780C2A00D97CE09300414A0F
:10131000D3589F46404C19224049200002F028FB38
:101320000D223F49200002F023FB70BD0D223D49F4
:10133000394802F01DFBF8E7374C0C223A492000EF
:1013400002F016FB394D01222900200002F010FBAB
:1013500003223749200002F00BFB01222900200064
:1013600002F006FB01223349200002F001FB0122BA
:101370002900200002F0FCFA2F4E300003F0BBFFE2
:1013800002003100200002F0F3FA0A222B4920006B
:1013900002F0EEFA2A4E300003F0ADFF02003100F9
:1013A000200002F0E5FA01222900200002F0E0FA14
:1013B00002222449200002F0DBFAB6E7112222497A
:1013C000154802F0D5FAB0E70F222049124802F082
:1013D000CFFAAAE70E221E490F4802F0C9FAA4E785
:1013E00012221C490C4802F0C3FA9EE70D220C4958
:1013F000094802F0BDFA98E7174B11221A70044B06
:1014000000221A7091E7024B00221A708DE7C04645
:101410009C1200207C8E000000100740548E0000BB
:10142000848C0000948C0000A48C00001C0600201A
:10143000B48C0000B88C000018140020708E0000DE
:10144000BC10002024920000D88C0000EC8C00001E
:10145000FC8C00000C8D00001207002070B5434B7F
:101460001A780C2A00D97CE09300414AD3589F4651
:10147000404C19224049200002F07AFA0D223F49DF
:10148000200002F075FA70BD0D223D49394802F086
:101490006FFAF8E7374C0C223A49200002F068FA5C
:1014A000394D01222900200002F062FA0322374957
:1014B000200002F05DFA01222900200002F058FA13
:1014C00001223349200002F053FA012229002000B2
:1014D00002F04EFA2F4E300003F00DFF02003100F3
:1014E000200002F045FA0A222B49200002F040FABF
:1014F0002A4E300003F0FFFE02003100200002F00F
:1015000037FA01222900200002F032FA022224498F
:10151000200002F02DFAB6E711222249154802F008
:1015200027FAB0E70F222049124802F021FAAAE771
:101530000E221E490F4802F01BFAA4E712221C4992
:101540000C4802F015FA9EE70D220C49094802F0FA
:101550000FFA98E7174B11221A70044B00221A70E9
:1015600091E7024B00221A708DE7C0469C120020C2
:10157000B08E000000100740548E0000848C0000E4
:10158000948C0000A48C00001C060020B48C000089
:10159000B88C000018140020708E0000BC100020D1
:1015A00024920000D88C0000EC8C0000FC8C000021
:1015B0000C8D00001207002070B5474B1A780C2ADA
:1015C00000D97CE09300454AD3589F46444C1922E9
:1015D0004449200002F0CCF90D224349200002F0DA
:1015E000C7F970BD0D2241493D4802F0C1F9F8E745
:1015F0003B4C0C223E49200002F0BAF93D4D01223D
:101600002900200002F0B4F903223B49200002F037
:10161000AFF901222900200002F0AAF9012237497E
:10162000200002F0A5F901222900200002F0A0F913
:10163000334E300003F05FFE02003100200002F064
:1016400097F90B222F49200002F092F92E4E30001C
:1016500003F051FE02003100200002F089F901225E
:101660002900200002F084F902222849200002F01B
:101670007FF9B6E711222649194802F079F9B0E757
:101680000F222449164802F073F9AAE70E222249D4
:10169000134802F06DF9A4E712222049104802F025
:1016A00067F99EE70D2210490D4802F061F998E7AD
:1016B0001B4B11221A70084B00221A7091E7194B2C
:1016C0001B78002B03D0013B164A137089E7164B99
:1016D0001A78014B1A7084E79C120020F08E0000EB
:1016E00000100740548E0000848C0000948C000091
:1016F000A48C00001C060020B48C0000B88C0000F4
:1017000018140020E48E0000BC1000202492000079
:10171000D88C0000EC8C0000FC8C00000C8D0000CC
:10172000120700209D1200201314002070B5444BB6
:101730001A780A2A00D975E09300424AD3589F4686
:10174000414C19224149200002F012F90D22404972
:10175000200002F00DF970BD0D223E493A4802F01A
:1017600007F9F8E7384C0C223B49200002F000F959
:101770003A4D01222900200002F0FAF803223849EC
:10178000200002F0F5F801222900200002F0F0F814
:1017900001223449200002F0EBF801222900200048
:1017A00002F0E6F8304E300003F0A5FD02003100F3
:1017B000200002F0DDF80D222C49200002F0D8F8BC
:1017C0002B4E300003F097FD02003100200002F0A4
:1017D000CFF80D222749200002F0CAF80122290083
:1017E000200002F0C5F802222349200002F0C0F8D0
:1017F000B1E711222149144802F0BAF8ABE70F22F1
:101800001F49114802F0B4F8A5E70D221D490E4802
:1018100002F0AEF89FE71C4B11221A70084B002211
:101820001A7098E7194B1B78002B03D0013B174A1D
:10183000137090E7164B1A78014B1A708BE7C0466D
:101840009C120020248F000000100740688C0000CC
:10185000848C0000948C0000A48C00001C060020E6
:10186000B48C0000B88C0000181400204C8D0000CF
:10187000BC1000205C8D000024920000D88C000079
:10188000EC8C0000FC8C0000120700209D12002050
:1018900013140020044B1978044A11705F221A7047
:1018A000034B18707047C0469C1200201314002090
:1018B0009D12002010B5434B1A78102A00D973E00E
:1018C0009300414AD3589F460A224049404802F0BB
:1018D0004FF810BD09223F493D4802F049F8012068
:1018E000FFF7D8FFF5E73C4B01221A7001323B4964
:1018F000374802F03DF8ECE70A223949344802F053
:1019000037F8E6E70A223749314802F031F801207A
:10191000FFF7C0FFDDE70D2233492D4802F028F81C
:10192000D7E7092231492A4802F022F8D1E71022EC
:101930002F49274802F01CF8CBE70B222D492448F9
:1019400002F016F80520FFF7A5FFC2E70B222A498F
:101950001F4802F00DF8BCE70C2228491C4802F091
:1019600007F8B6E70B222649194802F001F8B0E75C
:101970000E222449164801F0FBFFAAE70B22224958
:10198000134801F0F5FFA4E70B222049104801F0AD
:10199000EFFF1F4B00221A609BE71E4B03221A70B9
:1019A000084B00221A7094E71B4B1B78002B03D0C6
:1019B000013B194A13708CE7184B1A78014B1A70C7
:1019C00087E7C0469C120020EC8F0000508F00007B
:1019D000001007405C8F0000C2120020249200001B
:1019E000688F0000748F0000808F0000908F0000CF
:1019F0009C8F0000AC8F00009C8B0000D08B0000FF
:101A0000B88F0000C48F0000D48F0000E08F00006A
:101A10001C480040120700209D12002013140020D3
:101A200010B5214B1A78082A31D893001F4AD35891
:101A30009F460E221E491F4801F09AFF0220FFF721
:101A400029FF10BD0E221C491A4801F091FFF8E74A
:101A50000B221A49174801F08BFFF2E70C221849B4
:101A6000144801F085FFECE70B221449114801F0FE
:101A70007FFFE6E70B2211490E4801F079FFE0E70E
:101A8000104B05221A70084B00221A70D9E70E4B32
:101A90001B78002B03D0013B0B4A1370D1E70B4B93
:101AA0001A78014B1A70CCE79C120020409000007D
:101AB000F88B000000100740309000005C8C0000A4
:101AC0004C8C0000120700209D12002013140020EF
:101AD00070B5454B1A780A2A00D977E09300434A3B
:101AE000D3589F46424B01221A700C32414942485A
:101AF00001F03EFF70BD0D2240493F4801F038FF24
:101B0000F8E70520FFF7C6FE3B4C0C223C492000BD
:101B100001F02EFF3B4D01222900200001F028FF9B
:101B200003223949200001F023FF0122290020006F
:101B300001F01EFF01223549200001F019FF0122AA
:101B40002900200001F014FF314B00221A70314EA1
:101B5000300003F0D0FB02003100200001F008FF4C
:101B60002D4E300003F0C7FB02003100200001F0D1
:101B7000FFFE01222900200001F0FAFE022227497F
:101B8000200001F0F5FEB5E7112225491A4801F0C1
:101B9000EFFE0520FFF77EFEACE70E222149164836
:101BA00001F0E6FEA6E70E221F49134801F0E0FE11
:101BB000A0E70D220F49104801F0DAFE9AE71B4B0F
:101BC00007221A70084B00221A7093E7184B1B78F3
:101BD000002B03D0013B164A13708BE7154B1A7884
:101BE000014B1A7086E7C0469C12002064900000EA
:101BF00014140020848C000000100740948C000016
:101C0000A48C00001C060020B48C0000B88C0000DE
:101C1000A5100020181400200C13002024920000AE
:101C2000D88C0000EC8C0000FC8C00001207002017
:101C30009D1200201314002070B51B4B1D68291C39
:101C400002F05AFB041C194B1860291C184B186829
:101C500002F052FB011C174B1860201C02F00EF919
:101C6000154B1860154902F021FA02F0EFF8C0B2E6
:101C7000134B18701430C0B2124B18700300153B90
:101C8000DBB24F2B02D9132805D970BD0A220E49A9
:101C900003F062FAF9E70C4C03223021200003F034
:101CA00068FA0A4B2380F0E7A0120020A41200205B
:101CB000BC12002098100020D41000200000A04288
:101CC000C1120020C0120020FC12002030300000A1
:101CD00010B50139002305E0C2564456C45442549D
:101CE000013301398B42F7DB10BDF0B5C64600B5B4
:101CF00005000E00904600240CE00A21280002F0A6
:101D00009FF8671C303131550A21280001F0B2FFDD
:101D100005003C00002DF0D102E0302333550134A2
:101D20004445FADB21003000FFF7D2FF36190023CB
:101D30003370200080BCB846F0BD0000F0B583B021
:101D4000051C0F00160002F085FC040002F0A2FC46
:101D5000011C281C02F0D0FA051C002239002000CA
:101D6000FFF7C3FF0400002E01D103B0F0BD2E2306
:101D70003B54300002F08AFF02000B0000200B49A8
:101D800004F082FB00900191281C02F0AFFF009A42
:101D9000019B02F00FFD02F0F1FF01343C1902F04B
:101DA00059FC32002100FFF7A0FFDEE700002440CD
:101DB00010B5044B1B78002B01D0002010BD01F0A2
:101DC000D7FDFBE7A110002070B5684BDB69DB0590
:101DD00030D4664B0022DA61654BDB69DB0500D548
:101DE0006DE0634B0022DA6170BD6249012008702A
:101DF00030E0022B32D90D2A30D15A1E5E498A5C5E
:101E00002D2A2BD19A1E8A5C2D2A27D1033BCB5C2D
:101E10002D2B23D1594B00221A70123258495348A6
:101E200001F0A6FD574B01221A7017E0564A1378AD
:101E3000013313704D4BDB69DB07CAD5524D29784E
:101E40004D4C09190122494801F078FD2B78E25CDC
:101E50000D2ACAD0494909780129CAD04A4B1B78B2
:101E6000022BE3D9454A1278002ADFD1424AD25CDC
:101E70000D2ADBD15A1E40498A5C2B2AD6D19A1EE4
:101E80008A5C2B2AD2D1033BCB5C2B2BCED13B4B94
:101E900001221A7014323D49344801F069FDC5E74A
:101EA0003B4B19783B4BC91801223048FFF780FFA4
:101EB00016E00133DBB2364A1370FA2B1AD82C4BDA
:101EC000DB69DB0700D48CE7314B1978314BC9183B
:101ED0000122274801F032FD2F4B1B78002BDFD168
:101EE0002B4B1B782B4AD25C0D2AE2D12B4A0121C5
:101EF0001170DEE7130000221A702949254803F00B
:101F000015FA041E274B186013D0274903F00EFA68
:101F1000264B18608442D2D2254B9842CFD2021B66
:101F20002100244803F0EEF9234A1378013313709B
:101F3000C5E72249174803F0F9F9041E194B186048
:101F4000BDD0194903F0F2F9184B18608442B6D29B
:101F5000174B9842B3D2021B2100164803F0D2F966
:101F6000154A137801331370A9E7C04600200740D3
:101F700000000740BB120020540F0020A1100020D9
:101F8000909000006C060020A4100020A490000097
:101F9000A21000205C0D00204A110020B912002080
:101FA000BC90000008130020C4900000041300201F
:101FB000560E0020A00C0020B8120020C89000008F
:101FC00010B5FFF701FF10BD70B52B4BDB69DB05CA
:101FD0002ED4294B0022DA6170BD284B00221A70E2
:101FE000274B18782338274BC018274903F09EF950
:101FF000C11D264D0F22280003F0B2F8244C0922FF
:1020000024492000FFF7D4FE280003F074F90200F1
:1020100029002000FFF7CCFE02221F492000FFF715
:10202000C7FE1BE00133DBB2154A1370F92B1FD832
:10203000114BDB69DB07CCD5114D2978114C0919FF
:1020400001220D4801F07AFC297809190122104873
:10205000FFF7AEFE094B1B78002BBED1084B1B7857
:10206000084AD25C0D2ADDD10C4A01211170D9E752
:10207000130000221A70DBE700100740C212002094
:10208000A3100020580E0020D0900000040D002066
:1020900000200740D890000024920000BA120020CF
:1020A00010B5064C2368064A13402360FFF78CFFE7
:1020B000226880239B051343236010BD0000054068
:1020C000FFFFFFDF70B5544B1A780C2A00D995E05A
:1020D0009300524AD3589F46192251495148FFF75D
:1020E00067FE0D225049514801F042FC70BD0D229F
:1020F0004F494E4801F03CFCF8E74C4C0C224D494E
:10210000200001F035FC4C4D01222900200001F097
:102110002FFC03224949200001F02AFC012229005A
:10212000200001F025FC01224549200001F020FC9F
:1021300001222900200001F01BFC424E300003F078
:10214000DAF802003100200001F012FC03223E49BF
:10215000200001F00DFC3D4E300003F0CCF80200F1
:102160003100200001F004FC07223949200001F071
:10217000FFFB384E300003F0BEF8020031002000B3
:1021800001F0F6FB01222900200001F0F1FB022200
:102190003149200001F0ECFBA8E711222F49234828
:1021A00001F0E6FBA2E70F222D49204801F0E0FBF9
:1021B0009CE70D222B491D4801F0DAFB96E70F2220
:1021C00029491A4801F0D4FB90E70E222749174805
:1021D00001F0CEFB8AE712222549144801F0C8FB22
:1021E00084E70D221049114801F0C2FB7EE7214B24
:1021F00011221A70084B00221A7077E71E4B1B78C9
:10220000002B03D0013B1C4A13706FE71B4B1A785D
:10221000014B1A706AE7C0469C12002034910000FE
:10222000E490000000200740848C0000001007406C
:10223000948C0000A48C00001C060020B48C0000CC
:10224000B88C00001814002008910000BC10002079
:102250000C910000040D002024920000D88C000096
:10226000EC8C00001491000024910000FC8C000014
:102270000C8D0000120700209D1200201314002076
:1022800010B5104B1B78092B0DD90A2B0DD122222A
:102290000D490E48FFF78CFD0D4B05221A70094BB6
:1022A00000221A7010BD002BFCD10A4B1B78002BAA
:1022B00003D0013B074A1370F4E7074B1A78014B30
:1022C0001A70EFE79C120020689100000020074080
:1022D000120700209D12002013140020F8B5CE46EE
:1022E000474680B5022241494148FFF761FD00247D
:1022F000404B1C80404B1C800A2200213F4802F0CA
:1023000038FF3F4B1C803F4B1C80052200213E487C
:1023100002F02FFF032200213C4802F02AFF032293
:1023200000213B4802F025FF03220021394802F03A
:1023300020FF03220021384802F01BFF0322002166
:10234000364802F016FF07220021354802F011FF3F
:1023500003220021334802F00CFF032200213248FF
:1023600002F007FF0A220021304802F002FF072294
:1023700000212F4802F0FDFE2E4B1C80052200217B
:102380002D4802F0F6FE2D4B1C80052200212C4822
:1023900002F0EFFE2C212B4802F097FF2A4B186029
:1023A00001302C2102F091FF284B18604378412B1B
:1023B00054D0274D0E4C162229002000FFF7F8FCC0
:1023C000202224492000FFF7F3FC022207492000C5
:1023D000FFF7EEFC162229002000FFF7E9FC1E4B58
:1023E00000221A70C0BCB946B046F8BD2492000065
:1023F000002007406812002070120020180D0020F5
:10240000A8120020AC120020B4100020B010002050
:10241000AC100020081400200C1400201014002020
:1024200074120020841200208C120020340D002031
:1024300090120020D8120020CC120020EC120020B4
:10244000E0120020A00C0020C4120020E81100209F
:102450001092000028920000A510002001302C21CD
:1024600002F033FF0400F64D2860411C0222F548BB
:1024700002F048FFE11CF44F0222380002F042FF54
:10248000A11DF24C0522200002F03CFFF04E02227A
:102490003900300002F036FF2100300002F008FF62
:1024A000300002F0FBFDEB4B984618606426704349
:1024B00018603C2101F054FB434618600A22E649AB
:1024C00002F04AFE380002F0E9FDE44F3860704344
:1024D0003C2101F0CFFB38600A22E14902F03CFECA
:1024E000200002F0DBFDDF4B18600401241AA40079
:1024F0001C60DD49200001F0BDFB8046DB4B18600D
:10250000D949200001F09CFCD94C21600A22D9490C
:10251000404602F021FE20680A22D74902F01CFE44
:10252000286801302C2102F0D0FED44B1860013015
:102530002C2102F0CAFE0400D14D2860411C032268
:10254000D04802F0DFFE211DCF4B98460222180032
:1025500002F0D8FEE11DCD4C0522200002F0D2FE93
:10256000CB4B994603224146180002F0CBFE2100D6
:10257000484602F09DFE484602F090FDC54B994644
:102580001860704318603C2101F0EAFA4B4618606D
:102590000A22C14902F0E0FD404602F07FFD3860AA
:1025A00070433C2101F066FB38600A22BB4902F00F
:1025B000D3FD200002F072FDB94B18600401241A0B
:1025C000A4001C60A849200001F054FB0600B54B94
:1025D0001860A549200001F033FCB34C21600A22A9
:1025E000B249300002F0B8FD20680A22B04902F07A
:1025F000B3FD286801302C2102F067FEAD4B186056
:1026000001302C2102F061FEAB4B186001302C210F
:1026100002F05BFEA94B186001302C2102F055FE40
:10262000A74B186001302C2102F04FFEA54B18601B
:10263000A54C0422A5492000FFF7BAFBA44D1122A6
:1026400029002000FFF7B4FB1122A2492000FFF768
:10265000AFFB112229002000FFF7AAFB05229E49AB
:102660002000FFF7A5FB9D4B1A689D4B19688A4215
:1026700000D992E1944C02229A492000FFF798FB7E
:10268000072299492000FFF793FB6D4B1A68934B83
:1026900019688A4200D997E18B4C022291492000A7
:1026A000FFF786FB092291492000FFF781FB734B5E
:1026B0001A68634B19688A4200D98CE1824C022265
:1026C00088492000FFF774FB0B2289492000FFF79F
:1026D0006FFB6B4B1A68694B19688A4200D991E10C
:1026E000794C02227F492000FFF762FB0A228149D0
:1026F0002000FFF75DFB6F4B1A68614B19688A4237
:1027000000D986E1704C022276492000FFF750FB89
:10271000032279492000FFF74BFB674B1A68654B92
:1027200019688A4200D98BE1674C02226D4920006A
:10273000FFF73EFB062271492000FFF739FB5F4B94
:102740001B685D4A11688B4200D980E15E4C022211
:1027500064492000FFF72CFB042269492000FFF7A1
:1027600027FB574B1A68554B19688A4200D9A2E1DA
:10277000554C02225B492000FFF71AFB05226149F4
:102780002000FFF715FB4F4B1A684D4B19688A4222
:1027900000D997E15C4CFA220021200002F0E9FC0C
:1027A0005A49200002F084FD5949200002F080FDC2
:1027B000244802F073FC574B186008381D2800D8D5
:1027C00097E15549504802F073FD2E4802F066FC2F
:1027D000524B18603D38232800D89FE150494A48A1
:1027E00002F066FD4F4B1B78272B00D8ABE1464C1F
:1027F0004D49200002F05CFD4C49200002F058FDDC
:102800004B49200002F054FD4A49200002F050FDDF
:10281000494B1B78002B02D0484B31221A703A4D9D
:102820004649280002F044FD4549280002F040FDD9
:102830004449280002F03CFD434B01221A7085E018
:102840007C120020681200207012002074120020F8
:10285000180D0020300D0020240D0020B0120020A3
:10286000A8120020F0120020A0860100D41200203F
:10287000C8120020D8120020CC1200202012002004
:1028800098120020841200208C1200209012002048
:10289000340D00204C0D0020400D0020AC12002013
:1028A000F4120020E8120020DC120020EC120020BC
:1028B000E0120020D8100020580D00209C100020AD
:1028C000A8100020B4120020002007408C910000C6
:1028D00094910000A8910000BC910000E811002034
:1028E000C412002024920000C4910000CC9100008A
:1028F000D8910000E4910000F0910000F4910000F4
:10290000FC910000049200000C130020200600201F
:10291000780600206C120020AC06002088120020EF
:10292000E006002064120020BC10002058060020A1
:10293000E010002060060020F81200202C12002079
:1029400014070020FC120020A5100020804C033248
:1029500080492000FFF72CFA7F4E1622310020001C
:10296000FFF726FA280002F0C6FC0200290020002A
:10297000FFF71EFA022279492000FFF719FA162202
:1029800031002000FFF714FA042275492000FFF7F8
:102990000FFA744B00221A7024E5521A013A0131E1
:1029A0002000FFF705FA704C32220021200002F0CF
:1029B000E0FB6E4B1B68591C6D4A1268D21A013A33
:1029C000200002F09FFC55E6521A013A0131200026
:1029D000FFF7EEF960E6521A013A01312000FFF7E5
:1029E000E7F9644C32220021200002F0C2FB624B66
:1029F0001B68591C614A1268D21A013A200002F081
:102A000081FC5BE6521A013A01312000FFF7D0F950
:102A100066E6521A013A01312000FFF7C9F9584C15
:102A200032220021200002F0A4FB564B1B68591CE7
:102A3000554A1268D21A013A200002F063FC61E69E
:102A4000521A013A01312000FFF7B2F96CE6013168
:102A50004E4C0422200002F055FC200002F01EFB28
:102A60004B4B186001F064FE4A4B196801F01EFBE5
:102A700001F0ECF9C0B2484B1870484C0A22210012
:102A800002F06AFB464E3168464F3B685A1A013ADB
:102A900001312F48FFF78CF9434D322200212800E5
:102AA00002F067FB3A683368D21A013A2100280025
:102AB00002F028FC4AE6521A013A01312000FFF7E1
:102AC00077F955E6521A013A01312000FFF770F903
:102AD000364C32220021200002F04BFB344B1B68A5
:102AE000591C344A1268D21A013A200002F00AFC3A
:102AF00050E6314C3149200002F0DAFB200002F0B0
:102B0000FAFB201802222E4902F02AFB2D49200050
:102B100002F0CEFB2C4B00221A6052E6264C2B49C9
:102B2000200002F0C5FB200002F0E5FB2018022285
:102B3000234902F015FB2649200002F0B9FB254B82
:102B400000221A604AE618491B4802F0B1FB4EE623
:102B500000200740108B000010920000249200001B
:102B60008C910000F8120020EC110020C41200200B
:102B7000E81100204C1100207C12002020120020BF
:102B80008011002098120020D8100020141100207D
:102B9000601200201C07002064120020540D002049
:102BA000580D00209C100020B411002018110020A6
:102BB000A8100020B41200200C130020681200207E
:102BC0000C920000240D00206C12002084120020C2
:102BD000400D00208812002002E0013B034A1360F0
:102BE000024B1B68002BF8D17047C04670060020CE
:102BF000034B1B78002B02D0024B01221A60704756
:102C00009C0C00201C480040F8B500240EE0094F41
:102C100001233B60084D094E2E60FFF7DDFF0023C6
:102C20003B602E60FFF7D8FF0134E4B20A2CEED9E6
:102C3000F8BDC0461C48004070060020F049020064
:102C4000F0B589B0B74B1A780E2A00D95DE1930030
:102C5000B54AD3589F46B54B00221A701C32B4496E
:102C6000B448FFF7A5F80D22B349B44800F080FE40
:102C700009B0F0BD0D22B249B04800F079FEF7E787
:102C8000AE4C0C22AF49200000F072FEAE4D012286
:102C90002900200000F06CFE0322AC49200000F067
:102CA00067FE01222900200000F062FE0122A849EF
:102CB000200000F05DFE01222900200000F058FEF7
:102CC000A44E300002F017FB02003100200000F09B
:102CD0004FFE1622A049200000F04AFE9F4E300011
:102CE00002F009FB02003100200000F041FE012249
:102CF0002900200000F03CFE02229949200000F04B
:102D000037FE0520FEF7C6FDB2E7112295498B4834
:102D100000F02EFE0320FEF7BDFDFFF769FF924E87
:102D2000924F3760FFF758FF914C00252560FFF761
:102D30005FFF3760FFF750FF256099E70F228D494D
:102D40007E4800F015FE93E70D228B497B4800F08A
:102D50000FFE8DE70F228949784800F009FE87E7CA
:102D60000D228749754800F003FE81E7122285494C
:102D7000724800F0FDFD7BE70E226F496F4800F0BE
:102D8000F7FD75E7804B1B78002B00D170E77E4B79
:102D900000221A707D497E4802F0C8FA040005201E
:102DA000FEF778FD002C1DD0624D192279492800CC
:102DB000FEF7FEFF11341A2221002800FEF7F8FF6B
:102DC000022267492800FEF7F3FF01A802F093FAF8
:102DD0000200002101A802F0CCF92A22210001A85A
:102DE00002F0BEF96C4901A802F0A0FA00281FD039
:102DF0006A4B1B78A52B09D1694B10221A70494BDD
:102E000000221A700120FEF745FD31E7A523654A2F
:102E10001370624A1370644B01221A70634B0832BC
:102E20001A70404B00221A700120FEF733FDE3E7D1
:102E30005F4901A802F07AFA00281FD0574B1B788F
:102E40005A2B09D1564B08221A70364B00221A70A1
:102E50000120FEF71FFD0BE75A23524A13704F4A19
:102E60001370514B01221A70504B04321A702D4BC3
:102E700000221A700120FEF70DFDE3E74D4901A87D
:102E800002F054FA002809D0454B0E221A70254B47
:102E900000221A700520FEF7FDFCE9E6464901A86C
:102EA00002F044FA00280BD03D4B0F221A70FFF7B6
:102EB000ABFE1C4B00221A700120FEF7EBFCD7E69C
:102EC0003E4901A802F032FA00280BD00023284A1C
:102ED0001360334A0C211170124A13700120FEF75F
:102EE000D9FCC5E600232F4A13702D4A1121117019
:102EF0000C4A13700520FEF7CDFCB9E6284B1122D1
:102F00001A70084B00221A70B2E62D4B1B78002B6A
:102F100003D0013B2A4A1370AAE62A4B1A78014BC8
:102F20001A70A5E69C120020E0920000A310002079
:102F30004892000000200740848C000000100740E9
:102F4000948C0000A48C00001C060020B48C0000AF
:102F5000B88C00001814002064920000BC100020FF
:102F600024920000D88C00007006002060E3160058
:102F70001C480040EC8C00001491000024910000DB
:102F8000FC8C00000C8D0000BA1200207C92000026
:102F9000580E002090920000AC9200008012002099
:102FA00012070020D010002081120020500D0020B8
:102FB000BC920000C8920000D0920000D89200009D
:102FC0009D12002013140020F8B5CE46474680B568
:102FD00000241AE0104F012399463B600F4D104E1C
:102FE0002E60FFF7F9FD002398463B602E60FFF747
:102FF000F3FD4B463B602E60FFF7EEFD43463B6022
:103000002E60FFF7E9FD0134E4B2142CE2D9C0BC14
:10301000B946B046F8BDC0461C48004070060020C6
:10302000A086010010B5054C01232360044B054A1E
:103030001A60FFF7D1FD0023236010BD1C4800403B
:1030400070060020C0D8A700F0B5C64600B5FDF751
:103050003DFCD34E01253560FDF7A2F8FDF7F8FCE5
:10306000FDF70EFDFDF724FDCE4C80235B012360B0
:1030700080239B0123600121CB4800F05BFC0121F0
:10308000CA4800F057FCCA4F0121380000F052FC3A
:1030900080235B002360C74C2368C74A1340C7499D
:1030A0000A78013A1343A02292051343236009785A
:1030B000C34800F055FD6060226880239B051343E0
:1030C00023600A22BF49380000F052FCBE4A0023A8
:1030D00013603360BD490B60156022688023DB05F7
:1030E000134323601AE1BA4B00221A70FDF7DEFA8F
:1030F000B84A1070BB2806D0AA2800D013E1A84B0C
:1031000000221A600FE1A64B01221A600BE10F2288
:10311000B149A74800F02CFCB04B1A688023DB05AE
:103120005A60FFF77FFF06E10D22AD49A04800F08D
:103130001FFCAA4B1A688023DB055A60A94B0122A9
:103140001A70FFF741FFFBE0A749A84802F0EEF82C
:10315000002800D109E1A64BA64A1A60A64BA74A4F
:103160001A6002E1A649A74802F0E0F8002800D062
:1031700002E1A549A34802F0D9F8002803D0A34BE7
:1031800000221A7024E0A2499E4802F0CFF80028DD
:10319000F5D11DE0FDF734F89E4B00221A70844CE7
:1031A00016329D49200000F0E3FB9C4D280002F000
:1031B000A2F802002900200000F0DAFB0222984960
:1031C000200000F0D5FBFDF7B3F9964B01221A70F1
:1031D000904B1B78002BDDD1934B1B78002B17D124
:1031E000924B1B781E2B16D8914B1B78092B55D967
:1031F0008F4B00221A700023092B1BDC99008D4A8B
:103200008A588D490868844662440A600133F3E7AE
:10321000FDF750F8E4E7854B00221A70FCF7D0FF69
:10322000834A1378980085490C68824944500133D9
:103230001370D9E7804B18680A2100F091FC01F067
:1032400077FA7F4D28607F4B196800F02FFF041C30
:10325000286028220021774801F08BFF201CFEF710
:10326000EBFC1BE0784B00221A70784B1B78002B8C
:1032700030D0504C2368764A13402360484B0122DB
:103280001A60BB20FDF7DCF9226880239B051343FD
:103290002360FFF7B9FC6F4B00221A706D4B1B784F
:1032A000012B37D1684B1B78092BDBD0052BF5D1CF
:1032B000654B00221A70654B1B78002B1FD0384BD2
:1032C0001A60AA20FDF7BCF9FFF79EFC614B0022B3
:1032D0001A70E3E73C4C0123984623605E4D5F4E35
:1032E0002E60FFF779FC002727602E60FFF774FC43
:1032F000434623602E60FFF76FFC2760CBE7324C1C
:1033000001232360544B564A1A60FFF765FC0023E3
:103310002360DBE7534B1B78002B31D12C4B1B7800
:10332000002B00D0DFE68023DB055B682B4A1360AF
:10333000DB0700D5EBE6294B1B685B0700D5F3E6FE
:10334000384B1B78002B00D142E7364B00221A7015
:103350004549264801F0EAFF002800D1F4E6244B55
:10336000424A1A60244B424A1A604249254801F0F9
:10337000DDFF002800D1F5E6244B01221A7027E773
:10338000384B00221A703C4B1B780A2B7AD83B4BE7
:103390001A78112A00D957E19300394AD3589F4629
:1033A0000848004000E100E000000740001007402E
:1033B000002007400000054000FFFFE72007002035
:1033C00000127A001C9300001C480040584800403E
:1033D0001B070020C3120020289300009410002037
:1033E00038930000F81200204C930000880C002055
:1033F000BC12002000005841A0120020000028410B
:103400005493000080100020589300009C0C002072
:103410005C9300006C06002060930000040800200C
:1034200024920000A0100020A110002054100020C1
:10343000241200205810002000130020B80700209C
:103440005010002054060020500D0020740600206B
:10345000FFFFFFDF811200207006002080841E0025
:10346000801A0600061400204893000000006842FD
:103470000000284250930000B812002012070020DC
:10348000A8930000744C023274492000FEF790FCAF
:103490000E2273492000FEF78BFC724D280001F0CC
:1034A0002AFF020029002000FEF782FC04226E4958
:1034B0002000FEF77DFCFEF711FF642200212800AA
:1034C00001F057FE694B00221A70FCF779FE684B39
:1034D000186801F02DF9674B196800F0E7FD041C2E
:1034E000654B1860654B186801F022F9644B196848
:1034F00000F0DCFD634B186032220021624801F0CD
:1035000038FE32220021614801F033FE604B1B7807
:10351000002B2ED05D4D5B4B186803222900FEF76F
:103520000DFC4D4C0A225B492000FEF741FC564E33
:10353000300001F0E0FE020031002000FEF738FC10
:10354000554E042231002000FEF732FC0A22534976
:103550002000FEF72DFC280001F0CDFE020029001E
:103560002000FEF725FC042231002000FEF720FC9D
:103570000DE703224449201CFEF7E0FBCAE7FDF7F4
:10358000C9FA474B474A9A60C8E6FEF793F9444B9D
:10359000444A9A60C2E6FDF71BFB414B414A9A60E0
:1035A000BCE6FEF73DFA3E4B3E4A9A60B6E6FDF7B2
:1035B00081FB3B4B3B4A9A60B0E6FEF789FA384BF9
:1035C000384A9A60AAE6FFF73BFB354B354A9A60CA
:1035D000A4E6FDF7ABFB324B324A9A609EE6FDF75C
:1035E00067FC2F4B2F4A9A6098E6FDF715FD2C4B90
:1035F0002C4A9A6092E6FDF7C9FD294B294A9A6048
:103600008CE6FDF77DFE264B264A9A6086E6FDF79E
:10361000D3FF234B234A9A6080E6FEF753FD204BED
:10362000204A9A607AE6FDF719FF1D4B1D4A9A6001
:1036300074E6FEF77BF81A4B1A4A9A60FEF720FEF2
:10364000174B184A9A6069E6174B00221A70144B00
:10365000144A9A6062E6C0460020074024920000A7
:1036600078930000A00C0020108B0000B8120020FE
:10367000C00700206806002028120020B80700209C
:1036800054060020DC1000202C120020E010002046
:10369000F812002088930000949300009C9300008F
:1036A00000000440A55A00009C120020F0B583B031
:1036B0001600234A1468234A00251560C2225200CE
:1036C0008258D20730D480354759802252013A437C
:1036D000425180254559EA0405D5013C002CF8D11A
:1036E000184A013C1460C2225200845801252C4320
:1036F0008450C024640002592A430251013CFF3C1B
:103700000559802212012A4302510F4A1468C2252A
:103710006D004559EA0705D4013C002CF7D1094A50
:10372000013C14600268019280240259074D2A402E
:103730000A433243025184228158835003B0F0BDC2
:103740002C0700204C14002024070020F3FBFFFF6F
:1037500070B5002300E001330F2B0DD801249C40ED
:103760002142F8D004685E000325B540AC43150043
:10377000B5402C430460EEE770BD0000F0B589B0A1
:1037800004AC1D4BE0CBE0C41B6823600023009316
:103790000193029310330393830AFF2425001D40F5
:1037A0001C4210D0840C032323409B006C461C5900
:1037B000124B9C466444236847091F263E40B5408F
:1037C000AB431A432260430E072214001C401A42E6
:1037D00010D0020F032313409B0004AA9A58084BF1
:1037E0009C4662441368000D1F2528408440A34373
:1037F0001943116009B0F0BDF093000020020040B1
:103800001002004070B584B001AA0A4B10331100B9
:1038100070CB70C1830F9B009B58074A944663444A
:103820001A681F2108401E3981400A431A6004B0FB
:1038300070BDC046F09300000402004010B50400C3
:103840000168104801F09EFC61680F4801F09AFC85
:10385000A1680E4801F096FCE1680D4801F092FC69
:1038600021690C4801F08EFC61690B4801F08AFC6B
:10387000A1690A4801F086FCE169094801F082FC6F
:1038800010BDC0460C940000189400002494000061
:10389000309400003C9400004894000054940000D0
:1038A0006094000010B50400034801F0F7FC20000C
:1038B000FFF7C4FFFEE7C0466C940000064B0420EF
:1038C0007146084203D0EFF309807146EAE7EFF34F
:1038D0000880E7E7FEE7C046A538000010B51000F5
:1038E000130005E000240C570B4B1C601300013142
:1038F0005A1E002B0FD0084B9B691B02FBD40023E0
:10390000CB560A2BEED1044B0D241C60024B9B6955
:103910001B02FBD4E6E710BD00000740044B9B6987
:103920005B04FBD4024B1B680B7001207047C04640
:103930000000074043680B434360704770B50400C4
:103940000D0011000026002004E0012E0FD0236896
:103950002B54013088420AD20023A2695204F4D5C4
:1039600001338022D2059342F7D30126EDE770BDE3
:1039700070B504000D0011000026002004E0012EA7
:103980000FD02B5C2360013088420AD00023A2694B
:103990001202F4D501338022D2059342F7D30126D7
:1039A000EDE770BD10B5054C6160520002431B018C
:1039B0001A4380231A43226010BDC0460000044011
:1039C00010B501F071FB582303600120404210BD87
:1039D00010B501F069FB582303600120404210BD7F
:1039E00010B501F061FB58230360002010BD10B535
:1039F00001F05AFB582303600120404210BD000033
:103A00000E490F4A0F4B9B1A03DD043BC858D05098
:103A1000FBDC0D480D4901600D4901600D49016055
:103A20000D480E4901600E480E49016006480E49D6
:103A3000016000F073F8FCF76DFB0000B097000028
:103A4000000000209C0700200001004059000000F9
:103A5000160000008800000024000040A55A000065
:103A6000800200400100000000000000FEE7C046A8
:103A700030B583B01F4B1A69072414401E4A0192C7
:103A80001B6CA022D202134219D11A0315D51B4870
:103A90009A0315D4990B03220A4001A9895CDD051C
:103AA000ED0D02355B0A1F22134002338008684384
:103AB000594300F055F8800002E01148E8E7002083
:103AC000104B1860022C02D0A4000F4BE058094B99
:103AD0001B6A0F211940013100F042F80B4B1860AE
:103AE0000B4B9C4660440B4900F03AF80A4B1860B7
:103AF00003B030BD0002004001020204001BB70009
:103B00000048E80128070020849400002C070020CA
:103B100020A1070040420F00240700208022D20588
:103B200080235B005921D1504339D1507231D1509B
:103B3000D358002BF2D0084B1A6808490A401A6083
:103B40001968E022D2030A431A608022D20580233A
:103B50005B000021D150704700020040FFFF8FFF43
:103B6000002243088B4274D303098B425FD3030ABC
:103B70008B4244D3030B8B4228D3030C8B420DD3CF
:103B8000FF22090212BA030C8B4202D3121209025D
:103B900065D0030B8B4219D300E0090AC30B8B429B
:103BA00001D3CB03C01A5241830B8B4201D38B0349
:103BB000C01A5241430B8B4201D34B03C01A5241EE
:103BC000030B8B4201D30B03C01A5241C30A8B4231
:103BD00001D3CB02C01A5241830A8B4201D38B021C
:103BE000C01A5241430A8B4201D34B02C01A5241C0
:103BF000030A8B4201D30B02C01A5241CDD2C30932
:103C00008B4201D3CB01C01A524183098B4201D3AD
:103C10008B01C01A524143098B4201D34B01C01A98
:103C2000524103098B4201D30B01C01A5241C30810
:103C30008B4201D3CB00C01A524183088B4201D37F
:103C40008B00C01A524143088B4201D34B00C01A6B
:103C50005241411A00D20146524110467047FFE7D7
:103C600001B5002000F0F0F802BDC0460029F7D0F1
:103C700076E7704703460B437FD4002243088B420C
:103C800074D303098B425FD3030A8B4244D3030BE3
:103C90008B4228D3030C8B420DD3FF22090212BAA8
:103CA000030C8B4202D31212090265D0030B8B4224
:103CB00019D300E0090AC30B8B4201D3CB03C01A0E
:103CC0005241830B8B4201D38B03C01A5241430BE9
:103CD0008B4201D34B03C01A5241030B8B4201D3D9
:103CE0000B03C01A5241C30A8B4201D3CB02C01A44
:103CF0005241830A8B4201D38B02C01A5241430ABC
:103D00008B4201D34B02C01A5241030A8B4201D3AA
:103D10000B02C01A5241CDD2C3098B4201D3CB0151
:103D2000C01A524183098B4201D38B01C01A524100
:103D300043098B4201D34B01C01A524103098B4204
:103D400001D30B01C01A5241C3088B4201D3CB00EF
:103D5000C01A524183088B4201D38B00C01A5241D2
:103D600043088B4201D34B00C01A5241411A00D282
:103D700001465241104670475DE0CA0F00D04942EB
:103D8000031000D34042534000229C4603098B425B
:103D90002DD3030A8B4212D3FC22890112BA030AE3
:103DA0008B420CD3890192118B4208D38901921165
:103DB0008B4204D389013AD0921100E08909C309EA
:103DC0008B4201D3CB01C01A524183098B4201D3EC
:103DD0008B01C01A524143098B4201D34B01C01AD7
:103DE000524103098B4201D30B01C01A5241C3084F
:103DF0008B4201D3CB00C01A524183088B4201D3BE
:103E00008B00C01A5241D9D243088B4201D34B00D8
:103E1000C01A5241411A00D20146634652415B101A
:103E2000104601D34042002B00D5494270476346FB
:103E30005B1000D3404201B5002000F005F802BD40
:103E40000029F8D016E770477047C0469E2110B58C
:103E5000C905041C01F04AF8002803D1201C00F019
:103E6000F9FB10BD9E21201CC90500F045FA00F0A9
:103E7000F1FB80231B069C466044F2E7F0B54F46F9
:103E80004646D6464502C0B547000C1C6D0A3F0E9B
:103E9000C60F002F00D170E0FF2F00D175E0EB00BE
:103EA0008025ED041D43002399469A467F3F60021A
:103EB000430A984663001B0EE40F002B4ED0FF2BE5
:103EC00046D04246D0008022D204024390460022CF
:103ED0007F3B3100FF1A4B466140C9B213430F2BA1
:103EE00000D9B5E06E489B00C3589F460023984612
:103EF0002600454692465346022B00D189E0032B0B
:103F000000D19EE0012B18D03B007F33002B69DDF0
:103F10006A0704D00F222A40042A00D004352A015F
:103F200003D5604B1D403B008033FE2B00DD70E06D
:103F3000AD016D0AD8B202E00E0000200025C005D8
:103F40002843F6073043E0BCBA46B146A846F0BD68
:103F50004346002B3FD10222FF3F03E04346002BA4
:103F60002DD1012231004B466140C9B213430F2BC2
:103F700034D84D489B00C3589F46002D13D10423CD
:103F80009946033B00279A4691E7002D05D1082367
:103F90009946063BFF279A4689E70C239946093B39
:103FA000FF279A4683E7280000F0AAFF7627431FE1
:103FB0009D4000237F4299469A463F1A77E7404644
:103FC00000F09EFF4246431F9A4076235B42904694
:103FD0001B1A00227DE7FF2303227AE70E00FF2051
:103FE0000025ACE70120C01A1B28A6DC9E372A005A
:103FF000BD40C2406B1E9D4115436B0704D00F238B
:104000002B40042B00D004356B0144D50120002542
:1040100095E7FF20002592E780250026FF20ED038D
:104020008DE7002398468020C003054209D043460F
:10403000034206D1454605436D022600FF206D0A66
:104040007DE78020C00305436D02FF206D0A76E7FF
:1040500042466B015001834219D21B220025013FC9
:1040600001261C006D005B00002C01DB984201D88A
:104070001B1A3543013A002AF3D15A1E93411D43BE
:104080003B007F330E00002B00DD41E7AAE71A2238
:1040900001251B1AE4E7AD0100206D0A4FE7C04679
:1040A000A4940000FFFFFFF7E4940000F0B54F4632
:1040B0004646D64644024500C0B5640A0F1C2D0E84
:1040C000C60F002D00D18DE0FF2D00D192E000231E
:1040D000802099469A46E400C00404437F3D78025C
:1040E000430A98467B001B0EFF0F002B00D170E0A7
:1040F000FF2B00D186E04246D00080227F3BED18A6
:104100000023D204024390469C4631004B4679403E
:10411000681C0F2B1CD8764A9B00D3589F46390049
:104120004446E2465346022B0FD0032B00D1D7E082
:10413000012B37D100200024C0052043C9070843C4
:10414000E0BCBA46B146A846F0BDFF200024F3E724
:10415000260C2404220C44462404240C4346270045
:104160001B0C574374435A435E4312193B0C9B1874
:104170009C4203D980225202944666443F041A04AA
:104180003F0CD2199401671EBC411B0C920E9B1967
:1041900014439B011C431B0100D49BE001236208D4
:1041A0001C40144302007F32002A64DD630704D000
:1041B0000F232340042B00D00434230103D5020035
:1041C0004C4B80321C40FE2ABFDCA401640AD0B2F2
:1041D000B2E74346002B3DD14A4601331A4391468C
:1041E0009C4692E7002C29D104239946033B0025E5
:1041F0009A4674E7002C1BD108239946063BFF25FD
:104200009A466CE74346FF35002B0BD102234A4602
:104210001A4391469C4678E753463100022B00D062
:1042200083E792E703234A461A4391469C466CE78C
:104230000C239946093BFF259A4650E7200000F0E1
:104240005FFE7625431F9C4000236D4299469A46A7
:104250002D1A44E7404600F053FE4246431F9A4061
:1042600000232D1A90469C46763D4EE7802400217F
:10427000FF20E40360E701239B1A1B2B00DD59E7B5
:1042800022009E30DA4084401300621E94411C4399
:10429000630704D00F232340042B00D004346301B0
:1042A0001AD50120002447E78020C003044209D02A
:1042B0004346034206D14446044364023900FF20CA
:1042C000640A39E78020C003044364023100FF2000
:1042D000640A31E7280065E7A4010020640A2BE79F
:1042E0008020C00304436402FF20640A24E7C04620
:1042F00024950000FFFFFFF7F8B5CE46474643027E
:104300005B0A4E02DA009446720A914645004A0062
:1043100080B52D0E1F00C40F120EC90FB609FF2A5B
:104320005BD0012041408C4239D0A81A00285ADDC8
:10433000002A6AD0FF2D00D1D9E08022D204164392
:104340001B2800DCE9E001206346181A430100D471
:10435000B4E080018709380000F0D2FD05388740BD
:10436000854200DCCCE02D1AB5483840430704D024
:104370000F230340042B00D00430430100D4A0E0FD
:104380006A1CFE2D00D18DE08001470AD2B2D00513
:104390003843E4072043C0BCB946B046F8BDA81A6C
:1043A0008046002845DD002A70D0FF2D00D19EE018
:1043B0008023DB041E4343461B2B00DCD2E001209C
:1043C000604443017AD50135FF2D6BD001239D4A0E
:1043D0000340400810401843C8E7002E20D08C420C
:1043E00023D02800FF38002839D0571B002D00D0DB
:1043F0009DE06346002B00D1DBE07B1E012F00D146
:104400000DE1FF2F71D01F0098E0002E00D1A7E032
:10441000421E012800D1E6E0FF2868D010008FE797
:1044200001204140A14200D07FE7FF20404280466A
:10443000A8444046002838D0511B002D00D1AEE0E2
:10444000FF2A00D1DFE080236046DB041843844666
:104450001B2900DCD9E0012015008019B1E7FE20FE
:104460006A1C104271D1002D00D0A6E06346002BDB
:1044700000D1D9E00022002E00D188E7981B43012B
:1044800000D4E1E063460C00F01A6FE7002E00D183
:10449000B7E00200013A012800D19CE0FF2826D0B5
:1044A000904688E7FF22002771E7FE206A1C104231
:1044B00064D0FF2AF6D0150066447008430700D088
:1044C00056E7C308FF2D12D05B025F0AEAB25EE72F
:1044D0006246002A00D196E0002E08D08022D20346
:1044E000134204D04846104201D10C004B46002B29
:1044F000D8D08027FF031F437F02FF227F0A46E7B1
:1045000020233A00451B38000135EA405D1BA840D6
:10451000431E98410025104328E720231B1A320030
:104520009E40C2403000431E984110430CE7FF2AD2
:10453000DBD080236046DB04184384461B2F56DD06
:1045400001200C001500301A00E763469F1B7B0119
:104550003DD4002F00D0FEE600240022002716E7FD
:104560000500AFE7320043464146DA4020235B1A9C
:104570009E403000431E9841104321E7002DA7D1F3
:104580006346002B59D00022002E00D1FFE63000F8
:104590006044430192D52A4B013518408EE76346AB
:1045A000002B47D04B1E012915D0FF292BD0190015
:1045B0004EE70C004B463D0084E76246002A8BD153
:1045C000002E92D180270024FF22FF03DFE66346FE
:1045D0000C00F71ABFE6300060440125430100D407
:1045E0006CE70225F2E663460125981BAEE6202320
:1045F00064466046FC40DF1BB840431E98412043A0
:104600009FE705005EE74B4671E72023654660465D
:10461000CD40591A8840431E984128431CE7634601
:104620000C000125F01A91E6002E95D00C004F46A3
:104630000022ACE64B460D0044E74F460022A6E6BA
:10464000FFFFFFFBFFFFFF7D002800D036E70024BF
:1046500000279CE641024200C30F490A0020120EC7
:104660007E2A03DD9D2A02DD094A981870478020C2
:1046700000040143952A07DC9620821AD140484263
:10468000002BF3D10800F1E7963A9140F7E7C046D6
:10469000FFFFFF7FF8B5002813D0C317C6185E4090
:1046A000C40F300000F02CFC9E2305001B1A962B33
:1046B0000FDC082801DD083DAE407602760AD8B24C
:1046C00002E0002400200026C0053043E407204318
:1046D000F8BD992B0CDD05223100121AD1400A00D9
:1046E000010030001B318840411E88410243160002
:1046F000052D12DC31000D4F3940720709D00F2013
:104700003040042805D004314A0102D59F233940A6
:104710005B1B89014E0AD8B2D6E76A1F964031006A
:10472000024F39407207F4D0E9E7C046FFFFFFFBB4
:1047300070B5051E0ED000F0E3FB9E2304001B1A8B
:10474000962B0CDC082801DD083CA5406D026D0AA3
:10475000D8B201E000200025C005284370BD992B88
:1047600009DD020029001B3291404A1E91410522B9
:10477000121AD5400D43052C12DC29000C4E314095
:104780006A0709D00F202840042805D004314A01C7
:1047900002D59F2331401B1B89014D0AD8B2DBE7AC
:1047A000621F95402900024E31406A07F4D0E9E7C4
:1047B000FFFFFFFBF0B557464E464546DE46E0B5E7
:1047C00098460C034B000600924687B0240B5B0D05
:1047D000CF0F002B00D15CE1D94A934200D175E1A3
:1047E000420FE4001443802212041443D54AC5004A
:1047F000944663440093002399469B4643464246B1
:104800001E03D20F5B0050469046360B5B0D00D165
:1048100020E1CB4A934200D162E1CA49420F8C4663
:1048200000996344F6008C46164380229C4412048F
:1048300063461643C20000200093009943460131AD
:104840008C4649467B4001930F2926D8BE4B8900F0
:1048500059588F46434601933400150083465B4602
:10486000022B16D0032B00D103E2012B00D0CDE0A8
:10487000002200240025019B12052243DB071A4376
:104880002800110007B0F0BCBB46B246A946A046BE
:10489000F0BD00240025AA4AEDE7280C2D042D0CBC
:1048A0002B00110C1204120C5343984613002F00D6
:1048B000434399464F434F44BB4647460B003F0C8A
:1048C000BA464343DA440293D14504D980277F0294
:1048D000B9464B44029353461B0C9B4653461F0458
:1048E00043461B041B0C98463B0043440493330C83
:1048F0003604360C984633004343994643464343B7
:104900002F009A46434677435D43380C4D44451982
:10491000A94503D980235B029946CA443F04280C69
:104920003F0C2D04ED19270C2404240C0300200057
:1049300050437A4391463A0053440593030C9A46F8
:104940004A43614349445144AB44894503D98023D8
:104950005B0299464A4400040B0C000C0904091838
:1049600020009946434670435C437E435F43030CFB
:104970009846A41944444A440397A64204D9802384
:104980005B029846474403972304029E9A46059B80
:104990005E449846AE42AD4176188E42894100048D
:1049A000000C504440446D424719B8469346494272
:1049B0008946C344D94498428041A845AD419345B6
:1049C0009241894589416D4240422843240C52421C
:1049D00049420A43039B00198018C7184B46DC0D57
:1049E000049B75021D436A1E95414B46F60D7F02DE
:1049F00035435A023C431543FB0100D41CE101211D
:104A00006A080D401543E207154364084F496144A5
:104A1000002900DCB0E06B0709D00F222A40042AED
:104A200005D02A1DAA42AD416D4264191500E3016B
:104A300004D58021464AC90014406144454A914248
:104A400000DD26E76207ED08640249051543240BE3
:104A50004A0D10E75246324300D17FE0002E00D1CC
:104A6000DCE0300000F04CFA02000B3A1D2301009C
:104A70009B1A52460839DA408E40164352468A4005
:104A8000009B3549181A03008C46634400200093AC
:104A9000D3E6250005434AD0002C00D1B0E0200029
:104AA00000F02EFA010002000B391D2310005B1AE2
:104AB0003100350008388440D94085400C432648F1
:104AC000831A0093002399469B4697E605002543E9
:104AD00026D1082200930223002491469B468DE6AE
:104AE0005246009B324310D1154900268C46634440
:104AF0004946009302231943894602209DE65B46FE
:104B00000197022B00D0ADE6C3E60D4A0320944680
:104B100063444A46009303231A43914652468CE667
:104B20000C2200930323050091469B4666E604236E
:104B3000994600230093013300249B465EE6C0465D
:104B4000FF07000001FCFFFF64950000FF03000069
:104B5000FFFFFFFEFE0700000DFCFFFF494601239B
:104B6000194389460026012067E60023802400259A
:104B7000434A019324037EE60120401A382800DDD1
:104B800076E61F285BDD1F2223005242511ACB40DC
:104B90001900202803D03B4A6244944025436A1EF2
:104BA00095412A000A4307210D00002415401142B7
:104BB0005BD00F2100241140042953D0111D9142D4
:104BC00092415242A4180A0023024BD5012200242C
:104BD000002550E680231B031C4209D01E4207D14A
:104BE00033431C0343461500240B254A019342E638
:104BF0008022120314432403214A240B01973AE62E
:104C000000F07EF901000200153120321C2900DC81
:104C10004BE7340008380025844050E700F070F975
:104C200003001A00153220301C2A00DC1EE756460D
:104C3000083B00229E4023E7009B9C46E6E6124983
:104C4000220061442E008D408A40C640691E8D417D
:104C500032432A43C4405307B6D00F2111400429E0
:104C6000ACD1B1E765076402240BD20815430022DA
:104C700001E68022120314432403014A240BFAE5BF
:104C8000FF0700003E0400001E04000070B500286D
:104C900016D0C317C5185D40C40F280000F030F9C6
:104CA000114A121A0A2816DC03002E0015339E4002
:104CB0000B23181AC54052052D032D0B530D03E08D
:104CC00000240023002500261B052B43E407234373
:104CD0003000190070BD0B38854052052D030026A9
:104CE0002D0B530DF0E7C0461E04000070B54300C5
:104CF0004602C40FFE201B0E591C750A08420CD038
:104D0000E022920094466D07360B63441B05334343
:104D1000E40723432800190070BD002B14D1002D97
:104D20001BD0280000F0ECF80A281CDC0B232E0016
:104D30001B1ADE40030015339D400E4A3603121A3B
:104D40005205360B530DE1E7002D09D08022360BBA
:104D50001203094B6D071643D8E700230026D5E759
:104D60000026054BD2E703000B3B9D402E0000259B
:104D7000E3E7C04689030000FF07000002004B0084
:104D8000F0B55B0D0C033D4E640A400F5F1CC90F6C
:104D90000443D50037420AD039481E18FE2E16DDCE
:104DA000FF200024C0052043C9070843F0BD002BA5
:104DB00006D12C4326D005229201540AD8B2F1E73D
:104DC0002543EDD08020C0030443FF20EAE7002EF6
:104DD0001BDD9201531E9A41E4006D0F22432A43CA
:104DE000530748D00F231340042B00D004328023F4
:104DF000DB0413403FD0701CFE2ED1D09201540A28
:104E0000C0B2CFE700200024CCE73200173222DB0B
:104E10008020000420431E24A41B1F2C1DDD022221
:104E20005242961B0200F2401600202C04D0154A74
:104E300094466344984005432A00531E9A413243E6
:104E400000265307CED180241300E4040120234020
:104E50002242D3D1B0E70023ADE70B4A94462A00A3
:104E6000E24014002A0063449A409840551EAA412B
:104E700002432243E4E733009EE7C046FE070000FA
:104E800080FCFFFFA2FCFFFF82FCFFFF84460800BE
:104E90006146FFE71FB500F0BDF8002801D40021EE
:104EA000C8421FBD10B500F049F84042013010BDA6
:104EB00010B500F0AFF8002801DB002010BD012084
:104EC00010BDC04610B500F0A5F8002801DD002097
:104ED00010BD012010BDC04610B500F055F80028E7
:104EE00001DC002010BD012010BDC04610B500F04F
:104EF0004BF8002801DA002010BD012010BDC0468B
:104F00001C2101231B04984201D3000C10391B0AF9
:104F1000984201D3000A08391B09984201D30009BD
:104F2000043902A2105C40187047C0460403020214
:104F300001010101000000000000000070B5420006
:104F400045024E024C00C30F6D0A0120120E760A74
:104F5000240EC90FFF2A06D0FF2C03D0A24201D194
:104F6000B54206D070BD002DFCD1FF2CFAD1002E29
:104F7000F8D18B4206D00120002AF3D12800431E2D
:104F80009841EFE70020EDE770B5420045024E0280
:104F90004C00C30F6D0A120E760A240EC80FFF2AAA
:104FA0001BD0FF2C0ED0002A1BD1002C01D1002ECB
:104FB0001CD0002D0CD083421CD00221581E08406A
:104FC000013870BD002E22D1002AF4D1002DF2D17B
:104FD0000028F6D101204042F3E7002D17D1FF2C25
:104FE000F0D0002CE7D1002EE5D1E6E70020002D1F
:104FF000E7D0E2E7A24205DCEADBB54202D8E7D31C
:105000000020DEE74342584140000138D9E7022042
:105010004042D6E770B5420045024E024C00C30F35
:105020006D0A120E760A240EC80FFF2A0BD0FF2C31
:105030000DD0002A1FD1002C16D1002E14D1002033
:10504000002D10D009E0002D0CD1FF2C13D1002E23
:1050500008D1002A08D0834212D00221581E0840ED
:10506000013800E0022070BD002DF4D10028FAD1F3
:1050700001204042F7E7002CEDD1002EEBD1ECE708
:10508000A24205DCF2DBB54202D8EFD30020EAE70A
:105090004342584140000138E5E7C04610B50A22B6
:1050A000002100F0E7F910BD014B18687047C046B9
:1050B00030070020084B10B50400002B02D000215F
:1050C00000E000BF054B1868836A002B00D09847AA
:1050D000200002F07DF9C04600000000A495000009
:1050E00070B500260C4D0D4C641BA410A64209D1CE
:1050F000002603F09BFC0A4D0A4C641BA410A64238
:1051000005D170BDB300EB5898470136EEE7B30008
:10511000EB5898470136F2E79407002094070020E7
:105120009407002098070020931E10B50C00222B36
:1051300004D900231C000B70200010BD0A2A09D1DD
:10514000002807DA2D230B7001214042611800F07E
:105150009DF9F1E70021F9E710B5FFF7E5FF10BD74
:10516000002310B59A4200D110BDCC5CC454013369
:10517000F8E703008218934200D170471970013399
:10518000F9E700000FB40B4B13B51C68002C05D0D9
:10519000A369002B02D1200000F0AAFB05AB200080
:1051A000049AA168019300F0BDFD16BC08BC04B0D0
:1051B0001847C0463007002070B505000E000028D3
:1051C00004D08369002B01D100F092FBAB69AC687D
:1051D000002B02D1280000F08BFB2D4B9C4222D1EA
:1051E0006C68636EDB0705D4A3899B0502D4A06DB0
:1051F00000F01FFCA3891B0702D52369002B29D1CE
:105200002100280000F0CEF9002823D001256D42AE
:10521000636EDB0705D4A3899B0502D4A06D00F063
:1052200009FC280070BD1B4B9C4201D1AC68D8E73B
:10523000194B9C42D5D1EC68D3E70136A360002B13
:1052400004DAA2699A4216DC0A2914D023685A1C8F
:1052500022601970A3683178013B0029EDD1A36069
:10526000002B0FDA280022000A3100F045F90A2548
:10527000431CCDD1CAE72200280000F03DF9431CB1
:10528000E8D1C3E70A2523685A1C22601D70BFE7D6
:10529000F096000010970000D096000010B5034B68
:1052A00001001868FFF788FF10BDC04630070020D6
:1052B000020010B5137814000132002BFAD1CA5C39
:1052C000E2540133002AFAD110BDC9B20378002B91
:1052D00004D08B4200D170470130F7E74B4259416F
:1052E00049420840F7E703000A7801311A70013398
:1052F000002AF9D170470023C25C0133002AFBD198
:10530000581E7047030030B51D00002A06D00C78E7
:10531000013A01332C700131002CF5D100219A188B
:10532000934200D130BD19700133F9E70A7830B5E6
:10533000002A0CD130BD9A4208D10123CC5C002C4C
:10534000F8D0C55CA54201D10133F7E701300378FD
:10535000002BF0D11800EDE7F0B587B01E000590E6
:1053600001910292012B45D00B00242E42D83F4AD6
:10537000082194461A00604614780133005D1D0030
:1053800007000F400842F5D12D2C3AD101271C7897
:10539000951C002E65D0102E09D1302C07D120226B
:1053A0002B789343582B57D110266C780235304B0D
:1053B0003100FB1818000393FEF758FC002301226C
:1053C00084461800049152422100303909291DD821
:1053D0000C00A64228DD002B24DB1300844506D3F5
:1053E00002D10499A14202DB0123704320182C78DA
:1053F0000135E9E7FFF758FE16230360002007B0E8
:10540000F0BD2B2CC5D11C78951CC2E72100413979
:10541000192901D8373CDCE721006139192903D863
:10542000573CD6E71300E2E7002B09DA2223059A5E
:1054300003981360029B002BE1D06B1E019307E0E1
:10544000002F00D04042029A002AD8D0002BF4D17D
:10545000029B019A1A60D2E73024002EA7D10836A9
:10546000A5E7302C9BD00A26A1E7C046CE950000C8
:10547000FFFFFF7F10B513000A000100024800681B
:10548000FFF76AFF10BDC04630070020F0B50C00E2
:1054900016008DB025220700164902A8FFF760FE0E
:1054A000621E0092B31E02AA00250192222B04D98B
:1054B00025702C0020000DB0F0BD38003100FEF743
:1054C000D5FB0B00019A2900D35C009A0135535596
:1054D0003B0007009E42F0D90023220063550B00D9
:1054E000C81A8342E6DD1078E55C1570E05401329D
:1054F000013BF5E7A8950000F8B505000E00140083
:10550000002804D08369002B01D100F0F1F9224B6F
:105510009C422ED16C68A369A360A3891B0732D576
:105520002369002B2FD023682269F7B2981A636988
:10553000F6B2834205DC2100280000F037F900288C
:1055400027D1A3680130013BA36023685A1C226065
:105550001F706369834204D0A389DB0707D50A2E35
:1055600005D12100280000F021F9002811D13000D8
:10557000F8BD0A4B9C4201D1AC68CCE7084B9C4279
:10558000C9D1EC68C7E72100280000F00BF800281B
:10559000C9D001267642EAE7F09600001097000095
:1055A000D0960000374B70B51D6806000C00002D2A
:1055B00005D0AB69002B02D1280000F099F9324BDD
:1055C0009C420FD16C680C23E25E93B211072DD47C
:1055D000D90611D409230120336037331343A38143
:1055E000404270BD294B9C4201D1AC68EBE7284B8F
:1055F0009C42E8D1EC68E6E75B0713D5616B0029B4
:1056000008D023004433994202D0300000F080FAE1
:10561000002363632422A3899343A381002363604F
:10562000236923600823A2891343A3812369002BE4
:105630000BD1A0218022A389890092000B409342C4
:1056400003D02100300000F01FFA0C22A35E0120DD
:105650001A0099B2024003420FD00022A260626990
:105660005242A261002022698242BAD10A06B8D50C
:1056700040221343A3810138B3E7880700D462694D
:10568000A260EFE730070020F096000010970000BE
:10569000D0960000F7B58B8905000C001A075FD47F
:1056A0004A68002A04DC0A6C002A01DC0020FEBDE6
:1056B000E76A002FFAD0002280212E682A601A00A3
:1056C00049010A400B4234D0606DA3895B0706D5BF
:1056D0006368C01A636B002B01D0236CC01A0200F0
:1056E000216A00232800E76AB847A189431C06D134
:1056F0002B681D2B31D82C4ADA40D3072DD5002337
:10570000636023692360CB0405D5431C02D12B6859
:10571000002B00D16065616B2E600029C6D023008C
:105720004433994202D0280000F0F2F9002060636F
:10573000BDE701232800216AB847431CC5D12B6867
:10574000002BC2D01D2B01D0162B01D12E60ADE74E
:105750004023A2891343A381A9E740230B43FAE71F
:105760000F69002FA2D00A680F60D21B019200229D
:105770009B0700D14A69A260019B002B00DC95E7E2
:105780003A002800019B216AA66AB047002806DC7F
:1057900040230120A28940421343A38187E7019B54
:1057A0003F181B1A0193E7E7010040200B6970B511
:1057B00005000C00002B02D10025280070BD002838
:1057C00004D08369002B01D100F092F8144B9C4265
:1057D0001BD16C680C22A35E002BEDD0626ED20749
:1057E00004D49B0502D4A06D00F023F92800210009
:1057F000FFF750FF636E0500DB07DED4A3899B052E
:10580000DBD4A06D00F016F9D7E7064B9C4201D11E
:10581000AC68DFE7044B9C42DCD1EC68DAE7C046B9
:10582000F096000010970000D0960000002310B5FD
:105830000400036043608360818143661900C28174
:1058400003614361836108225C30FFF792FC054BE2
:1058500024626362044BA362044BE362044B236340
:1058600010BDC046C1620000E96200002163000073
:105870004D63000010B5024900F0BAF810BDC046F3
:10588000AD57000070B568254A1E55430E0029002B
:10589000743100F0A9F9041E08D000212A0001602B
:1058A00046600C30A0606832FFF763FC200070BDDA
:1058B00010B5024800F0BDF810BDC04655140020D8
:1058C00010B5024800F0B6F810BDC04655140020CF
:1058D00010B5024800F0ADF810BDC04656140020C7
:1058E00010B5024800F0A6F810BDC04656140020BE
:1058F00013B50400FFF7ECFFA369002B02D0FFF7FC
:10590000EFFF13BDA364E3642365134B134A1B68C5
:10591000A2620193A34201D10123A361200000F000
:105920001FF86060200000F01BF8A060200000F06D
:1059300017F800220421E0606068FFF777FF01227A
:105940000921A068FFF772FF02221221E068FFF729
:105950006DFF0123A361D2E7A495000075580000F4
:10596000F8B50700FFF7A4FF1F4B1E68B369002BB3
:1059700002D13000FFF7BCFF4836B4687368013BC2
:1059800004D53368002B22D03668F6E70C22A55EDA
:10599000002D1AD12000154B5830E360656600F0E9
:1059A00047F8FFF78DFF2000082229002560A56039
:1059B000656025616561A5615C30FFF7DAFB6563B1
:1059C000A563A564E5642000F8BD6834D7E7042129
:1059D0003800FFF757FF041E3060D5D1FFF770FF86
:1059E0000C233B60EFE7C046A49500000100FFFFD9
:1059F000F7B5040006000027019148346368A568E4
:105A00000093009B013B009304D52468002CF5D142
:105A10003800FEBDAB89012B08D90E22AB5E0133E5
:105A200004D029003000019B984707436835E8E718
:105A3000704770477047000070B50E001D000E23C0
:105A4000C95E140096B0002908DA0C22B35E002269
:105A50002A601B0611D48023DB000FE06A4600F0A9
:105A6000A1FC0028F1DBF02301991B021940054B32
:105A7000C9184B4259412960EDE7402300202360BB
:105A800016B070BD00E0FFFFF7B502268B89050058
:105A90000C00334206D023004733236023610123E7
:105AA0006361F7BD6A4601ABFFF7C6FF00990700C7
:105AB000280000F099F8002808D10C22A35E9A056E
:105AC000EFD4032293431E43A681E4E70F4BAB625E
:105AD0008023A28920601343A381009B206163611E
