:1000000000500020790E0000A10E0000250D000018
:1000100000000000000000000000000000000000E0
:10002000000000000000000000000000A10E000021
:100030000000000000000000A10E0000A10E000062
:10004000A10E0000A10E0000A10E0000A10E0000F4
:10005000A10E0000A10E0000A10E0000A10E0000E4
:100060009D010000A10E0000A10E0000A10E0000E5
:10007000BD080000A9090000A10E0000A10E0000AB
:10008000A10E0000A10E0000A10E0000A10E0000B4
:10009000A10E0000A10E0000A10E0000A10E0000A4
:1000A000A10E0000A10E0000A10E0000A10E000094
:1000B00085010000A10E0000A10E000010B5064C45
:1000C0002378002B07D1054B002B02D0044800E019
:1000D00000BF0123237010BDE400002000000000D9
:1000E000E0260000044B10B5002B03D00349044860
:1000F00000E000BF10BDC04600000000E800002086
:10010000E0260000402292029A1A92467047C046AA
:10011000174B002B00D1134B9D46FFF7F3FF002137
:100120008B460F461348144A121A00F0ECFF0E4B90
:10013000002B00D098470D4B002B00D09847002093
:10014000002104000D000D48002802D00C4800E0FA
:1001500000BF00F0ABFF2000290000F065FC00F0BC
:100160008FFFC046000008000000000000000000F3
:1001700000500020E40000203C05002000000000AA
:10018000000000000123034A1360034990228B50B2
:100190007047C0460001002000000E40084B9B68DD
:1001A000DB070CD50122064B9A6006490B68013328
:1001B0000B6005490B7801330B70044B1A707047C4
:1001C000000001401005002020050020240500202B
:1001D000A023DB05D968802292020A43DA60DA683C
:1001E00004490A40DA60044B044A5A620322DA6086
:1001F0007047C046FFFFFDFF00001540FE080030BD
:10020000A023DB05D9688022D2020A43DA60DA68CB
:1002100004490A40DA60044B044A5A620322DA6055
:100220007047C046FFFFFBFF00401540FE0800304E
:1002300010B5234A136806210B431360204BDB687B
:10024000DB06FBD51E4BDB689B07FBD51C4C2369EB
:10025000072213432361A369083293430D3A1343E2
:10026000A36100F023FEA268E023DB021343A36036
:100270006269C0239B0413436361A369114A13405D
:10028000A361114C200000F0F1FC802100228900C4
:10029000200000F0A9FCA023DB051A6BFF218A4394
:1002A0001A631A6BCC390A431A631A6C07490A405D
:1002B0001A64196CCC2292010A431A6410BDC0461C
:1002C00000020050FFF0FFFF0200805EFF00FFFF12
:1002D00010B5164B1A78072A08D89300144AD35839
:1002E0009F4605221349144800F08CFD10BD0622DC
:1002F0001249114800F086FDF8E7092210490E481E
:1003000000F080FDF2E70A220E490B4800F07AFD6A
:10031000ECE70A220C49084800F074FDE6E70B4BB5
:1003200002221A70014B00221A70DFE7200500201C
:100330007C220000482200000000154050220000EE
:100340005822000064220000702200006800002093
:1003500010B51C4B1A780A2A08D893001A4AD358A9
:100360009F460A2219491A4800F04CFD10BD0B2285
:100370001849174800F046FDF8E70B2216491448C3
:1003800000F040FDF2E70B221449114800F03AFD5D
:10039000ECE70C2212490E4800F034FDE6E70E228D
:1003A00010490B4800F02EFDE0E70E220E490848E8
:1003B00000F028FDDAE70D4B04221A70014B0022F1
:1003C0001A70D3E720050020FC2200009C220000C8
:1003D00000001540A8220000B4220000C022000046
:1003E000CC220000DC220000EC220000680000208B
:1003F000044B1978044A11705F221A70034B18706D
:100400007047C0462005002025050020210500205A
:1004100010B5414B1A78102A00D970E093003F4A7A
:10042000D3589F460A223E493E4800F0EBFC10BDDF
:1004300009223D493B4800F0E5FC0120FFF7D8FFC9
:10044000F5E73A4B01221A70364C01323849200048
:1004500000F0D8FC09223749200000F0D3FCE6E781
:100460000A2235492F4800F0CDFCE0E70A22334943
:100470002C4800F0C7FC0120FFF7BAFFD7E70D2298
:100480002F49284800F0BEFCD1E709222D49254814
:1004900000F0B8FCCBE70B222B49224800F0B2FC5D
:1004A0000520FFF7A5FFC2E70B2228491D4800F0F1
:1004B000A9FCBCE70C2226491A4800F0A3FCB6E7C9
:1004C0000B222449174800F09DFCB0E70E22224978
:1004D000144800F097FCAAE70B222049114800F0CD
:1004E00091FCA4E70B221E490E4800F08BFC9EE70E
:1004F0001C4B03221A70084B00221A7097E71A4B04
:100500001B78002B03D0013B174A13708FE7174B62
:100510001A78014B1A708AE720050020C0230000DA
:10052000282300000000154034230000230500208C
:10053000E8220000402300004C2300005823000064
:100540006423000074230000802300009C2200002C
:10055000B42200008C23000098230000A823000090
:10056000B42300006800002021050020250500209C
:1005700070B5634B1A78102A00D9B3E09300614A32
:10058000D3589F460E226049604800F03BFC70BD86
:100590005E4C0C225E49200000F034FC5D4D0122CF
:1005A0002900200000F02EFC09225B49200000F009
:1005B00029FC01222900200000F024FC01225749D7
:1005C000200000F01FFC01225549200000F01AFC19
:1005D00002225449200000F015FCD8E70E225249AF
:1005E0004A4800F00FFCD2E70E225049474800F07D
:1005F00009FCCCE7454C0F224D49200000F002FCDD
:1006000002224849200000F0FDFB0120FFF7F0FE28
:10061000BDE73E4C0C224749200000F0F3FB0222CC
:100620004549200000F0EEFB01223C49200000F08B
:10063000E9FB02224149200000F0E4FB0222394993
:10064000200000F0DFFBA2E70220FFF7D1FE3C4CC8
:10065000200000F0F7FD02002C4D2100280000F0E2
:10066000D1FB200000F0EEFD02002100354800F033
:10067000C9FB02222B49280000F0C4FB87E70520B4
:10068000FFF7B6FE214C0C222F49200000F0BAFBE8
:1006900002222A49200000F0B5FB02222149200055
:1006A00000F0B0FB73E70220FFF7A2FE6FE7022025
:1006B000FFF79EFE154C0D222449200000F0A2FBFE
:1006C00002221E49200000F09DFB02221549200055
:1006D00000F098FB5BE71E4B05221A70084B0022C6
:1006E0001A7054E71B4B1B78002B03D0013B194AAF
:1006F00013704CE7184B1A78014B1A7047E7C04645
:10070000200500208C240000DC22000000001540A1
:100710000424000000000020142400002024000015
:1007200024240000E82200002824000038240000CF
:1007300048240000542400006424000068240000C1
:1007400004000020004015406C2400007C240000C0
:1007500068000020210500202505002010B5144B5D
:100760001B78072B16D8052B09D2032B08D9042B8D
:1007700008D10520FFF73CFE0E4B01221A7010BD78
:10078000002BFCD10C4B1B78002B0CD0013B0A4AF0
:100790001370F4E7082BF5D1084B06221A70044BAE
:1007A00000221A70EBE7064B1A78014B1A70E6E745
:1007B0002005002004010020210500206800002001
:1007C0002505002010B5044B1B78002B01D000201C
:1007D00010BD00F017FBFBE70805002070B52F4B9C
:1007E000DB69DB0513D42D4B0022DA612C4BDB696E
:1007F000DB054ED42A4B0022DA6170BD294A1388EA
:1008000001339BB21380FA22520093422CD8234B1F
:10081000DB69DB07E7D5234C2188234BC91801226C
:100820001E4800F0D9FA2388022BE7D91F4A127814
:10083000002AE3D11C4AD25C0D2ADFD15A1E1A4984
:100840008A5C2B2ADAD19A1E8A5C2B2AD6D1033BEA
:10085000CB5C2B2BD2D1154B01221A7014321449C8
:100860000E4800F0CFFAC9E70E4B00221A80CEE7FF
:10087000104C2178104D49190122094800F0ACFABA
:100880002178491901220548FFF79CFF237801339D
:100890002370034BDB69DB07EAD4ABE7004015406C
:1008A000000005400C05002014030020080500206E
:1008B000D0240000090500201C01002010B5FFF71E
:1008C0008DFF10BD70B52E4BDB69DB0534D42C4B8E
:1008D0000022DA6170BD2B4B00221A702A4E2B4C7D
:1008E000023231002000FFF76DFF294B18782338C2
:1008F000284BC018284900F0ACFCC11D274D0F2221
:10090000280000F0F7FB092225492000FFF75AFFD5
:10091000280000F097FC020029002000FFF752FF9A
:10092000022231002000FFF74DFF1BE00133DBB254
:10093000174A1370F92B1FD8114BDB69DB07C6D59B
:10094000134D2978134C091901220D4800F044FA7F
:100950002978091901220D48FFF734FF094B1B784C
:10096000002BB8D10A4B1B780A4AD25C0D2ADDD184
:100970000C4A01211170D9E7130000221A70DBE73D
:100980000000154023050020E8220000004015402B
:100990000A05002018020020E824000008010020B9
:1009A000F02400002205002010B5064C2368064AFA
:1009B00013402360FFF786FF226880239B051343C3
:1009C000236010BD00000140FFFFFFDF10B5104B9A
:1009D0001B78092B0DD90A2B0DD122220D490E4867
:1009E000FFF7F0FE0D4B04221A70094B00221A701B
:1009F00010BD002BFCD10A4B1B78002B03D0013B10
:100A0000074A1370F4E7074B1A78014B1A70EFE7A7
:100A100020050020FC240000004015406800002054
:100A20002105002025050020F8B5A022D20580234D
:100A30005B005921D1504339D1507231D150D35834
:100A4000002BF2D0FFF7F4FB80277F000026A023C5
:100A5000DB05DE51FFF7D4FB284D0121280000F013
:100A60009DF91A2226492800FFF7ACFEFFF7B0FBDC
:100A7000244C04222449200000F0C4F90121200064
:100A800000F08CF98021214C05220905200000F09E
:100A90008DF8226880239B05134323601C4B1F6045
:100AA00022688023DB05134323601A22194928009A
:100AB000FFF788FE184B1E7001E0FFF709FC174B8B
:100AC0001B78002BFBD0154B00221A70144B1A78A0
:100AD000062AF4D89300134AD3589F46FFF798FC90
:100AE000EDE7FFF735FCEAE7FFF742FDE7E7FFF741
:100AF00035FEE4E7FFF76AFFE1E7C0460040154036
:100B000020250000000015404822000000000140A0
:100B100000E100E03C250000200500202405002025
:100B2000680000205825000030B589B06946194B8F
:100B30000A0032CB32C232CB32C212CB12C2164BB7
:100B4000984211D0154B984214D0154B984217D0AB
:100B5000144B5A69120D07231340022B16D09B0029
:100B60006A46985809B030BD0E4B5A69120A0723DD
:100B70001340F2E70B4B5A69120B07231340ECE7C3
:100B8000084B5A69120C07231340E6E7064B186816
:100B9000E8E7C04674250000000001400001014064
:100BA000000011400002005074000020F8B504005D
:100BB0000D001600FFF7B8FF07004308B34208D343
:100BC000310000F0CBF9060E05D0711C00F0C6F91B
:100BD00001E000260220354325606060711C41431E
:100BE000380000F0BBF9F8BDF0B587B002AC1C4B83
:100BF000E0CBE0C41B682360002300932033019303
:100C0000830AFF2425001D401C4210D0840C0323BE
:100C100023409B006C461C59124B9C46644423683D
:100C200047091F263E40B540AB431A432260430E9E
:100C3000072214001C401A4210D0020F0323134055
:100C40009B0002AA9A58084B9C4662441368000D08
:100C50001F2528408440A3431943116007B0F0BD0D
:100C600094250000180200501002005070B584B0A6
:100C700001AA0A4B1033110070CB70C1830F9B0087
:100C80009B58074A944663441A681F2108401E393E
:100C900081400A431A6004B070BDC046942500002C
:100CA0000402005010B504000168104800F034FA46
:100CB00061680F4800F030FAA1680E4800F02CFA85
:100CC000E1680D4800F028FA21690C4800F024FA88
:100CD00061690B4800F020FAA1690A4800F01CFA8B
:100CE000E169094800F018FA10BDC046B0250000BF
:100CF000BC250000C8250000D4250000E025000028
:100D0000EC250000F82500000426000010B50400C2
:100D1000034800F08DFA2000FFF7C4FFFEE7C0464D
:100D200010260000064B04207146084203D0EFF362
:100D300009807146EAE7EFF30880E7E7FEE7C0467F
:100D40000D0D000010B51000130005E000240C5735
:100D50000B4B1C60130001315A1E002B0FD0084BA7
:100D60009B691B02FBD40023CB560A2BEED1044B0C
:100D70000D241C60024B9B691B02FBD4E6E710BDEF
:100D800000000540044B9B695B04FBD4024B1B68CD
:100D90000B7001207047C0460000054043680B43BC
:100DA00043600A4B984207D0094B984209D0094B3F
:100DB000802252011A607047064B802252011A604D
:100DC000F9E7044B802292011A60F4E70000054025
:100DD0000000154000E100E030B504000D001100F6
:100DE000002002E023682B540130884209D20023FE
:100DF000A2695204F6D501338022D2059342F7D37B
:100E0000002030BDF0B504000F001600002502E000
:100E10007B5D23600135B5420DD00021A26980239E
:100E20005B05100018401A42F2D101318023DB0526
:100E30009942F3D3F0BD2800FCE710B500F01AF991
:100E4000582303600120404210BD10B500F012F994
:100E5000582303600120404210BD10B500F00AF98C
:100E600058230360002010BD10B500F003F958238B
:100E700003600120404210BD0649074A074B9B1AF8
:100E800003DD043BC858D050FBDC00F065F8FFF7E9
:100E90003FF90000EC26000000000020E4000020E4
:100EA000FEE7C046ABBE74469847204730B583B0D6
:100EB0001F4B1A69072414401E4A01921B6AA02284
:100EC000D202134232D11A032ED51B489A0311D4F1
:100ED000990B03220A4001A9895CDD05ED0D02355D
:100EE0005B0A1F221340023380086843594300F015
:100EF00035F88000114B1860022C02D0A400104B72
:100F0000E0580B4B9B690F211940013100F026F886
:100F10000C4B18600C4B9C4660440C4900F01EF8CA
:100F20000B4B186003B030BD0A48CFE70020E1E763
:100F300000020050010202040080510170000020F4
:100F4000282600007400002020A1070040420F0066
:100F50006C000020001BB70070470000002243080F
:100F60008B4274D303098B425FD3030A8B4244D371
:100F7000030B8B4228D3030C8B420DD3FF220902B3
:100F800012BA030C8B4202D31212090265D0030B72
:100F90008B4219D300E0090AC30B8B4201D3CB0368
:100FA000C01A5241830B8B4201D38B03C01A5241AA
:100FB000430B8B4201D34B03C01A5241030B8B42AC
:100FC00001D30B03C01A5241C30A8B4201D3CB0297
:100FD000C01A5241830A8B4201D38B02C01A52417C
:100FE000430A8B4201D34B02C01A5241030A8B427F
:100FF00001D30B02C01A5241CDD2C3098B4201D397
:10100000CB01C01A524183098B4201D38B01C01A14
:10101000524143098B4201D34B01C01A524103098B
:101020008B4201D30B01C01A5241C3088B4201D33A
:10103000CB00C01A524183088B4201D38B00C01AE7
:10104000524143088B4201D34B00C01A5241411A0E
:1010500000D20146524110467047FFE701B500201B
:1010600000F006F802BDC0460029F7D076E77047C9
:101070007047C046014B18687047C0467800002092
:10108000084B10B50400002B02D0002100E000BF87
:10109000054B1868836A002B00D09847200001F0A8
:1010A000C5F8C046000000004826000070B50026C4
:1010B0000C4D0D4C641BA410A64209D1002601F072
:1010C000B7F80A4D0A4C641BA410A64205D170BDA6
:1010D000B300EB5898470136EEE7B300EB5898475A
:1010E0000136F2E7DC000020DC000020DC000020FC
:1010F000E0000020002310B59A4200D110BDCC5C66
:10110000C4540133F8E703008218934200D17047BA
:1011100019700133F9E700000FB40B4B13B51C68CD
:10112000002C05D0A369002B02D1200000F0A4FA06
:1011300005AB2000049AA168019300F0B7FC16BC2F
:1011400008BC04B01847C0467800002070B5050000
:101150000E00002804D08369002B01D100F08CFA26
:10116000AB69AC68002B02D1280000F085FA2D4B4A
:101170009C4222D16C68636EDB0705D4A3899B0572
:1011800002D4A06D00F019FBA3891B0702D52369C7
:10119000002B29D12100280000F0C8F8002823D016
:1011A00001256D42636EDB0705D4A3899B0502D43C
:1011B000A06D00F003FB280070BD1B4B9C4201D1C9
:1011C000AC68D8E7194B9C42D5D1EC68D3E701361F
:1011D000A360002B04DAA2699A4216DC0A2914D013
:1011E00023685A1C22601970A3683178013B0029DA
:1011F000EDD1A360002B0FDA280022000A3100F0A5
:101200003FF80A25431CCDD1CAE72200280000F090
:1012100037F8431CE8D1C3E70A2523685A1C22602B
:101220001D70BFE76C2600008C2600004C260000D5
:1012300010B5034B01001868FFF788FF10BDC046CA
:10124000780000200023C25C0133002AFBD1581E25
:1012500070470A7830B5002A0CD130BD9A4208D1C7
:101260000123CC5C002CF8D0C55CA54201D1013330
:10127000F7E701300378002BF0D11800EDE700000C
:10128000F8B505000E001400002804D08369002B77
:1012900001D100F0F1F9224B9C422ED16C68A36978
:1012A000A360A3891B0732D52369002B2FD02368A5
:1012B0002269F7B2981A6369F6B2834205DC21000D
:1012C000280000F037F9002827D1A3680130013B3E
:1012D000A36023685A1C22601F706369834204D094
:1012E000A389DB0707D50A2E05D12100280000F0CD
:1012F00021F9002811D13000F8BD0A4B9C4201D1E0
:10130000AC68CCE7084B9C42C9D1EC68C7E7210028
:10131000280000F00BF80028C9D001267642EAE741
:101320006C2600008C2600004C260000374B70B560
:101330001D6806000C00002D05D0AB69002B02D102
:10134000280000F099F9324B9C420FD16C680C23B5
:10135000E25E93B211072DD4D90611D409230120DE
:10136000336037331343A381404270BD294B9C4205
:1013700001D1AC68EBE7284B9C42E8D1EC68E6E78A
:101380005B0713D5616B002908D0230044339942D1
:1013900002D0300000F080FA002363632422A38986
:1013A0009343A38100236360236923600823A289F8
:1013B0001343A3812369002B0BD1A0218022A38991
:1013C000890092000B40934203D02100300000F0CE
:1013D0001FFA0C22A35E01201A0099B202400342B8
:1013E0000FD00022A26062695242A26100202269ED
:1013F0008242BAD10A06B8D540221343A3810138EC
:10140000B3E7880700D46269A260EFE778000020A4
:101410006C2600008C2600004C260000F7B58B8956
:1014200005000C001A075FD44A68002A04DC0A6C25
:10143000002A01DC0020FEBDE76A002FFAD000225E
:1014400080212E682A601A0049010A400B4234D0DC
:10145000606DA3895B0706D56368C01A636B002BB8
:1014600001D0236CC01A0200216A00232800E76A19
:10147000B847A189431C06D12B681D2B31D82C4AB3
:10148000DA40D3072DD50023636023692360CB04A2
:1014900005D5431C02D12B68002B00D16065616B20
:1014A0002E600029C6D023004433994202D0280080
:1014B00000F0F2F900206063BDE701232800216AF3
:1014C000B847431CC5D12B68002BC2D01D2B01D0BF
:1014D000162B01D12E60ADE74023A2891343A381CF
:1014E000A9E740230B43FAE70F69002FA2D00A684F
:1014F0000F60D21B019200229B0700D14A69A260B3
:10150000019B002B00DC95E73A002800019B216A33
:10151000A66AB047002806DC40230120A289404289
:101520001343A38187E7019B3F181B1A0193E7E749
:10153000010040200B6970B505000C00002B02D1A2
:101540000025280070BD002804D08369002B01D13C
:1015500000F092F8144B9C421BD16C680C22A35EE5
:10156000002BEDD0626ED20704D49B0502D4A06D8F
:1015700000F023F928002100FFF750FF636E0500FB
:10158000DB07DED4A3899B05DBD4A06D00F016F940
:10159000D7E7064B9C4201D1AC68DFE7044B9C4285
:1015A000DCD1EC68DAE7C0466C2600008C2600002F
:1015B0004C260000002310B50400036043608360E4
:1015C000818143661900C2810361436183610822FE
:1015D0005C30FFF798FD054B24626362044BA36205
:1015E000044BE362044B236310BDC0464920000056
:1015F00071200000A9200000D520000010B502498C
:1016000000F0BAF810BDC0463515000070B5682569
:101610004A1E55430E002900743100F0A9F9041E3A
:1016200008D000212A00016046600C30A0606832BA
:10163000FFF769FD200070BD10B5024800F0BDF84D
:1016400010BDC0462D05002010B5024800F0B6F8C8
:1016500010BDC0462D05002010B5024800F0ADF8C1
:1016600010BDC0462E05002010B5024800F0A6F8B7
:1016700010BDC0462E05002013B50400FFF7ECFF97
:10168000A369002B02D0FFF7EFFF13BDA364E3644F
:101690002365134B134A1B68A2620193A34201D135
:1016A0000123A361200000F01FF86060200000F01B
:1016B0001BF8A060200000F017F800220421E06071
:1016C0006068FFF777FF01220921A068FFF772FF2A
:1016D00002221221E068FFF76DFF0123A361D2E728
:1016E00048260000FD150000F8B50700FFF7A4FF2D
:1016F0001F4B1E68B369002B02D13000FFF7BCFFFF
:101700004836B4687368013B04D53368002B22D097
:101710003668F6E70C22A55E002D1AD12000154B85
:101720005830E360656600F047F8FFF78DFF200052
:10173000082229002560A560656025616561A561B5
:101740005C30FFF7E0FC6563A563A564E5642000F9
:10175000F8BD6834D7E704213800FFF757FF041EAF
:101760003060D5D1FFF770FF0C233B60EFE7C04638
:10177000482600000100FFFFF7B50400060000271F
:10178000019148346368A5680093009B013B009376
:1017900004D52468002CF5D13800FEBDAB89012B9F
:1017A00008D90E22AB5E013304D029003000019B22
:1017B000984707436835E8E770477047704700006F
:1017C00070B50E001D000E23C95E140096B00029EE
:1017D00008DA0C22B35E00222A601B0611D4802393
:1017E000DB000FE06A4600F0A1FC0028F1DBF023EB
:1017F00001991B021940054BC9184B4259412960F8
:10180000EDE740230020236016B070BD00E0FFFF2D
:10181000F7B502268B8905000C00334206D0230061
:1018200047332360236101236361F7BD6A4601AB3F
:10183000FFF7C6FF00990700280000F099F800287C
:1018400008D10C22A35E9A05EFD4032293431E43D2
:10185000A681E4E70F4BAB628023A289206013438B
:10186000A381009B20616361019B002B0DD02800A8
:101870000E23E15E00F06CFC002806D00322A38951
:1018800093431A0001231343A381A0890743A7812F
:10189000CBE7C046FD15000070B50500002910D04B
:1018A0000C1F2368002B00DAE418280000F082FCEB
:1018B0001D4A1368002B05D163601460280000F0F6
:1018C00081FC70BDA34208D9216860188342F3D11E
:1018D00018685B6841182160EEE71A005B68002B0E
:1018E00001D0A342F9D911685018A0420BD1206849
:1018F0000918501811608342E0D118685B684118DC
:1019000011605360DAE7A04202D90C232B60D5E7BF
:1019100021686018834203D118685B684118216010
:1019200063605460CAE7C0463005002070B50F4EB2
:101930000D0031680400002902D100F073FB306013
:101940002900200000F06EFB431C0AD00323C51CB5
:101950009D43A84207D0291A200000F063FB431CD6
:1019600001D101256D42280070BDC046340500201C
:10197000F7B50322CB1C9343083306001F000C2B42
:1019800032D20C27B94231D8300000F013FC324D6E
:101990002B681C00002C2ED139003000FFF7C6FF49
:1019A0000400431C1ED12C682500002D4AD1236859
:1019B0002900E3183000019300F034FB019B8342BF
:1019C00043D123680337FF1A03239F4308370C2FA3
:1019D00000D20C2739003000FFF7A8FF431C34D099
:1019E0002368DF19276013E0002BCBDA0C230025D6
:1019F00033602800FEBD2268D11B20D40B2917D9E3
:101A0000E2192760A34211D12A6063681160536014
:101A10003000250000F0D6FB07220B35231D95432F
:101A2000EA1A9D42E5D05B1BA350E2E75A60ECE75F
:101A30006268A34201D12A60EAE75A60E8E723001E
:101A40006468A7E72C006D68AFE70C2330003360B3
:101A500000F0B8FBCDE7C04630050020936810B514
:101A6000013B9360002B04DA9469A34207DB0A2947
:101A700005D01368581C10601970080010BDFFF7DE
:101A8000FFFB0100F9E7F8B506000F001400D518B8
:101A9000AC4201D1002007E021783A003000FFF786
:101AA000DDFF0134431CF3D1F8BD0000F0B5A1B057
:101AB00006000C001F000392002804D08369002B4D
:101AC00001D1FFF7D9FD8E4B9C421CD17468636E27
:101AD000DB0705D4A3899B0502D4A06DFFF76DFE3B
:101AE000A3891B0702D52369002B1DD121003000DB
:101AF000FFF71CFC002817D0636EDB070DD5012013
:101B0000404221B0F0BD7F4B9C4201D1B468DEE77A
:101B10007D4B9C42DBD1F468D9E7A3899B05EED4C9
:101B2000A06DFFF74BFEEAE7002308AD6B612033A1
:101B30006B761033AB760797039F3B78002B01D071
:101B4000252B4ED1039BFB1A0593039B9F420DD07F
:101B5000059B21003000039AFFF795FF431C00D13D
:101B6000B5E06A69059B944663446B613B78002B42
:101B700000D1ACE001227B1C0393002352426A6037
:101B800004A9543252182B60EB60AB601370AB6544
:101B9000039B052219785D4800F000FB039B5F1C46
:101BA000002820D12A68D30604D5532304A95B1842
:101BB00020211970130704D5532304A95B182B2186
:101BC0001970039B1B782A2B16D00021EB68039F0A
:101BD0003A78781C303A8446092A4FD9002911D125
:101BE00017E00137A9E7494B2A68C01A012383404F
:101BF00013432B600397CBE7079B191D1B680791C5
:101C0000002B01DB0B9304E05B42EB6002231343E8
:101C10002B603B782E2B0AD17B782A2B37D1079B60
:101C200002371A1D1B680792002B2DDB0993032234
:101C30003978374800F0B2FA002807D0344B2A68C8
:101C4000C01A40238340134301372B6039787B1C33
:101C5000062230480393297600F0A0FA002845D0E8
:101C60002D4B002B27D10722079B073393430833C3
:101C700007936B69049A9B186B615DE70A214B43DC
:101C800067469B180939A3E701235B42CEE700238F
:101C90001A0001376B603978781C3039844609297D
:101CA00003D9002BC3D00992C1E70A235A436746E0
:101CB0005218093BEFE707AB0093220029003000E0
:101CC000164B00E000BF0490049B0133D1D1636E3A
:101CD000DB0705D4A3899B0502D4A06DFFF76EFD39
:101CE000A3895B0600D50AE70D980AE707AB0093C6
:101CF000220029003000094B00F082F8E3E7C046DB
:101D00006C2600008C2600004C260000AC2600004B
:101D1000B2260000B626000000000000871A00006E
:101D2000F7B5150001938A680B690C000090934287
:101D300000DA130022002B6043321278002A01D00F
:101D400001332B6023689B0602D52B6802332B607E
:101D50002268062317001F401A4227D0230043336E
:101D60001B785A1E93412268920630D422000199B2
:101D70000098089E4332B047431C25D006232068B4
:101D80002A68E16800250340042B03D18D1AEB4338
:101D9000DB171D40A3682269934201DD9B1AED18F1
:101DA0000027BD4220D1002010E00137E3682A68F7
:101DB0009B1ABB42D2DD2200012301990098089EA4
:101DC0001932B047431CF0D101204042FEBD302003
:101DD000E1184331087021005A1C45310978A218D6
:101DE000433202331170C1E72200012301990098A8
:101DF000089E1A32B047431CE6D00137D1E70000F5
:101E0000F0B58BB006920A00433207930590049216
:101E10000A7E0C00109B782A07D8622A09D8002A6B
:101E200000D1C1E0582A00D18CE026004236327041
:101E300022E0100063381528F7D800F0DFF916000B
:101E40001F00F6FFF6FFF6FFF6FF1F00F6FFF6FF96
:101E5000F6FFF6FFA80036009A00F6FFF6FFB9007D
:101E6000F6FF3600F6FFF6FF9E0026001A6842369F
:101E7000111D1960136833700123A7E00868196801
:101E80000A1D05060BD50D681A60002D03DA2D23F7
:101E9000049A6D421370614B0A2703931BE00D688F
:101EA0001A604106F1D52DB2EFE70D681968081DDB
:101EB00018602E0601D50D6803E06D06FBD50D6890
:101EC000ADB2564B082703936F2A00D00237230088
:101ED000002243331A706368A360002B03DB0422E3
:101EE000216891432160002D02D1049E002B0CD06B
:101EF000049E28003900FFF7B7F8039B013E5B5CA6
:101F000033702B0005009F42F3D9082F09D12368B5
:101F1000DB0706D563682269934202DC3023013E69
:101F20003370049B9B1B2361079B21000093059842
:101F3000069B09AAFFF7F4FE431C4CD10120404246
:101F40000BB0F0BD45310A70344A03921A6821681B
:101F500020CA1A60080616D5CB0702D520231943DC
:101F600021601027002DB2D1202322689A432260DD
:101F7000ADE7202209680A43226022007821453219
:101F80001170274AE1E74806E6D5ADB2E4E71A68E2
:101F90000D68101D4969186013682E0601D5196077
:101FA00002E06D06FBD519800023049E2361BBE788
:101FB0001A68111D1960166800213000626800F06F
:101FC000EDF8002801D0801B606063682361002366
:101FD000049A1370A8E72369320006990598079DB3
:101FE000A847431CAAD023689B0715D4099BE06827
:101FF0009842A5DA1800A3E7220001230699059864
:10200000079E1932B047431C98D00135E368099AFE
:102010009B1AAB42F0DCE9E70025F7E7BD2600009C
:10202000CE260000002370B5064D040008002B608A
:1020300000F0EEF8431C03D12B68002B00D0236086
:1020400070BDC0462805002070B50C000E25495F04
:1020500000F0C0F8002803DB636D1B18636570BDDA
:10206000A389024A1340A381F9E7C046FFEFFFFFAF
:10207000F8B51F008B8905000C001600DB0505D59F
:102080000E23C95E0022022300F074F8A389054ADA
:1020900028001340A38132000E23E15E3B0000F0D4
:1020A0001FF8F8BDFFEFFFFF70B50C000E25495F6C
:1020B00000F060F8A389421C03D1054A1340A381B4
:1020C00070BD802252011343A3816065F8E7C046CA
:1020D000FFEFFFFF10B50E23C95E00F015F810BD2D
:1020E00070B50400080011001A000023054D2B6094
:1020F000FEF728FE431C03D12B68002B00D0236081
:1021000070BDC04628050020002370B5064D0400B0
:1021100008002B60FEF791FE431C03D12B68002BB7
:1021200000D0236070BDC04628050020002370B594
:10213000064D0400080011002B60FEF786FE431CCC
:1021400003D12B68002B00D0236070BD2805002030
:10215000002370B5064D040008002B60FEF77DFEDD
:10216000431C03D12B68002B00D0236070BDC046F8
:102170002805002070B50400080011001A00002393
:10218000054D2B60FEF770FE431C03D12B68002B1E
:1021900000D0236070BDC04628050020C9B2821857
:1021A000904201D10020704703788B42FBD0013070
:1021B000F6E7000010B50248FFF7FFFA10BDC04671
:1021C0002C05002010B50248FFF7F8FA10BDC046F4
:1021D0002C05002070B50400080011001A0000232F
:1021E000054D2B60FEF7CEFD431C03D12B68002B61
:1021F00000D0236070BDC0462805002003B471469E
:10220000490840004900095E49008E4403BC7047FC
:10221000044A03001068002802D0C31813607047F6
:102220000148FAE73805002040050020FEE7C046D7
:10223000F8B5C046F8BC08BC9E467047F8B5C04625
:10224000F8BC08BC9E46704741540D0A00000000CF
:102250004154490D0A0000004154453156310D0AE0
:102260000000000041542B43474D4D0D0A00000073
:1022700041542B43474D490D0A000000EC02000079
:10228000E2020000EE020000FA0200000603000075
:1022900012030000EC0200001E03000041542B4317
:1022A0005245473F0D0A000041542B4347524547D2
:1022B0003F0D0A0041542B43474143543F0D0A0050
:1022C00041542B434D45453D310D0A0041542B43AC
:1022D000474154543D310D0A0000000041542B4346
:1022E000474143543D312C310D0A000041542B43EA
:1022F0004750414444523D20310D0A006C03000018
:10230000620300006E0300007A03000086030000F1
:10231000920300009E030000AA0300006C0300006B
:102320006C030000B603000041542B43474D520D8F
:102330000A00000041542B4347534E0D0A00000091
:1023400041542B43494D490D0A00000041542B4391
:10235000434C4B3F0D0A000041542B4350494E3F24
:102360000D0A000041542B434744434F4E543F0D48
:102370000A00000041542B4353510D0A0000000095
:1023800041542B434F50533F0D0A000041542B43FF
:1023900046554E3F0D0A000041542B4347434C41E4
:1023A00053533F0D0A00000041542B435343413F18
:1023B0000D0A000041542B434D47463F0D0A0000D3
:1023C000FE04000024040000300400004204000069
:1023D000600400006C0400007E0400008A04000019
:1023E0002E04000096040000A8040000B4040000BD
:1023F000C0040000CC040000D8040000E404000085
:10240000F004000041542B51485454504346473D7A
:1024100000000000636F6E746578746964000000EA
:102420002C0000003100000041542B51494143541D
:102430003D3F0D0A0000000041542B5149414354D7
:102440003D310D0A0000000041542B5149414354D5
:102450003F0D0A0041542B514854545055524C3DA5
:1024600000000000363200003830000041542B518B
:10247000485454504745543D0000000041542B51EE
:1024800048545450524541443D000000E4060000C9
:102490008405000090050000DC050000E805000050
:1024A000F4050000120600008E050000480600003A
:1024B0007E0600008E050000A60600008E050000C6
:1024C0008E0500008E050000AE060000D606000056
:1024D000456E746572656420436F6E666967204D52
:1024E0006F64650D0A0000004347534E0000000072
:1024F000494D4549206973203A00000043686563EF
:102500006B20436F6E6E65637469766974792070B1
:102510006572696F646963616C6C790D0A00000013
:102520004544454C20534D4152542044455649435F
:102530004553202D203030310D0A00004544454CD4
:1025400020534D4152542044455649434553202D74
:10255000203030320D0A0000BE0A0000BA0A000026
:10256000DC0A0000E20A0000E80A0000EE0A0000AF
:10257000F40A0000001BB70000800000000000000B
:102580000000000000000000102700000000000014
:102590000080510100000000040000000C00000059
:1025A0002400000000000000040000002C000000D7
:1025B000723020203D20307825780A0072312020AA
:1025C0003D20307825780A00723220203D20307876
:1025D00025780A00723320203D20307825780A00C3
:1025E000723132203D20307825780A006C7220202C
:1025F0003D20307825780A00706320203D20307817
:1026000025780A00707372203D20307825780A0002
:10261000496E2048617264204661756C742048617F
:102620006E646C6572000000001BB7000080000043
:1026300000E0480410270000006CDC0200000000ED
:1026400000000000008051017C000020000000001C
:10265000000000000000000000000000000000007A
:10266000000000000000000000000000000000006A
:10267000000000000000000000000000000000005A
:10268000000000000000000000000000000000004A
:10269000000000000000000000000000000000003A
:1026A000000000000000000000000000232D302B7F
:1026B0002000686C4C006566674546470030313243
:1026C000333435363738394142434445460030319A
:1026D00032333435363738396162636465660000F9
:0426E00000000000F6
:0826E40020DAFF7F0100000075
:1026EC0022000000687474703A2F2F65766567615C
:1026FC00682E6B726974696E2E696E2F6170692F0A
:10270C00676574446576696365496E737472756345
:10271C0074696F6E733F266449643D454D4932338D
:10272C003039000000000000000000000000000034
:10273C00000000000000000000000000000000008D
:10274C000000000000000000010000004700000035
:10275C0000E0480400E048047C0000200000000079
:10276C006C2600008C2600004C26000000000000A7
:10277C00000000000000000000000000000000004D
:10278C00000000000000000000000000000000003D
:10279C00000000000000000000000000000000002D
:1027AC00000000000000000000000000000000001D
:1027BC00000000000000000000000000E500000028
:0427CC00BD0000004C
:0400000300000E7972
:00000001FF
