:10000000005000204941000071410000F53F000010
:1000100000000000000000000000000000000000E0
:10002000000000000000000000000000714100001E
:10003000000000000000000071410000714100005C
:1000400071410000714100007141000071410000E8
:1000500071410000D90A00007141000071410000A7
:10006000FD06000071410000714100007141000077
:100070008120000055210000714100007141000005
:1000800071410000714100007141000071410000A8
:100090007141000071410000714100007141000098
:1000A0007141000071410000714100007141000088
:1000B00085010000714100007141000010B5064C3F
:1000C0002378002B07D1054B002B02D0044800E019
:1000D00000BF0123237010BDD807002000000000DE
:1000E00084A00000044B10B5002B03D00349044842
:1000F00000E000BF10BDC04600000000DC0700208B
:1001000084A00000402292029A1A92467047C0468C
:10011000174B002B00D1134B9D46FFF7F3FF002137
:100120008B460F461348144A121A05F088FB0E4BF3
:10013000002B00D098470D4B002B00D09847002093
:10014000002104000D000D48002802D00C4800E0FA
:1001500000BF05F02BFB2000290003F0CDF905F0CE
:100160000FFBC04600000800000000000000000077
:1001700000500020D80700207C150020000000005F
:10018000000000000123034A1360034990228B50B2
:100190007047C046F807002000000E4010B5064C1E
:1001A0000F2308220021200003F03AFE8022A358EA
:1001B00001210B43A35010BD00000E400C4B9022B8
:1001C000012199507F3158588022120102435A5020
:1001D000074A9023D358DB07FAD513681B041B0C7E
:1001E00004490B6053681B041B0C034A13607047DF
:1001F00000000E40F4070020FC07002010B5172275
:100200002A492B4803F066FFA022D20580235B0019
:100210005921D1504339D1507231D150D358002B8C
:10022000F2D0244A13684F390B431360224C20004C
:1002300005F0C7FB02000021200005F000FB1F4B6A
:1002400000221A8018E093001D4909685B181D49B7
:100250000B6018490020C8604B60886001230B6167
:10026000144B1B69002BFBD1124B98689100124B69
:10027000C8500132114B1A80104B1A887D2AE2D9DE
:100280000D4C200005F09DFB02002100084803F002
:1002900021FF084A136801218B431360A022D20575
:1002A00080235B000021D15010BDC046109100009A
:1002B0000040154000C0005040080020880C00207D
:1002C000180600204C0C002070B59E4D9E4C02225A
:1002D0002900200003F0FEFE9C4E2C22310020005D
:1002E00003F0F8FE2C229A49200003F0F3FE2C22A2
:1002F0003100200003F0EEFE02222900200003F06E
:10030000E9FE1D229349200003F0E4FE1E229249DB
:10031000200003F0DFFE914B802252011A6077E04B
:100320008F4B904A9A60CAE08D4A136840210B4374
:100330001360D0E0AC008C4961188C4E0422300070
:1003400005F074FA854B1B68E418894B1C60326811
:10035000834B2121D9605C609A6001221A61804B35
:100360001B69002BFBD10135824B1D80824B1B8802
:100370009B08804A1588AB42DCD2804C0123237055
:1003800010227F49704803F0A5FE2378002B0BD183
:10039000734A136801218B431360A022D205802386
:1003A0005B000021D15038E00023744A1370714A79
:1003B000138018E09100694B18680B186C490B60AA
:1003C00067490020C8604B60886001230B61644B63
:1003D0001B69002BFBD1624B98689100694BC85098
:1003E0000132644B1A80644B1B889B08614A128857
:1003F0009342DFD2634C200005F0E3FA02002100B3
:10040000514803F067FEC3E75F4B1B78002B66D1B2
:100410005E4B1B78002B00D192E05D4B1B78002BCC
:10042000F2D0594B1B78002BF7D00026564B1E708C
:10043000584D4D4C2900200005F0BBFA280005F06E
:10044000C0FA02000021280005F0F9F9524B1E8085
:100450003D4D0B225149280003F03CFE200005F0E1
:10046000B0FA02002100280003F034FE02223549D0
:10047000280003F02FFE0022454B1A70200005F0E3
:10048000A0FA3D4B1880A022D20580235B005921A1
:10049000D1504339D1507231D150D358002BF2D0C2
:1004A0002F4B1A684F390A431A602C4A12681739C1
:1004B000D9605A6080239B039A4200D130E7284BD1
:1004C00001221A61264B1B69002BFBD1244B1B68B0
:1004D0005B0600D528E7274B00221A8046E7002656
:1004E000294B1E702B4C204D2100280005F061FA8D
:1004F000200005F066FA02000021200005F09FF9B7
:10050000254B1E80042226490F4803F0E3FD3121CC
:10051000280005F040FA002802D0FFF76FFE77E7C9
:100520003221114805F037FA002800D170E718226F
:100530001C49054803F0CEFD154B01221A7067E7F0
:1005400070BDC0469C9B00000040154028910000F3
:10055000589100007C9100009C910000180600203A
:1005600000C0005003AA5500340A0020840C00206B
:100570004C0C0020880C00203C080020280C002097
:10058000C891000040080020E7130020AE110020B1
:10059000400C0020580F0020B2110020BC91000038
:1005A000DC910000E4910000F0B5C64600B50025DE
:1005B00027E03B4C9C236B43E2189832176860336A
:1005C0001C190434200005F0FCF902002100380059
:1005D00005F0FEF99C2342465343314EF6189836F7
:1005E0003668300005F0EDF902002E4C3100200095
:1005F00003F070FD04222C49200003F06BFD01354F
:10060000EDB2092D48D8A8469C246C43244BE4182D
:100610002100264805F0F0F90700254E3060200043
:1006200005F0CFF93F18376098342468200005F0B2
:10063000C8F902000021200005F001F93468002CFF
:1006400018D0601C9C2169433031154BC918023108
:1006500005F0D2F90200174B18608442A9D29C2100
:1006600069430F4B5B1898331868121B210005F083
:10067000AFF9AFE70A4C9C236B43E2189832176836
:1006800060331C190434200005F09BF9020021009E
:10069000380005F09DF99DE780BCB846F0BDC04626
:1006A0000000002000401540DC91000040080020C0
:1006B000480C0020440C002070B5002300E00133FA
:1006C0000F2B0DD801249C402142F8D004685E0015
:1006D0000325B540AC431500B5402C430460EEE75C
:1006E00070BD10B58369140E8C4023438361C369C8
:1006F0001202120A8A401A43C26110BD0C4B9B6859
:10070000DB0714D501220A4B9A600A490B680133B2
:100710000B6009490B7801330B70084B1A70084ABB
:10072000137801331370074A13780133137070473D
:100730000000014024120020B813002032150020D0
:1007400050110020B8110020A023DB05D9688022B9
:1007500052020A43DA60DA6804490A40DA60044B5C
:10076000044A5A620322DA607047C046FFFFFEFF68
:1007700000000540FE080030A023DB05D968802278
:1007800092020A43DA60DA6804490A40DA60044BEC
:10079000044A5A620322DA607047C046FFFFFDFF39
:1007A00000001540FE080030A023DB05D968802238
:1007B000D2020A43DA60DA6804490A40DA60044B7C
:1007C000044A5A620322DA607047C046FFFFFBFF0B
:1007D00000401540FE080030F8B5DE4657464E464C
:1007E0004546E0B5A022D205936D0F218B430E390B
:1007F0000B439365936DEF318B43E0390B43936566
:10080000A14A13680A390B4313609F4BDB68DB0670
:10081000FBD59D4BDB689B07FBD59B4C23690722CF
:1008200013432361A3690F25AB43A36103F0A6FC27
:10083000A368E026F6023343A3606269C0239B04E9
:1008400013436361A369914F3B40A361904C200027
:1008500003F03AFB802100228900200003F0F2FA25
:100860008C4C200003F030FB00223100200003F00C
:10087000E9FAA024E405236B874A13402363216B24
:1008800088239B010B432363236BFF218B4323634B
:10089000236BCC390B432363236C13402364216CFB
:1008A000CC239B010B432364A36B1B041B0CA3638E
:1008B000A36BA363A36C1340A364A36CA364236D15
:1008C0001D402565236D2365636DF02212021340E0
:1008D0006365636D63658021704B98460122090151
:1008E0001800FFF7E9FEA36C6D4A1340A364A36CE4
:1008F000A364236C6B4A13402364236C23646A4E05
:10090000032210213000FFF7D7FE03222021300000
:10091000FFF7D2FE032280213000FFF7CDFE634DAA
:10092000032201212800FFF7C7FE0322022128002D
:10093000FFF7C2FE032210212800FFF7BDFEA36CC3
:100940001B021B0AA364A36CA3640022402128009D
:10095000FFF7B2FE564B9B461A0006212800FFF710
:10096000C0FE544B99463A239A464B4652461A606B
:100970006B69063213436B61002280212800FFF768
:100980009BFE5A4607212800FFF7ABFE4B46524616
:100990001A60A36B1B041B0CA363A36BA363464DDC
:1009A000373A40212800FFF787FE032280212800E4
:1009B000FFF782FE032210212800FFF77DFE0322AD
:1009C00020212800FFF778FE012204213000FFF7E4
:1009D00073FE012208213000FFF76EFE374E300013
:1009E00003F072FAC022D2020C21300003F02AFA7E
:1009F0006A68F0231B0313436B60A36B1B0C1B047F
:100A0000A363A26B2E4B1343A3632E4D280003F068
:100A10005BFA0121022003F087FA802100224905B8
:100A2000280003F00FFA0025274B1D60274B1D609F
:100A3000236D3B402365236D23650122042140463D
:100A4000FFF73AFE224B01261E601D601E601D60EE
:100A5000636D1F406765636D636580210122C90076
:100A60004046FFF729FE1B4B1D601E601D601E6087
:100A70001D601D601E601D601E601D60F0BCBB46D9
:100A8000B246A946A046F8BD00020050FFF0FFFFA5
:100A90000200805E0400005FFF00FFFF0041005085
:100AA000FFFF000F00FFF0FFC040005080400050EB
:100AB0000100010080410050404000501CFE2356C0
:100AC000111100001400C053C8420050CC42005025
:100AD00008430050284300500D4B1B6A5B0608D5A5
:100AE0000B4B40221A620B4B3F3A1A700A4B0432EE
:100AF0001A70074B1B6A1B0608D5054B80221A6229
:100B0000044B7F3A1A70044B08321A707047C04683
:100B1000804000509E130020540D002010B5134B50
:100B20001A78062A08D89300114AD3589F460522FE
:100B30001049114803F0CEFA10BD09220F490E48A2
:100B400003F0C8FAF8E70A220D490B4803F0C2FA8D
:100B5000F2E70A220B49084803F0BCFAECE70A4B1B
:100B600002221A70014B00221A70E5E7B813002028
:100B70002C92000000920000000015400892000036
:100B800014920000209200004607002010B5294B67
:100B90001A780C2A40D89300274AD3589F460A2235
:100BA0002649274803F096FA10BD0B222549244810
:100BB00003F090FAF8E70A222349214803F08AFA61
:100BC000F2E70C2221491E4803F084FAECE70B22DD
:100BD0001F491B4803F07EFAE6E70B221D4918481F
:100BE00003F078FAE0E70C221B49154803F072FA8B
:100BF000DAE70E221949124803F06CFAD4E70E2204
:100C000017490F4803F066FACEE7164B04221A7014
:100C1000084B00221A70C7E7134B1B78002B03D038
:100C2000013B114A1370BFE7104B1A78014B1A7041
:100C3000BAE7C046B8130020C492000048920000F2
:100C40000000154054920000609200006C92000079
:100C50007C9200008892000094920000A492000010
:100C6000B492000046070020BC130020331500207A
:100C700010B51D4B1A78082A28D893001B4AD35860
:100C80009F460E221A491B4803F024FA10BD0F227A
:100C90001949184803F01EFAF8E70C2217491548BD
:100CA00003F018FAF2E70F221549124803F012FA7E
:100CB000ECE70C2211490F4803F00CFAE6E7114B60
:100CC00005221A70084B00221A70DFE70E4B1B78C2
:100CD000002B03D0013B0C4A1370D7E70B4B1A785B
:100CE000014B1A70D2E7C046B813002024930000CD
:100CF000A492000000001540F89200000893000044
:100D00001493000046070020BC1300203315002078
:100D100010B5174B1A78062A1CD89300154AD358D9
:100D20009F460C221449154803F0D4F910BD0F2238
:100D30001349124803F0CEF9F8E70C220E490F4888
:100D400003F0C8F9F2E70F4B06221A70084B002295
:100D50001A70EBE70C4B1B78002B03D0013B0A4ABF
:100D60001370E3E7094B1A78014B1A70DEE7C046AF
:100D7000B8130020489300000893000000001540BD
:100D80001493000046070020BC13002033150020F8
:100D900070B5494B1A780D2A00D980E09300474A74
:100DA000D3589F460D224649464803F093F970BD3B
:100DB0000D224549434803F08DF9F8E7414C0C22D8
:100DC0004249200003F086F9414D0122290020000C
:100DD00003F080F903223F49200003F07BF9012250
:100DE0002900200003F076F901223B49200003F09E
:100DF00071F901222900200003F06CF9374B1B78B0
:100E0000002B05D1022236492E4803F063F9CEE7C4
:100E1000324B00221A70334D280004F0D2FD02003C
:100E20002900200003F056F901222949200003F08F
:100E300051F964212C4802F071FFE3E712222B499B
:100E4000204803F047F9B2E7102229491D4803F072
:100E500041F9ACE70F2227491A4803F03BF9A6E70E
:100E60000F222549174803F035F9A0E70E22234940
:100E7000144803F02FF99AE712222149114803F090
:100E800029F994E70E220E490E4803F023F98EE764
:100E90001C4B07221A70084B00221A7087E71A4B66
:100EA0001B78002B03D0013B174A13707FE7174BC9
:100EB0001A78014B1A707AE7B813002004940000E6
:100EC00064930000000015407493000084930000B8
:100ED000500600209493000098930000B911002060
:100EE0009C9B000038140020000101409C930000EE
:100EF000B0930000C0930000D0930000E093000086
:100F0000F093000046070020BC130020331500209A
:100F100070B5504B1A780C2A00D98DE093004E4AD8
:100F2000D3589F464D4C19224D49200003F0D2F86A
:100F30000D224C49200003F0CDF870BD0D224A4926
:100F4000464803F0C7F8F8E7444C0C224749200014
:100F500003F0C0F8464D01222900200003F0BAF842
:100F600003224449200003F0B5F8012229002000A3
:100F700003F0B0F801224049200003F0ABF8012251
:100F80002900200003F0A6F83C4E300004F019FDC3
:100F900002003100200003F09DF80B2238492000A8
:100FA00003F098F8374E300004F00BFD02003100DA
:100FB000200003F08FF80D223349200003F08AF857
:100FC00001222900200003F085F802222F49200089
:100FD00003F080F8B1E711222D49204803F07AF898
:100FE000ABE70F222B491D4803F074F8A5E70D224B
:100FF00029491A4803F06EF89FE70F22274917483E
:1010000003F068F899E70D222549144803F062F8C7
:1010100093E712222349114803F05CF88DE70D2273
:1010200010490E4803F056F887E71F4B0F221A703D
:10103000084B00221A7080E71C4B1B78002B03D052
:10104000013B1A4A137078E7194B1A78014B1A7052
:1010500073E7C046B81300208494000000001540D8
:101060003C9400006493000074930000849300009B
:10107000500600209493000098930000341500203F
:1010800058940000C4110020649400009C9B000050
:101090009C930000B093000074940000D093000073
:1010A000E0930000F093000046070020BC130020EE
:1010B0003315002070B5504B1A780C2A00D98DE0FA
:1010C00093004E4AD3589F464D4C19224D4920005B
:1010D00003F000F80D224C49200002F0FBFF70BD28
:1010E0000D224A49464802F0F5FFF8E7444C0C222D
:1010F0004749200002F0EEFF464D01222900200062
:1011000002F0E8FF03224449200002F0E3FF01223D
:101110002900200002F0DEFF01224049200002F0F9
:10112000D9FF01222900200002F0D4FF3C4E3000FC
:1011300004F047FC02003100200002F0CBFF0D223A
:101140003849200002F0C6FF374E300004F039FC69
:1011500002003100200002F0BDFF0D2233492000C3
:1011600002F0B8FF01222900200002F0B3FF0222A2
:101170002F49200002F0AEFFB1E711222D4920488F
:1011800002F0A8FFABE70F222B491D4802F0A2FF97
:10119000A5E70D2229491A4802F09CFF9FE70F227C
:1011A0002749174802F096FF99E70D222549144870
:1011B00002F090FF93E712222349114802F08AFFC0
:1011C0008DE70D2210490E4802F084FF87E71F4B80
:1011D0000F221A70084B00221A7080E71C4B1B78F4
:1011E000002B03D0013B1A4A137078E7194B1A7889
:1011F000014B1A7073E7C046B8130020D894000062
:10120000000015403C9400006493000074930000BB
:1012100084930000500600209493000098930000EF
:1012200034150020B8940000C4110020C8940000B8
:101230009C9B00009C930000B0930000C0930000B2
:10124000D0930000E0930000F093000046070020D8
:10125000BC1300203315002070B54D4B1A780C2AB2
:1012600000D988E093004B4AD3589F464A4C192234
:101270004A49200002F02EFF0D224949200002F0C9
:1012800029FF70BD0D224749434802F023FFF8E7CC
:10129000414C0C224449200002F01CFF434D012226
:1012A0002900200002F016FF03224149200002F02D
:1012B00011FF01222900200002F00CFF01223D490C
:1012C000200002F007FF01222900200002F002FFA7
:1012D000394E300004F075FB02003100200002F0AE
:1012E000F9FE0E223549200002F0F4FE344E3000A3
:1012F00004F067FB02003100200002F0EBFE012247
:101300002900200002F0E6FE02222E49200002F011
:10131000E1FEB6E711222C491F4802F0DBFEB0E7E0
:101320000F222A491C4802F0D5FEAAE70D222849BF
:10133000194802F0CFFEA4E70F222649164802F012
:10134000C9FE9EE70E222449134802F0C3FE98E727
:1013500012222249104802F0BDFE92E70D221049E8
:101360000D4802F0B7FE8CE71D4B0F221A70084B98
:1013700000221A7085E71B4B1B78002B03D0013B22
:10138000184A13707DE7184B1A78014B1A7078E7EA
:10139000B813002050950000000015400C95000087
:1013A00064930000749300008493000050060020B2
:1013B00094930000989300003415002028950000B5
:1013C000C41100209C9B00009C930000B09300007F
:1013D000C0930000D0930000E09300003895000017
:1013E00046070020BC1300203315002070B54D4B7C
:1013F0001A780C2A00D988E093004B4AD3589F46AC
:101400004A4C19224A49200002F064FE0D22494943
:10141000200002F05FFE70BD0D224749434802F0F4
:1014200059FEF8E7414C0C224449200002F052FEDC
:10143000434D01222900200002F04CFE03224149C5
:10144000200002F047FE01222900200002F042FEA7
:1014500001223D49200002F03DFE0122290020002A
:1014600002F038FE394E300004F0ABFA02003100D1
:10147000200002F02FFE0F223549200002F02AFE44
:10148000344E300004F09DFA02003100200002F0DA
:1014900021FE01222900200002F01CFE02222E491A
:1014A000200002F017FEB6E711222C491F4802F077
:1014B00011FEB0E70F222A491C4802F00BFEAAE7F2
:1014C0000D222849194802F005FEA4E70F222649FB
:1014D000164802F0FFFD9EE70E222449134802F051
:1014E000F9FD98E712222249104802F0F3FD92E735
:1014F0000D2210490D4802F0EDFD8CE71D4B0F2227
:101500001A70084B00221A7085E71B4B1B78002BC2
:1015100003D0013B184A13707DE7184B1A78014B32
:101520001A7078E7B8130020949500000000154069
:101530000C950000649300007493000084930000F5
:10154000500600209493000098930000341500206A
:1015500084950000C41100209C9B00009C93000017
:10156000B0930000C0930000D0930000E09300000F
:10157000F093000046070020BC1300203315002024
:1015800070B54D4B1A780C2A00D988E093004B4A6D
:10159000D3589F464A4C19224A49200002F09AFD2E
:1015A0000D224949200002F095FD70BD0D224749EA
:1015B000434802F08FFDF8E7414C0C2244492000DB
:1015C00002F088FD434D01222900200002F082FD37
:1015D00003224149200002F07DFD01222900200064
:1015E00002F078FD01223D49200002F073FD012246
:1015F0002900200002F06EFD394E300004F0E1F9C0
:1016000002003100200002F065FD0A223549200069
:1016100002F060FD344E300004F0D3F902003100D6
:10162000200002F057FD01222900200002F052FDA7
:1016300002222E49200002F04DFDB6E711222C496E
:101640001F4802F047FDB0E70F222A491C4802F06C
:1016500041FDAAE70D222849194802F03BFDA4E705
:101660000F222649164802F035FD9EE70E22244936
:10167000134802F02FFD98E712222249104802F089
:1016800029FD92E70D2210490D4802F023FD8CE759
:101690001D4B0F221A70084B00221A7085E71B4B56
:1016A0001B78002B03D0013B184A13707DE7184BC1
:1016B0001A78014B1A7078E7B8130020F0950000F3
:1016C00000001540C895000064930000749300006A
:1016D000849300005006002094930000989300002B
:1016E00034150020E4950000C41100209C9B0000EC
:1016F0009C930000B0930000C0930000D0930000C2
:10170000E0930000F093000046070020BC13002087
:101710003315002070B54D4B1A780C2A00D988E09B
:1017200093004B4AD3589F464A4C19224A492000FD
:1017300002F0D0FC0D224949200002F0CBFC70BD24
:101740000D224749434802F0C5FCF8E7414C0C2202
:101750004449200002F0BEFC434D01222900200034
:1017600002F0B8FC03224149200002F0B3FC012240
:101770002900200002F0AEFC01223D49200002F0C9
:10178000A9FC01222900200002F0A4FC394E3000FF
:1017900004F017F902003100200002F09BFC0B223C
:1017A0003549200002F096FC344E300004F009F96F
:1017B00002003100200002F08DFC012229002000EF
:1017C00002F088FC02222E49200002F083FCB6E7DA
:1017D00011222C491F4802F07DFCB0E70F222A4954
:1017E0001C4802F077FCAAE70D222849194802F0AC
:1017F00071FCA4E70F222649164802F06BFC9EE715
:101800000E222449134802F065FC98E7122222496F
:10181000104802F05FFC92E70D2210490D4802F0DB
:1018200059FC8CE71D4B0F221A70084B00221A70CE
:1018300085E71B4B1B78002B03D0013B184A137024
:101840007DE7184B1A78014B1A7078E7B81300201F
:101850003096000000001540C89500006493000019
:1018600074930000849300005006002094930000BD
:10187000989300003415002024960000C411002025
:101880009C9B00009C930000B0930000C09300005C
:10189000D0930000E0930000F09300004607002082
:1018A000BC13002033150020044B1978044A117032
:1018B0005F221A70034B18707047C046B81300209F
:1018C00033150020BC13002010B5414B1A78102AA4
:1018D00000D970E093003F4AD3589F460A223E4900
:1018E0003E4802F0F7FB10BD09223D493B4802F09B
:1018F000F1FBF8E709223B49384802F0EBFB0120F5
:10190000FFF7D2FFEFE7384B01221A70093237494F
:10191000324802F0DFFBE6E70A2235492F4802F0A1
:10192000D9FB0120FFF7C0FFDDE70D2231492B482D
:1019300002F0D0FBD7E709222F49284802F0CAFB62
:10194000D1E710222D49254802F0C4FBCBE70B223A
:101950002B49224802F0BEFB0520FFF7A5FFC2E796
:101960000B2228491D4802F0B5FBBCE70C22264992
:101970001A4802F0AFFBB6E70B222449174802F0E1
:10198000A9FBB0E70E222249144802F0A3FBAAE704
:101990000B222049114802F09DFBA4E70B221E49AF
:1019A0000E4802F097FB9EE71C4B03221A70084B6F
:1019B00000221A7097E71A4B1B78002B03D0013BCB
:1019C000174A13708FE7174B1A78014B1A708AE782
:1019D000B81300200C97000064960000000015402A
:1019E000709600007C960000F3130020889600009B
:1019F00094960000A0960000B0960000BC960000EF
:101A0000CC960000489200007C920000D89600001E
:101A1000E4960000F49600000097000046070020BE
:101A2000BC1300203315002070B5194B1D68291C0C
:101A300002F0C8FF041C174B1860291C164B1868CD
:101A400002F0C0FF011C154B1860201C02F07CFD49
:101A5000134B1860134902F08FFE02F05DFDC0B217
:101A6000114B18701430C0B2104B18700300153BA6
:101A7000DBB24F2B02D9132805D970BD0A220C49BD
:101A800003F0D0FEF9E70A4B0A4A1A80F5E7C04690
:101A9000CC130020D0130020EC130020A011002054
:101AA000DC1100200000A042F2130020F1130020FE
:101AB0002C1400203030000010B50139002305E05F
:101AC000C2564456C4544254013301398B42F7DBA9
:101AD00010BDF0B5C64600B505000E0090460024C6
:101AE0000CE00A21280002F011FD671C303131554D
:101AF0000A21280002F024FC05003C00002DF0D152
:101B000002E03023335501344445FADB2100300034
:101B1000FFF7D2FF361900233370200080BCB8468F
:101B2000F0BD0000F0B583B0051C0F00160003F0F7
:101B3000F7F8040003F014F9011C281C02F042FF1E
:101B4000051C002239002000FFF7C3FF0400002E0F
:101B500001D103B0F0BD2E233B54300003F0FCFB59
:101B600002000B0000200B4904F0F4FF00900191EB
:101B7000281C03F021FC009A019B03F081F903F07B
:101B800063FC01343C1903F0CBF832002100FFF76D
:101B9000A0FFDEE700002440034B1B78002B02D09F
:101BA000024B01221A607047A00C0020084300502D
:101BB000014B00221A6070470843005010B5064BD5
:101BC00001241C7064235843044C20805943044B67
:101BD0001980044B1A8010BD861100208811002046
:101BE000841100207C11002010B51F4B1B78002BA6
:101BF0002DD01E4B1B68002B23D01D4A11888B4211
:101C000004D31C4A12885218934221D3194A1288CD
:101C10005218934223D3154B00221A60164A138898
:101C200001339BB21380154A128893420FD90024C6
:101C30000D4B1C70104B1C80FFF7BAFF0B4B1C6048
:101C400005E0FFF7A9FF094A13680133136010BDCF
:101C5000FFF7AEFF054A136801331360F7E701335E
:101C6000024A1360F3E7C04686110020801100206D
:101C70008811002084110020E81300207C1100202E
:101C800010B50A2264216420FFF798FF0F4B9122C0
:101C900052001A8000240FE001330D4A1360FFF751
:101CA000A3FF0A4B1A880A4B1B689A42F4D2084BCE
:101CB00000221A600134A4B2044B1B88A342F0D85E
:101CC0000023044A1370044A137010BD5E070020FD
:101CD000B4110020B81300208A11002002E0013B5B
:101CE000034A1360024B1B68002BF8D17047C046B3
:101CF000A406002010B5034B1A68034B1A60FFF7C7
:101D0000EDFF10BDC0110020A406002010B5054B4A
:101D10001978054B186802F089FA044B1860FFF730
:101D2000DDFF10BDA8060020C0110020A406002081
:101D300010B5044B1B78002B01D0002010BD02F021
:101D4000C9F9FBE7AE11002070B5AF4BDB69DB05CD
:101D500064D4AD4B0022DA61AC4BDB69DB0500D506
:101D6000FCE0AA4B0022DA6170BDA949012008708D
:101D700064E0022B66D90D2A64D15A1EA5498A5CFB
:101D80002D2A5FD19A1E8A5C2D2A5BD1033BCB5C46
:101D90002D2B57D1A04B00221A7012329F499A481E
:101DA00002F098F99E4B01221A704BE05A1E994995
:101DB0008A5C2B2A52D19A1E8A5C2B2A4ED1033B75
:101DC000CB5C2B2B4AD1944B01221A7014329549CB
:101DD0008D4802F07FF941E0511E8E48415C312967
:101DE00042D1911E415C24293ED1D11E415C24295F
:101DF0003AD10D228C49844802F06CF98B4B0122B8
:101E00001A708B4B04321A708A4A138801339BB2C2
:101E10001380FA225200934200D98CE07A4BDB699E
:101E2000DB0796D5834D29887A4C0919012276481B
:101E300002F03AF92B88E25C0D2A96D076490978AF
:101E4000012996D07B4B1B88022BDDD9724A127870
:101E5000002AD9D16F4AD25C0D2AA7D0754B1A88B7
:101E60006C4B9B5C0D2BB7D00D2B1DD00D2B34D0A4
:101E70000D2B48D00D2BC7D1531E6649CB5C352B9B
:101E8000C2D1931ECB5C242BBED1033A8B5C242B96
:101E9000BAD1694C00232370052268495A4802F0E0
:101EA00019F902232370AFE7511E5A48415C3229C9
:101EB000DCD1911E415C2429D8D1D11E415C24295A
:101EC000D4D10F225E49504802F004F9574B012249
:101ED0001A70574B08321A7096E7511E4D48415CF4
:101EE0003329C5D1911E415C2429C1D1D11E415C49
:101EF0002429BDD119225349434802F0EBF8524B33
:101F000001221A7080E7511E4248415C3429B1D148
:101F1000911E415C2429ADD1D11E415C2429A9D157
:101F2000454C0023237005224849374802F0D2F877
:101F30000123237068E73F4B00221A806EE7444B71
:101F40001978444BC91801222F48FFF7F1FE16E01B
:101F50000133DBB23E4A1370FA2B1AD82B4BDB69E4
:101F6000DB0700D4FDE63A4B19783A4BC918012239
:101F7000264802F099F8384B1B78002BDFD1344B00
:101F80001B78344AD25C0D2AE2D1344A0121117007
:101F9000DEE7130000221A7031492E4803F02CFDB1
:101FA000041E304B186013D02F4903F025FD2F4B32
:101FB00018608442D2D22E4B9842CFD2021B21000D
:101FC0002C4803F005FD2C4A137801331370C5E744
:101FD0002A49204803F010FD041E224B1860BDD092
:101FE000214903F009FD214B18608442B6D2204BF1
:101FF0009842B3D2021B21001E4803F0E9FC1E4A9E
:10200000137801331370A9E7004015400000054024
:10201000E7130020580F0020AE1100205097000059
:10202000A0060020649700007C9700009E1300200B
:10203000540D0020B2110020F0130020C0970000C2
:102040008C9700009C9700009C130020B89700001C
:10205000AF110020600D002066120020E513002063
:10206000C897000034140020D097000030140020DE
:102070005A0E0020A40C0020E4130020D497000086
:1020800010B5FFF761FE10BD70B5294BDB69DB05AC
:1020900029D4274B0022DA6170BD264B00221A702A
:1020A000254B18782338254BC018254903F0A4FC8C
:1020B000C11D244C0F22200003F0B8FB224D092241
:1020C00022492800FFF734FE200003F07AFC0200CA
:1020D00021002800FFF72CFE1BE00133DBB2164A7B
:1020E0001370F92B1FD8124BDB69DB07D1D5124DCA
:1020F0002978124C091901220D4801F0D5FF2978E1
:10210000091901221048FFF713FE0A4B1B78002B18
:10211000C3D1094B1B78094AD25C0D2ADDD10C4A88
:1021200001211170D9E7130000221A70DBE7C046C5
:1021300000001540F3130020B01100205C0E0020B9
:10214000DC970000080D002000401540E4970000D7
:10215000E613002010B5064C2368064A134023609E
:10216000FFF792FF226880239B051343236010BD75
:1021700000000140FFFFFFDFF0B589B0AE4B1A78D9
:102180000E2A00D9EAE29300AC4AD3589F461C229B
:10219000AB49AC48FFF7CCFD0D22AB49AB4801F091
:1021A00099FF09B0F0BD0D22A949A84801F092FF9E
:1021B000F7E7A64C0C22A749200001F08BFFA64DA3
:1021C00001222900200001F085FF0322A3492000FD
:1021D00001F080FF01222900200001F07BFF012295
:1021E0009F49200001F076FF01222900200001F024
:1021F00071FF9C4E300003F0E4FB02003100200030
:1022000001F068FF16229849200001F063FF974E05
:10221000300003F0D6FB02003100200001F05AFF2D
:1022200001222900200001F055FF022290492000E0
:1022300001F050FF0520FFF737FBB2E711228D496F
:10224000824801F047FF0320FFF72EFBFFF7A4FCB5
:10225000894E8A4F3760FFF741FD894C0025256084
:10226000FFF79AFC3760FFF739FD256099E70F22E9
:102270008449764801F02EFF93E70D228249734886
:1022800001F028FF8DE70F228049704801F022FFFE
:1022900087E70D227E496D4801F01CFF81E712227D
:1022A0007C496A4801F016FF7BE70E2266496748C1
:1022B00001F010FF75E7784B1B78002B00D170E719
:1022C000754B00221A707549754803F095FB0400A0
:1022D0000520FFF7E9FA002C1AD05A4D192271494E
:1022E0002800FFF725FD11341A2221002800FFF7EE
:1022F0001FFD02225E492800FFF71AFD1722002168
:1023000001A803F09CFA2A22210001A803F08EFA0A
:10231000654901A803F070FB00280DD0634B1B78C2
:10232000A52B76D1624B09221A70434B00221A70FA
:102330000120FFF7B9FA34E75E4901A803F05CFB1E
:102340000028EBD15C4901A803F056FB0028E5D139
:102350005A4901A803F050FB0028DFD1584901A8D1
:1023600003F04AFB0028D9D1564901A803F044FBE9
:102370000028D3D1544901A803F03EFB0028CDD159
:10238000524901A803F038FB0028C7D1504901A8E1
:1023900003F032FB0028C1D14E4901A803F02CFB09
:1023A0000028BBD14C4901A803F026FB0028B5D179
:1023B0004A4901A803F020FB0028AFD1484901A8F1
:1023C00003F01AFB0028A9D1464901A803F014FB29
:1023D000002800D18EE0354B1B785A2B0FD05A23A2
:1023E000414A1370314A13700120404B1870404B22
:1023F00005221A70104B00221A70FFF755FA2C4B69
:1024000008221A700C4B00221A700120FFF74CFAB8
:10241000C7E6A523344A1370244A1370334B0122B4
:102420001A70334B08321A70034B00221A700120C5
:10243000FFF73AFA76E7C046B8130020409A00004A
:10244000F097000000401540649300000000154024
:1024500074930000849300005006002094930000C1
:1024600098930000341500200C980000C41100203F
:102470009C9B00009C930000A406002060E31600D3
:1024800008430050B0930000C0930000D0930000B8
:10249000E0930000F0930000E61300202498000071
:1024A0005C0E002038980000549800009D13002016
:1024B00046070020609800006C98000078980000A3
:1024C00084980000909800009C980000A898000054
:1024D000B4980000BC980000C4980000CC9800009C
:1024E000D8980000E0980000D81100209E1300202A
:1024F000540D0020A04901A803F07EFA002800D066
:1025000069E79E4901A803F077FA002800D062E746
:102510009B4901A803F070FA002800D05BE79949B5
:1025200001A803F069FA002800D054E7964901A8F1
:1025300003F062FA002800D04DE7944901A803F0A7
:102540005BFA002800D046E7914901A803F054FA4D
:10255000002800D03FE78F4901A803F04DFA00287A
:1025600000D038E78C4901A803F046FA002800D0D3
:1025700031E78A4901A803F03FFA002805D18849CC
:1025800001A803F039FA002809D0864B0A221A70F4
:10259000854B00221A700520FFF786F901E6834972
:1025A00001A803F029FA002823D1814901A803F0EA
:1025B00023FA00281DD17F4901A803F01DFA002845
:1025C00017D17D4901A803F017FA002811D17B49E2
:1025D00001A803F011FA00280BD1794901A803F0F2
:1025E0000BFA002805D1774901A803F005FA002865
:1025F0000BD00120744B18606A4B0B221A706A4B87
:1026000000221A70FFF750F9CBE5704901A803F0DA
:10261000F3F9002829D16E4901A803F0EDF900284B
:1026200023D16C4901A803F0E7F900281DD16A49BC
:1026300001A803F0E1F9002817D1684901A803F0C7
:10264000DBF9002811D1664901A803F0D5F900286B
:102650000BD1644901A803F0CFF9002805D16249E4
:1026600001A803F0C9F900280BD00023564A1360D3
:102670004C4A0C2111704C4A13700120FFF714F9D9
:102680008FE55A4901A803F0B7F9002817D1584936
:1026900001A803F0B1F9002811D1564901A803F0AF
:1026A000ABF900280BD1544901A803F0A5F9002883
:1026B00005D1524901A803F09FF900280BD0FFF77C
:1026C000DFFA384B0E221A70374B00221A700120A5
:1026D000FFF7EAF865E54A4901A803F08DF90028FB
:1026E0001DD1484901A803F087F9002817D14649B0
:1026F00001A803F081F9002811D1444901A803F091
:102700007BF900280BD1424901A803F075F9002894
:1027100005D1404901A803F06FF900280BD0FFF75D
:10272000AFFA204B0D221A701F4B00221A700120A5
:10273000FFF7BAF835E50023374A1370194A0F211D
:102740001170194A13700520FFF7AEF829E5154BF3
:102750000F221A70144B00221A7022E52F4B1B789F
:10276000002B03D0013B2D4A13701AE52C4B1A782D
:102770000D4B1A7015E5C046EC980000F898000063
:1027800004990000109900001C990000289900008D
:10279000349900003C9900004499000050990000D1
:1027A0005899000046070020B81300206C990000DB
:1027B000749900007C990000849900008C990000B5
:1027C000949900009C990000CC420050A49900000C
:1027D000AC990000B4990000BC990000C4990000B5
:1027E000CC990000D4990000E0990000E89900001D
:1027F000F0990000F8990000009A0000089A000083
:10280000109A0000189A0000209A0000289A0000F0
:10281000309A0000389A0000D8110020BC13002024
:102820003315002070B5544B1A780C2A00D995E066
:102830009300524AD3589F46192251495148FFF7F5
:1028400077FA0D225049514801F044FC70BD0D2229
:102850004F494E4801F03EFCF8E74C4C0C224D49E4
:10286000200001F037FC4C4D01222900200001F02E
:1028700031FC03224949200001F02CFC01222900EF
:10288000200001F027FC01224549200001F022FC34
:1028900001222900200001F01DFC424E300003F00F
:1028A00090F802003100200001F014FC03223E49A0
:1028B000200001F00FFC3D4E300003F082F80200D2
:1028C0003100200001F006FC07223949200001F008
:1028D00001FC384E300003F074F802003100200093
:1028E00001F0F8FB01222900200001F0F3FB022295
:1028F0003149200001F0EEFBA8E711222F492348BF
:1029000001F0E8FBA2E70F222D49204801F0E2FB8D
:102910009CE70D222B491D4801F0DCFB96E70F22B6
:1029200029491A4801F0D6FB90E70E22274917489B
:1029300001F0D0FB8AE712222549144801F0CAFBB6
:1029400084E70D221049114801F0C4FB7EE7214BBA
:102950000F221A70084B00221A7077E71E4B1B7863
:10296000002B03D0013B1C4A13706FE71B4B1A78F6
:10297000014B1A706AE7C046B8130020AC9A0000F9
:102980007C9A000000401540649300000000154050
:10299000749300008493000050060020949300007C
:1029A0009893000034150020A09A0000C411002064
:1029B000A49A0000080D00209C9B00009C9300003E
:1029C000B0930000C0930000D0930000E09300009B
:1029D000F093000046070020BC13002033150020B0
:1029E00010B5104B1B78092B0DD90A2B0DD12222C3
:1029F0000D490E48FFF79CF90D4B05221A70094B43
:102A000000221A7010BD002BFCD10A4B1B78002B42
:102A100003D0013B074A1370F4E7074B1A78014BC8
:102A20001A70EFE7B8130020E09A0000004015404C
:102A300046070020BC13002033150020F8B5CE4611
:102A4000474680B5022232493248FFF771F9002427
:102A5000314B1C80314B1C800A220021304802F08F
:102A6000EEFE304B1C80304B1C80072200212F488B
:102A700002F0E5FE032200212D4802F0E0FE0322D1
:102A800000212C4802F0DBFE0A2200212A4802F035
:102A9000D6FE07220021294802F0D1FE284B1C80D7
:102AA00005220021274802F0CAFE274B1C80052280
:102AB0000021264802F0C3FE2C21254802F06BFFBE
:102AC000244B186001302C2102F065FF224B186066
:102AD0004378412B48D0214D0E4C1622290020006E
:102AE000FFF726F920221E492000FFF721F90222D4
:102AF00007492000FFF71CF9162229002000FFF7E4
:102B000017F9184B00221A70C0BCB946B046F8BD80
:102B10009C9B000000401540841300208C13002073
:102B20001C0D0020D4130020D81300209013002087
:102B3000A0130020A8130020380D0020AC130020A3
:102B400008140020FC1300201C1400201014002086
:102B5000A40C0020F413002004130020889B000024
:102B6000A09B0000B911002001302C2102F013FFBE
:102B70000400F84D2860411C0222F74802F028FFAB
:102B8000E11CF64F0222380002F022FFA11DF44C96
:102B90000522200002F01CFFF24E02223900300014
:102BA00002F016FF2100300002F0E8FE300002F0D3
:102BB000DBFDED4B984618606426704318603C219D
:102BC00001F034FB434618600A22E84902F02AFE6D
:102BD000380002F0C9FDE64F386070433C2101F037
:102BE000AFFB38600A22E34902F01CFE200002F02D
:102BF000BBFDE14B18600401241AA4001C60DF49EE
:102C0000200001F09DFB8046DD4B1860DB49200071
:102C100001F07CFCDB4C21600A22DB49404602F0DB
:102C200001FE20680A22D94902F0FCFD2868013023
:102C30002C2102F0B0FED64B186001302C2102F09E
:102C4000AAFE0400D34D2860411C0322D24802F0A2
:102C5000BFFE211DD14B98460222180002F0B8FE9B
:102C6000E11DCF4C0522200002F0B2FECD4B99466B
:102C700003224146180002F0ABFE2100484602F054
:102C80007DFE484602F070FDC74B994618607043C0
:102C900018603C2101F0CAFA4B4618600A22C34969
:102CA00002F0C0FD404602F05FFD386070433C21F9
:102CB00001F046FB38600A22BD4902F0B3FD200056
:102CC00002F052FDBB4B18600401241AA4001C60E2
:102CD000AA49200001F034FB0600B74B1860A74951
:102CE000200001F013FCB54C21600A22B4493000E9
:102CF00002F098FD20680A22B24902F093FD28688C
:102D000001302C2102F047FEAF4B186001302C211E
:102D100002F041FEAD4B186001302C2102F03BFE69
:102D2000AB4B186001302C2102F035FEA94B186026
:102D300001302C2102F02FFEA74B1860A74C042273
:102D4000A7492000FEF7F4FFA64D1122290020001C
:102D5000FEF7EEFF1122A4492000FEF7E9FF112241
:102D600029002000FEF7E4FF0522A0492000FEF71D
:102D7000DFFF9F4B1A689F4B19688A4200D99BE17D
:102D8000964C02229C492000FEF7D2FF07229B4965
:102D90002000FEF7CDFF6F4B1A68954B19688A42E9
:102DA00000D9A0E18D4C022293492000FEF7C0FF1C
:102DB000092293492000FEF7BBFF754B1A68654B4B
:102DC00019688A4200D995E1844C02228A49200080
:102DD000FEF7AEFF0B228B492000FEF7A9FF6D4BDB
:102DE0001A686B4B19688A4200D99AE17B4C02221F
:102DF00081492000FEF79CFF0A2283492000FEF74C
:102E000097FF714B1A68634B19688A4200D98FE1AA
:102E1000724C022278492000FEF78AFF03227B4988
:102E20002000FEF785FF694B1A68674B19688A42D4
:102E300000D994E1694C02226F492000FEF778FF27
:102E4000062273492000FEF773FF614B1B685F4A3F
:102E500011688B4200D989E1604C0222664920004A
:102E6000FEF766FF04226B492000FEF761FF594B15
:102E70001A68574B19688A4200D9ABE1574C0222B5
:102E80005D492000FEF754FF052263492000FEF74C
:102E90004FFF514B1A684F4B19688A4200D9A0E185
:102EA0005E4CFA220021200002F0C9FC5C4D280093
:102EB00002F087FD02002900200002F089FD594937
:102EC000200002F05BFD5849200002F057FD224827
:102ED00002F04AFC554B186008381D2800D897E1CD
:102EE00053494E4802F04AFD2B4802F03DFC514B3D
:102EF00018603D38232800D89FE14F49474802F029
:102F00003DFD4E4B1B78192B00D8ABE1434C4C498F
:102F1000200002F033FD4B49200002F02FFD4A490A
:102F2000200002F02BFD4949200002F027FD48490E
:102F3000200002F023FD4749200002F01FFD464912
:102F4000200002F01BFD454B01221A70234D033275
:102F500086E0C04698130020841300208C130020C4
:102F6000901300201C0D0020340D0020280D00209F
:102F7000DC130020D413002020140020A0860100C0
:102F800004140020F813002008140020FC13002073
:102F90003C130020B4130020A0130020A81300202D
:102FA000AC130020380D0020500D0020440D0020EF
:102FB000D813002024140020181400200C14002022
:102FC0001C14002010140020E01100205C0D0020D3
:102FD000A4110020BC110020E01300200040154087
:102FE000049B00000C9B0000209B0000349B000011
:102FF00004130020F41300209C9B00003C9B000065
:10300000449B0000509B00005C9B0000689B0000FC
:103010006C9B0000749B00007C9B00003814002017
:103020003415002054060020AC0600208813002030
:10303000E0060020A41300201407002080130020C5
:10304000C41100208C060020E81100209406002006
:1030500048130020480700202C140020B91100203C
:1030600083492800FEF764FE824E162231002800B4
:10307000FEF75EFE200002F0A4FC02002100280002
:10308000FEF756FE02227C492800FEF751FE16226A
:1030900031002800FEF74CFE042278492800FEF794
:1030A00047FEFEF779FD764B764A1A60FEF716FE6C
:1030B000754B00221A6027E5521A013A01312000AF
:1030C000FEF736FE714C32220021200002F0B7FBE1
:1030D0006F4B1B68591C6F4A1268D21A013A2000C4
:1030E00002F076FC4CE6521A013A01312000FEF75C
:1030F0001FFE57E6521A013A01312000FEF718FE72
:10310000654C32220021200002F099FB634B1B68C2
:10311000591C634A1268D21A013A200002F058FC86
:1031200052E6521A013A01312000FEF701FE5DE637
:10313000521A013A01312000FEF7FAFD594C3222B1
:103140000021200002F07BFB574B1B68591C574A9B
:103150001268D21A013A200002F03AFC58E6521ADC
:10316000013A01312000FEF7E3FD63E60131504CE6
:103170000422200002F02CFC200002F0F5FA4D4B56
:10318000186001F03BFE4C4B196801F0F5FA01F0B4
:10319000C3F9C0B2494B1870494C0A22210002F011
:1031A00041FB484E3168484F3B685A1A013A013199
:1031B0004648FEF7BDFD464D32220021280002F0B0
:1031C0003EFB3A683368D21A013A2100280002F027
:1031D000FFFB41E6521A013A01312000FEF7A8FD3B
:1031E0004CE6521A013A01312000FEF7A1FD394C9C
:1031F00032220021200002F022FB374B1B68591CB1
:10320000364A1268D21A013A200002F0E1FB47E682
:10321000334C3449200002F0B1FB200002F0D1FB16
:1032200020180222304902F001FB3049200002F050
:10323000A5FB2F4B00221A6052E6294C2D49200095
:1032400002F09CFB200002F0BCFB20180222264961
:1032500002F0ECFA2849200002F090FB274B0022F4
:103260001A604AE61A491E4802F088FB4EE6C0463C
:10327000DC910000889B00009C9B0000049B0000E8
:10328000A4060020204E0000084300500813002030
:10329000F41300200413002068120020981300206B
:1032A0003C1300209C120020B4130020E0110020E9
:1032B0001C1200207C1300205007002080130020E7
:1032C000580D00205C0D0020A41100200040154086
:1032D000D012002034120020BC110020E013002086
:1032E0003814002084130020849B0000280D002047
:1032F00088130020A0130020440D0020A4130020F8
:1033000010B503092B4A13700F2210402A4A10707F
:10331000012B1BD0022B20D0002B05D00023274AE5
:103320001360274A136003E0244A1360244A1360A1
:10333000214B1B78012B22D0022B27D0002B13D03E
:103340000023204A1360204A136011E01B4B012226
:103350001A601B4B00221A60EAE7184B00221A6021
:10336000174B01321A60E3E7164A1360164A1360DE
:10337000FEF7C0FC154B1B78002B0ED110BD114B76
:1033800001221A60104B00221A60F1E70D4B002257
:103390001A600D4B01321A60EAE70023074A1360F6
:1033A000074A1360074A1360074A1360FEF7AEFC32
:1033B000E4E7C046A8110020A9110020DC4200501B
:1033C0008042005084420050904200502012002061
:1033D00010B5094C2378094AD05CFFF791FF237898
:1033E000074A1278934203D3034B00221A7010BD90
:1033F0000133014A1370FAE728140020580700200F
:103400005C07002010B50A2232212820FEF7D6FBE7
:10341000104B912252001A80002411E001330E4A11
:103420001360FEF7E1FB0B4B1A880B4B1B689A42AB
:10343000F4D2FFF7CDFF084B00221A600134A4B28A
:10344000044B1B88A342EED80023044A1370044A9D
:10345000137010BD5E070020B4110020B8130020C7
:103460009E13002010B5094C2378094AD05CFFF761
:1034700047FF2378074A1278934203D3034B002275
:103480001A7010BD0133014A1370FAE728140020A6
:10349000540700205C07002010B50A224621642052
:1034A000FEF78CFB104B912252001A80002411E091
:1034B00001330E4A1360FEF797FB0B4B1A880B4B38
:1034C0001B689A42F4D2FFF7CDFF084B00221A6026
:1034D0000134A4B2044B1B88A342EED80023044A53
:1034E0001370044A137010BD5E070020B411002051
:1034F000B81300209E130020F0B5CE46474680B595
:1035000083B0A022D20580235B005921D1504339DA
:10351000D1507231D150D358002BF2D0FDF75CF965
:103520000023A021C905802252008B50DC4A136081
:10353000DC4A1360DC4C01222260DC4D2A60DC484E
:103540000260036002600360DA490B60DA4E0F2705
:1035500037700A600B600A600B6002600A600360EB
:103560000B602B60236002600A600B6003600A60DE
:10357000026003600B60D1490A600B600A600B6057
:1035800006E0019D013DCE4B1D60C84B01221A6033
:10359000CB4B1B680193002BF3D1FDF705F9C94E06
:1035A0000121300000F062FD1A22C7493000FEF709
:1035B000BFFBFDF7E1F8C54C0422C549200000F02F
:1035C00089FD0121200000F051FDFDF7BDF801212A
:1035D000C04800F04BFD8021BF4C0A2209052000A5
:1035E00000F064FB226880239B0513432360BB4BE0
:1035F000802252001A60E03A1A6022688023DB05BC
:1036000013432360FCF7CAFD1A22B5493000FEF7C8
:103610008FFBB44B00221A70B34BB44A1A6007E117
:10362000B349B44802F0E8F9002800D115E1B24BE3
:10363000B24A1A60B24BB34A1A600EE1B249B348BB
:1036400002F0DAF9002800D00EE1B149AF4802F0EB
:10365000D3F9002803D0AF4B00221A7009E0AE491D
:10366000AA4802F0C9F90028F5D102E0AB4B0022CC
:103670001A70AA4B1B78012BF8D00FE03221A84812
:1036800002F089F9002809D00922A6498D4800F0E6
:1036900021FD0023874A1360A34A1370A24B1B78B5
:1036A000002B3ED0A14E9E4C3100200002F081F94B
:1036B000FA2252000021300002F0C1F89C4B002297
:1036C0001A803121200002F066F90028D6D00822A5
:1036D00098497C4800F0FEFC764B01221A60924B20
:1036E00000221A70DAE7FCF789FD934B00221A706A
:1036F000744C16329149200000F0ECFC904E3000E2
:1037000002F05FF902003100200000F0E3FC022229
:103710008C49200000F0DEFCFCF746FF8A4B0122BA
:103720001A70854B1B78002BDDD119E0083B5C4AF1
:1037300013605C4A1360854B00221A70844B1B781F
:10374000002B36D0FFF75EFE594B01221A60002392
:10375000804A1370804A1360514A1360514A1360C3
:103760007C4B1B78012B43D17B4B01221A60774B9A
:103770001B78092BDAD0052BF2D1043B484A1360A1
:10378000484A1360714B00221A70714B1B78002B52
:1037900023D0FFF781FE0023454A1360454A13609A
:1037A0006C4A13706C4A13603D4A13603D4A1360C3
:1037B000D6E7FEF7F1F9424C684E2660FEF78EFA26
:1037C0003E4F00253D602660FEF788FAFEF7E4F9DB
:1037D0002660FEF783FA3D60B6E7FEF7DDF9384B69
:1037E0005F4A1A60FEF77AFA344B00221A60D2E779
:1037F0005C4B1888013080B218805B4C0A22210093
:1038000002F010F80A220021200002F018F8574BAD
:103810001B78002B2CD1564B1B781E2B2BD8554BCD
:103820001B78092B36D8544B1B78002B00D0CEE0E8
:10383000454B1B78002B00D11BE7434B00221A702D
:103840004E492C4802F0D8F8002800D1E8E62A4B6F
:103850004B4A1A602A4B4B4A1A604B492B4802F0DC
:10386000CBF8002800D1E9E62A4B01221A7000E7C4
:10387000FCF72AFDCFE73E4B00221A70FCF79EFCB6
:103880003C4A1378980041490C684149445001333F
:103890001370C4E7374B00221A70019800237EE0B2
:1038A000D0420050D4420050004300502C430050FE
:1038B000C8420050CC4200509D13002008430050E5
:1038C000A406002000401540C09B000000001540E9
:1038D00000920000000005400000014000E100E00F
:1038E000DC9B0000B8130020C0110020581B000012
:1038F000FC9B00008C0C0020EC13002000005841C1
:10390000CC13002000002841049C00008C110020F2
:10391000089C0000A00C00200C9C00008A110020D4
:10392000AC1100201C9C00009C130020580F0020AC
:10393000B2110020109C0000A0060020289C00006E
:10394000400800209C9B0000AD110020540D002079
:10395000A90600209E1300202843005080841E00EA
:10396000801A0600BA130020C0130020AE110020F8
:10397000501100204013002032150020F89B000059
:10398000000028420000FC41009C0000F4070020D9
:103990005411002099008A4A8A5880180133092B53
:1039A000F8DD0A2100F042FC01F028FA854E306073
:1039B000854B196800F0E0FE041C306028220021CD
:1039C0007F4801F03CFF201CFEF72EF82BE77F4BD1
:1039D00000221A707E4B1B780A2B0DD87D4B1B786A
:1039E000322B00D980E07C4B1A780F2A00D91FE7D0
:1039F00093007A4AD3589F46794C02327949200085
:103A0000FEF796F90E2278492000FEF791F9774EDD
:103A1000300001F0D6FF020031002000FEF788F9E7
:103A2000042273492000FEF783F9FFF707F86422A8
:103A30000021300001F003FF654B00221A70FCF7F3
:103A4000BDFB6C4B186801F0D9F96B4B196800F09D
:103A500093FE8046694B1860694B186801F0CEF9F7
:103A6000594B196800F088FE664B99461860664FFE
:103A700032220021380001F0E2FE644E32220021A1
:103A8000300001F0DCFE032239004046FEF74AF820
:103A90004B46186803223100FEF744F80A225C49BD
:103AA0002000FEF745F9380001F08BFF02003900D5
:103AB0002000FEF73DF9574F042239002000FEF7A1
:103AC00037F90A2254492000FEF732F9300001F09C
:103AD00078FF020031002000FEF72AF904223900A5
:103AE0002000FEF725F979E74C4B4D4A1A604D4B03
:103AF00001221A6002E0013B484A1360474B1B68F1
:103B0000002BF8D1474B00221A606CE7FDF706F84E
:103B1000304B00221A708BE6FDF7D6FE2D4B0022AB
:103B20001A7085E6FDF732F82A4B00221A707FE6FC
:103B3000FDF79EF8274B00221A7079E6FDF7E8F8AA
:103B4000244B00221A7073E6FDF722F9214B002264
:103B50001A706DE6FEF710FB1E4B00221A7067E626
:103B6000FDF7D6F91B4B00221A7061E6FDF7A2FAA9
:103B7000184B00221A705BE6FEF754FE154B00222C
:103B80001A7055E6FDF768FB124B00221A704FE6DB
:103B9000FDF72CFC0F4B00221A7049E6FDF7F0FCF4
:103BA0000C4B00221A7043E6FDF7B4FD094B0022CE
:103BB0001A703DE6FEF714FF064B00221A7037E636
:103BC000541100204C1100208806002032150020DE
:103BD000E4130020B811002046070020709C00006C
:103BE000004015409C9B0000409C0000A40C00205D
:103BF000DC910000FC0700209C06002044130020FC
:103C0000F4070020E411002048130020E8110020F0
:103C1000509C00005C9C0000649C0000A4060020F6
:103C2000102700000043005030B589B06946194B99
:103C30000A0032CB32C232CB32C212CB12C2164B86
:103C4000984211D0154B984214D0154B984217D07A
:103C5000144B5A69120D07231340022B16D09B00F8
:103C60006A46985809B030BD0E4B5A69120A0723AC
:103C70001340F2E70B4B5A69120B07231340ECE792
:103C8000084B5A69120C07231340E6E7064B1868E5
:103C9000E8E7C046B09C0000000001400001014080
:103CA000000011400002005068070020F0B5C64631
:103CB00000B505000E009046FFF7B6FF040043086C
:103CC000434521D3124B984210D9C40807274146D7
:103CD000200000F0ABFA3E432E606860791C41433F
:103CE000200000F0A3FA80BCB846F0BD094B984212
:103CF00002D984080327EAE7074B984202D944080F
:103D00000127E4E70027E2E700270220E3E7C046B7
:103D10000090D0030048E8010024F400F0B5C64646
:103D200000B505000F00FFF77FFF06000100364BCE
:103D3000186800F07BFA441C00232B606B61334B46
:103D40009E4208D8FA239B009F420BD32F4B9F42E1
:103D50000AD92E4F08E0632F1ED92C4B9F4203D95E
:103D60002A4F01E0FA27BF00284B9E4216D83100A7
:103D7000274800F05BFA01007B01DB1B9800C019AB
:103D8000C00000F053FA0023984668608023DB05EA
:103D9000424613432B602FE06427E5E71D4B9E420C
:103DA0000AD9F60807239846F92F16D83000784329
:103DB000164900F03BFAE8E7174B9E4203D9B608D4
:103DC00003239846F0E7154B9E4203D9760801235A
:103DD0009846E9E700239846E6E731000C4800F0F2
:103DE00025FA01007B01DB1B9800C019C00000F020
:103DF0001DFACAE7C046013C002CFBD12B689B0191
:103E0000FCD480BCB846F0BD6807002040420F00DB
:103E100000CA9A3B0090D0030048E8010024F40057
:103E200070B5064C80256059054E3040084310435C
:103E300060518422A158A35070BDC04600000E40BE
:103E4000F3FBFFFFF0B587B002AC1C4BE0CBE0C446
:103E50001B6823600023009320330193830AFF240F
:103E600025001D401C4210D0840C032323409B00DE
:103E70006C461C59124B9C466444236847091F2614
:103E80003E40B540AB431A432260430E0722140064
:103E90001C401A4210D0020F032313409B0002AAB9
:103EA0009A58084B9C4662441368000D1F25284011
:103EB0008440A3431943116007B0F0BDD09C0000BB
:103EC000180200501002005070B584B001AA0A4BCD
:103ED0001033110070CB70C1830F9B009B58074AB1
:103EE000944663441A681F2108401E3981400A43E2
:103EF0001A6004B070BDC046D09C0000040200509F
:103F0000074A084BDB680340834204D0531E002A53
:103F100003DD1A00F5E7012070470020FCE7C046EA
:103F200080F5200000020050F8B506000F00104C8C
:103F3000E36810251D4023680422134323601020EA
:103F4000FFF7DEFF2369072213432361A1690F23D3
:103F500099433943A161206990433043206100F0C7
:103F60000DF9002D03D1236804218B432360F8BD94
:103F70000002005010B504000168104801F068FC10
:103F800061680F4801F064FCA1680E4801F060FC14
:103F9000E1680D4801F05CFC21690C4801F058FC17
:103FA00061690B4801F054FCA1690A4801F050FC1A
:103FB000E169094801F04CFC10BDC046EC9C0000D2
:103FC000F89C0000049D0000109D00001C9D000056
:103FD000289D0000349D0000409D000010B50400A5
:103FE000034801F0C1FC2000FFF7C4FFFEE7C04614
:103FF0004C9D0000064B04207146084203D0EFF3AD
:1040000009807146EAE7EFF30880E7E7FEE7C0467C
:10401000DD3F000010B51000130005E000240C5730
:104020000B4B1C60130001315A1E002B0FD0084BA4
:104030009B691B02FBD40023CB560A2BEED1044B09
:104040000D241C60024B9B691B02FBD4E6E710BDEC
:1040500000000540044B9B695B04FBD4024B1B68CA
:104060000B7001207047C0460000054043680B43B9
:1040700043600A4B984207D0094B984209D0094B3C
:10408000802252011A607047064B802252011A604A
:10409000F9E7044B802292011A60F4E70000054022
:1040A0000000154000E100E030B504000D001100F3
:1040B000002002E023682B540130884209D20023FB
:1040C000A2695204F6D501338022D2059342F7D378
:1040D000002030BDF0B504000F001600002502E0FE
:1040E0007B5D23600135B5420DD00021A26980239C
:1040F0005B05100018401A42F2D101318023DB0524
:104100009942F3D3F0BD2800FCE710B501F032FB73
:10411000582303600120404210BD10B501F02AFB76
:10412000582303600120404210BD10B501F022FB6E
:1041300058230360002010BD10B501F01BFB58236D
:1041400003600120404210BD0649074A074B9B1AF5
:1041500003DD043BC858D050FBDC00F065F8FBF7EA
:10416000D7FF000090A0000000000020D80700202A
:10417000FEE7C046ABBE74469847204730B583B0D3
:104180001F4B1A69072414401E4A01921B6AA02281
:10419000D202134232D11A032ED51B489A0311D4EE
:1041A000990B03220A4001A9895CDD05ED0D02355A
:1041B0005B0A1F221340023380086843594300F012
:1041C00035F88000114B1860022C02D0A400104B6F
:1041D000E0580B4B9B690F211940013100F026F884
:1041E0000C4B18600C4B9C4660440C4900F01EF8C8
:1041F0000B4B186003B030BD0A48CFE70020E1E761
:1042000000020050010202040080510164070020F6
:10421000649D00006807002020A1070040420F00B5
:1042200060070020001BB700704700000022430811
:104230008B4274D303098B425FD3030A8B4244D36E
:10424000030B8B4228D3030C8B420DD3FF220902B0
:1042500012BA030C8B4202D31212090265D0030B6F
:104260008B4219D300E0090AC30B8B4201D3CB0365
:10427000C01A5241830B8B4201D38B03C01A5241A7
:10428000430B8B4201D34B03C01A5241030B8B42A9
:1042900001D30B03C01A5241C30A8B4201D3CB0294
:1042A000C01A5241830A8B4201D38B02C01A524179
:1042B000430A8B4201D34B02C01A5241030A8B427C
:1042C00001D30B02C01A5241CDD2C3098B4201D394
:1042D000CB01C01A524183098B4201D38B01C01A12
:1042E000524143098B4201D34B01C01A5241030989
:1042F0008B4201D30B01C01A5241C3088B4201D338
:10430000CB00C01A524183088B4201D38B00C01AE4
:10431000524143088B4201D34B00C01A5241411A0B
:1043200000D20146524110467047FFE701B5002018
:1043300000F0F0F802BDC0460029F7D076E77047DC
:1043400003460B437FD4002243088B4274D30309F6
:104350008B425FD3030A8B4244D3030B8B4228D397
:10436000030C8B420DD3FF22090212BA030C8B42BD
:1043700002D31212090265D0030B8B4219D300E05D
:10438000090AC30B8B4201D3CB03C01A5241830BE2
:104390008B4201D38B03C01A5241430B8B4201D392
:1043A0004B03C01A5241030B8B4201D30B03C01ABB
:1043B0005241C30A8B4201D3CB02C01A5241830A35
:1043C0008B4201D38B02C01A5241430A8B4201D364
:1043D0004B02C01A5241030A8B4201D30B02C01A8E
:1043E0005241CDD2C3098B4201D3CB01C01A5241F5
:1043F00083098B4201D38B01C01A524143098B427E
:1044000001D34B01C01A524103098B4201D30B0166
:10441000C01A5241C3088B4201D3CB00C01A52418B
:1044200083088B4201D38B00C01A524143088B4250
:1044300001D34B00C01A5241411A00D201465241E9
:10444000104670475DE0CA0F00D04942031000D308
:104450004042534000229C4603098B422DD3030A5D
:104460008B4212D3FC22890112BA030A8B420CD36D
:10447000890192118B4208D3890192118B4204D396
:1044800089013AD0921100E08909C3098B4201D316
:10449000CB01C01A524183098B4201D38B01C01A50
:1044A000524143098B4201D34B01C01A52410309C7
:1044B0008B4201D30B01C01A5241C3088B4201D376
:1044C000CB00C01A524183088B4201D38B00C01A23
:1044D0005241D9D243088B4201D34B00C01A5241FA
:1044E000411A00D20146634652415B10104601D387
:1044F0004042002B00D54942704763465B1000D311
:10450000404201B5002000F005F802BD0029F8D0B6
:1045100016E770477047C0469E2110B5C905041CB8
:1045200001F04AF8002803D1201C00F0F9FB10BD6F
:104530009E21201CC90500F045FA00F0F1FB802304
:104540001B069C466044F2E7F0B54F464646D64609
:104550004502C0B547000C1C6D0A3F0EC60F002F68
:1045600000D170E0FF2F00D175E0EB008025ED0455
:104570001D43002399469A467F3F6002430A9846AE
:1045800063001B0EE40F002B4ED0FF2B46D042469B
:10459000D0008022D2040243904600227F3B3100AB
:1045A000FF1A4B466140C9B213430F2B00D9B5E047
:1045B0006E489B00C3589F460023984626004546F8
:1045C00092465346022B00D189E0032B00D19EE096
:1045D000012B18D03B007F33002B69DD6A0704D024
:1045E0000F222A40042A00D004352A0103D5604B4B
:1045F0001D403B008033FE2B00DD70E0AD016D0AF5
:10460000D8B202E00E0000200025C0052843F607BE
:104610003043E0BCBA46B146A846F0BD4346002B45
:104620003FD10222FF3F03E04346002B2DD1012260
:1046300031004B466140C9B213430F2B34D84D486B
:104640009B00C3589F46002D13D104239946033B7A
:1046500000279A4691E7002D05D108239946063B8D
:10466000FF279A4689E70C239946093BFF279A467C
:1046700083E7280000F0AAFF7627431F9D40002310
:104680007F4299469A463F1A77E7404600F09EFFE0
:104690004246431F9A4076235B4290461B1A0022F3
:1046A0007DE7FF2303227AE70E00FF200025ACE719
:1046B0000120C01A1B28A6DC9E372A00BD40C2403C
:1046C0006B1E9D4115436B0704D00F232B40042B19
:1046D00000D004356B0144D50120002595E7FF206B
:1046E000002592E780250026FF20ED038DE70023BB
:1046F00098468020C003054209D04346034206D1B4
:10470000454605436D022600FF206D0A7DE78020A7
:10471000C00305436D02FF206D0A76E742466B0138
:104720005001834219D21B220025013F01261C00A3
:104730006D005B00002C01DB984201D81B1A354349
:10474000013A002AF3D15A1E93411D433B007F33A7
:104750000E00002B00DD41E7AAE71A2201251B1AF3
:10476000E4E7AD0100206D0A4FE7C046849D0000DC
:10477000FFFFFFF7C49D0000F0B54F464646D64602
:1047800044024500C0B5640A0F1C2D0EC60F002D53
:1047900000D18DE0FF2D00D192E0002380209946CA
:1047A0009A46E400C00404437F3D7802430A9846D9
:1047B0007B001B0EFF0F002B00D170E0FF2B00D100
:1047C00086E04246D00080227F3BED180023D204D1
:1047D000024390469C4631004B467940681C0F2BA3
:1047E0001CD8764A9B00D3589F4639004446E2467F
:1047F0005346022B0FD0032B00D1D7E0012B37D12A
:1048000000200024C0052043C9070843E0BCBA4685
:10481000B146A846F0BDFF200024F3E7260C24048F
:10482000220C44462404240C434627001B0C574307
:1048300074435A435E4312193B0C9B189C4203D9A4
:1048400080225202944666443F041A043F0CD21957
:104850009401671EBC411B0C920E9B1914439B01D3
:104860001C431B0100D49BE0012362081C4014433D
:1048700002007F32002A64DD630704D00F23234047
:10488000042B00D00434230103D502004C4B8032AA
:104890001C40FE2ABFDCA401640AD0B2B2E7434642
:1048A000002B3DD14A4601331A4391469C4692E77C
:1048B000002C29D104239946033B00259A4674E72E
:1048C000002C1BD108239946063BFF259A466CE72E
:1048D0004346FF35002B0BD102234A461A4391462B
:1048E0009C4678E753463100022B00D083E792E7DD
:1048F00003234A461A4391469C466CE70C2399468B
:10490000093BFF259A4650E7200000F05FFE762520
:10491000431F9C4000236D4299469A462D1A44E756
:10492000404600F053FE4246431F9A4000232D1A92
:1049300090469C46763D4EE780240021FF20E4030C
:1049400060E701239B1A1B2B00DD59E722009E30F4
:10495000DA4084401300621E94411C43630704D074
:104960000F232340042B00D0043463011AD5012007
:10497000002447E78020C003044209D04346034295
:1049800006D14446044364023900FF20640A39E733
:104990008020C003044364023100FF20640A31E731
:1049A000280065E7A4010020640A2BE78020C003EB
:1049B00004436402FF20640A24E7C046049E00000A
:1049C000FFFFFFF7F8B5CE46474643025B0A4E02AB
:1049D000DA009446720A914645004A0080B52D0ED1
:1049E0001F00C40F120EC90FB609FF2A5BD00120A9
:1049F00041408C4239D0A81A00285ADD002A6AD0DA
:104A0000FF2D00D1D9E08022D20416431B2800DC00
:104A1000E9E001206346181A430100D4B4E08001A4
:104A20008709380000F0D2FD05388740854200DC58
:104A3000CCE02D1AB5483840430704D00F2303407B
:104A4000042B00D00430430100D4A0E06A1CFE2DEA
:104A500000D18DE08001470AD2B2D0053843E40787
:104A60002043C0BCB946B046F8BDA81A804600280D
:104A700045DD002A70D0FF2D00D19EE08023DB04AD
:104A80001E4343461B2B00DCD2E00120604443015F
:104A90007AD50135FF2D6BD001239D4A0340400894
:104AA00010401843C8E7002E20D08C4223D02800A5
:104AB000FF38002839D0571B002D00D09DE06346F9
:104AC000002B00D1DBE07B1E012F00D10DE1FF2F79
:104AD00071D01F0098E0002E00D1A7E0421E0128EF
:104AE00000D1E6E0FF2868D010008FE701204140A8
:104AF000A14200D07FE7FF2040428046A8444046C4
:104B0000002838D0511B002D00D1AEE0FF2A00D183
:104B1000DFE080236046DB04184384461B2900DC69
:104B2000D9E0012015008019B1E7FE206A1C10426F
:104B300071D1002D00D0A6E06346002B00D1D9E052
:104B40000022002E00D188E7981B430100D4E1E049
:104B500063460C00F01A6FE7002E00D1B7E00200A8
:104B6000013A012800D19CE0FF2826D0904688E732
:104B7000FF22002771E7FE206A1C104264D0FF2A42
:104B8000F6D0150066447008430700D056E7C30806
:104B9000FF2D12D05B025F0AEAB25EE76246002A8E
:104BA00000D196E0002E08D08022D203134204D018
:104BB0004846104201D10C004B46002BD8D080272C
:104BC000FF031F437F02FF227F0A46E720233A00AC
:104BD000451B38000135EA405D1BA840431E984143
:104BE0000025104328E720231B1A32009E40C240B4
:104BF0003000431E984110430CE7FF2ADBD080238E
:104C00006046DB04184384461B2F56DD01200C0050
:104C10001500301A00E763469F1B7B013DD4002F2F
:104C200000D0FEE600240022002716E70500AFE7CB
:104C3000320043464146DA4020235B1A9E40300052
:104C4000431E9841104321E7002DA7D16346002B56
:104C500059D00022002E00D1FFE63000604443010D
:104C600092D52A4B013518408EE76346002B47D07A
:104C70004B1E012915D0FF292BD019004EE70C003F
:104C80004B463D0084E76246002A8BD1002E92D12C
:104C900080270024FF22FF03DFE663460C00F71A9B
:104CA000BFE6300060440125430100D46CE70225D3
:104CB000F2E663460125981BAEE620236446604673
:104CC000FC40DF1BB840431E984120439FE705008E
:104CD0005EE74B4671E7202365466046CD40591A92
:104CE0008840431E984128431CE763460C00012579
:104CF000F01A91E6002E95D00C004F460022ACE64B
:104D00004B460D0044E74F460022A6E6FFFFFFFB9F
:104D1000FFFFFF7D002800D036E7002400279CE637
:104D200041024200C30F490A0020120E7E2A03DD11
:104D30009D2A02DD094A981870478020000401432B
:104D4000952A07DC9620821AD1404842002BF3D1E5
:104D50000800F1E7963A9140F7E7C046FFFFFF7F72
:104D6000F8B5002813D0C317C6185E40C40F300032
:104D700000F02CFC9E2305001B1A962B0FDC082844
:104D800001DD083DAE407602760AD8B202E000248A
:104D900000200026C0053043E4072043F8BD992BCE
:104DA0000CDD05223100121AD1400A00010030004A
:104DB0001B318840411E884102431600052D12DC3C
:104DC00031000D4F3940720709D00F2030400428C0
:104DD00005D004314A0102D59F2339405B1B89016C
:104DE0004E0AD8B2D6E76A1F96403100024F3940CA
:104DF0007207F4D0E9E7C046FFFFFFFB70B5051E60
:104E00000ED000F0E3FB9E2304001B1A962B0CDC53
:104E1000082801DD083CA5406D026D0AD8B201E00A
:104E200000200025C005284370BD992B09DD020034
:104E300029001B3291404A1E91410522121AD54089
:104E40000D43052C12DC29000C4E31406A0709D0B5
:104E50000F202840042805D004314A0102D59F23A1
:104E600031401B1B89014D0AD8B2DBE7621F954018
:104E70002900024E31406A07F4D0E9E7FFFFFFFB4B
:104E8000F0B557464E464546DE46E0B598460C031B
:104E90004B000600924687B0240B5B0DCF0F002B12
:104EA00000D15CE1D94A934200D175E1420FE400A0
:104EB0001443802212041443D54AC5009446634427
:104EC0000093002399469B46434642461E03D20F59
:104ED0005B0050469046360B5B0D00D120E1CB4A7B
:104EE000934200D162E1CA49420F8C460099634463
:104EF000F6008C46164380229C44120463461643F7
:104F0000C200002000930099434601318C46494677
:104F10007B4001930F2926D8BE4B890059588F46F4
:104F2000434601933400150083465B46022B16D09E
:104F3000032B00D103E2012B00D0CDE0002200249E
:104F40000025019B12052243DB071A4328001100AC
:104F500007B0F0BCBB46B246A946A046F0BD00244F
:104F60000025AA4AEDE7280C2D042D0C2B00110C6E
:104F70001204120C5343984613002F0043439946E2
:104F80004F434F44BB4647460B003F0CBA46434392
:104F9000DA440293D14504D980277F02B9464B44B5
:104FA000029353461B0C9B4653461F0443461B0467
:104FB0001B0C98463B0043440493330C3604360CD8
:104FC0009846330043439946434643432F009A464D
:104FD000434677435D43380C4D444519A94503D9F1
:104FE00080235B029946CA443F04280C3F0C2D04E1
:104FF000ED19270C2404240C0300200050437A43AD
:1050000091463A0053440593030C9A464A43614340
:1050100049445144AB44894503D980235B029946F6
:105020004A4400040B0C000C09040918200099469E
:10503000434670435C437E435F43030C9846A41988
:1050400044444A440397A64204D980235B0298460D
:10505000474403972304029E9A46059B5E44984664
:10506000AE42AD4176188E4289410004000C504496
:1050700040446D424719B846934649428946C34465
:10508000D94498428041A845AD4193459241894514
:1050900089416D4240422843240C524249420A430E
:1050A000039B00198018C7184B46DC0D049B750242
:1050B0001D436A1E95414B46F60D7F0235435A0249
:1050C0003C431543FB0100D41CE101216A080D405B
:1050D0001543E207154364084F496144002900DC89
:1050E000B0E06B0709D00F222A40042A05D02A1D00
:1050F000AA42AD416D4264191500E30104D5802137
:10510000464AC90014406144454A914200DD26E701
:105110006207ED08640249051543240B4A0D10E7A8
:105120005246324300D17FE0002E00D1DCE0300057
:1051300000F04CFA02000B3A1D2301009B1A524664
:105140000839DA408E40164352468A40009B354962
:10515000181A03008C46634400200093D3E6250010
:1051600005434AD0002C00D1B0E0200000F02EFA18
:10517000010002000B391D2310005B1A31003500BD
:1051800008388440D94085400C432648831A009350
:10519000002399469B4697E60500254326D1082221
:1051A00000930223002491469B468DE65246009BC5
:1051B000324310D1154900268C466344494600937A
:1051C00002231943894602209DE65B460197022B84
:1051D00000D0ADE6C3E60D4A0320944663444A4638
:1051E000009303231A43914652468CE60C22009307
:1051F0000323050091469B4666E604239946002357
:105200000093013300249B465EE6C046FF07000082
:1052100001FCFFFF449E0000FF030000FFFFFFFEB4
:10522000FE0700000DFCFFFF494601231943894694
:105230000026012067E6002380240025434A0193CD
:1052400024037EE60120401A382800DD76E61F2878
:105250005BDD1F2223005242511ACB401900202847
:1052600003D03B4A6244944025436A1E95412A007C
:105270000A4307210D000024154011425BD00F2185
:1052800000241140042953D0111D914292415242F1
:10529000A4180A0023024BD501220024002550E661
:1052A00080231B031C4209D01E4207D133431C0339
:1052B00043461500240B254A019342E6802212033F
:1052C00014432403214A240B01973AE600F07EF9A7
:1052D00001000200153120321C2900DC4BE73400AC
:1052E00008380025844050E700F070F903001A00E8
:1052F000153220301C2A00DC1EE75646083B0022EF
:105300009E4023E7009B9C46E6E61249220061444A
:105310002E008D408A40C640691E8D4132432A438B
:10532000C4405307B6D00F2111400429ACD1B1E7D6
:1053300065076402240BD2081543002201E680228F
:10534000120314432403014A240BFAE5FF0700006B
:105350003E0400001E04000070B5002816D0C317DC
:10536000C5185D40C40F280000F030F9114A121A28
:105370000A2816DC03002E0015339E400B23181A52
:10538000C54052052D032D0B530D03E000240023CF
:10539000002500261B052B43E4072343300019009A
:1053A00070BD0B38854052052D0300262D0B530D83
:1053B000F0E7C0461E04000070B543004602C40F6B
:1053C000FE201B0E591C750A08420CD0E0229200E8
:1053D00094466D07360B63441B053343E4072343B0
:1053E0002800190070BD002B14D1002D1BD02800FF
:1053F00000F0ECF80A281CDC0B232E001B1ADE4000
:10540000030015339D400E4A3603121A5205360B1F
:10541000530DE1E7002D09D08022360B1203094B12
:105420006D071643D8E700230026D5E70026054B75
:10543000D2E703000B3B9D402E000025E3E7C0466A
:1054400089030000FF07000002004B00F0B55B0D70
:105450000C033D4E640A400F5F1CC90F0443D50086
:1054600037420AD039481E18FE2E16DDFF200024D0
:10547000C0052043C9070843F0BD002B06D12C43CB
:1054800026D005229201540AD8B2F1E72543EDD087
:105490008020C0030443FF20EAE7002E1BDD9201B9
:1054A000531E9A41E4006D0F22432A43530748D00C
:1054B0000F231340042B00D004328023DB0413405D
:1054C0003FD0701CFE2ED1D09201540AC0B2CFE75B
:1054D00000200024CCE73200173222DB80200004B9
:1054E00020431E24A41B1F2C1DDD02225242961BAA
:1054F0000200F2401600202C04D0154A9446634462
:10550000984005432A00531E9A4132430026530710
:10551000CED180241300E404012023402242D3D1C1
:10552000B0E70023ADE70B4A94462A00E24014009E
:105530002A0063449A409840551EAA4102432243E0
:10554000E4E733009EE7C046FE07000080FCFFFF53
:10555000A2FCFFFF82FCFFFF844608006146FFE7D4
:105560001FB500F0BDF8002801D40021C8421FBDBE
:1055700010B500F049F84042013010BD10B500F000
:10558000AFF8002801DB002010BD012010BDC0468F
:1055900010B500F0A5F8002801DD002010BD0120A5
:1055A00010BDC04610B500F055F8002801DC002001
:1055B00010BD012010BDC04610B500F04BF800280A
:1055C00001DA002010BD012010BDC0461C210123BE
:1055D0001B04984201D3000C10391B0A984201D3D6
:1055E000000A08391B09984201D30009043902A2B4
:1055F000105C40187047C04604030202010101011B
:10560000000000000000000070B5420045024E029C
:105610004C00C30F6D0A0120120E760A240EC90F2A
:10562000FF2A06D0FF2C03D0A24201D1B54206D0FA
:1056300070BD002DFCD1FF2CFAD1002EF8D18B4289
:1056400006D00120002AF3D12800431E9841EFE73D
:105650000020EDE770B5420045024E024C00C30F3A
:105660006D0A120E760A240EC80FFF2A1BD0FF2CDB
:105670000ED0002A1BD1002C01D1002E1CD0002DF1
:105680000CD083421CD00221581E0840013870BD46
:10569000002E22D1002AF4D1002DF2D10028F6D11B
:1056A00001204042F3E7002D17D1FF2CF0D0002C51
:1056B000E7D1002EE5D1E6E70020002DE7D0E2E7B4
:1056C000A24205DCEADBB54202D8E7D30020DEE7E0
:1056D0004342584140000138D9E702204042D6E712
:1056E00070B5420045024E024C00C30F6D0A120E07
:1056F000760A240EC80FFF2A0BD0FF2C0DD0002AEB
:105700001FD1002C16D1002E14D10020002D10D056
:1057100009E0002D0CD1FF2C13D1002E08D1002A56
:1057200008D0834212D00221581E0840013800E000
:10573000022070BD002DF4D10028FAD10120404292
:10574000F7E7002CEDD1002EEBD1ECE7A24205DC0F
:10575000F2DBB54202D8EFD30020EAE743425841DA
:1057600040000138E5E7C04610B50A22002100F0EC
:10577000E7F910BD014B18687047C0466C07002060
:10578000084B10B50400002B02D0002100E000BF40
:10579000054B1868836A002B00D09847200002F060
:1057A0007DF9C04600000000849E000070B5002610
:1057B0000C4D0D4C641BA410A64209D1002603F029
:1057C0009BFC0A4D0A4C641BA410A64205D170BD77
:1057D000B300EB5898470136EEE7B300EB58984713
:1057E0000136F2E7D0070020D0070020D0070020C4
:1057F000D4070020931E10B50C00222B04D90023DF
:105800001C000B70200010BD0A2A09D1002807DAFD
:105810002D230B7001214042611800F09DF9F1E742
:105820000021F9E710B5FFF7E5FF10BD002310B523
:105830009A4200D110BDCC5CC4540133F8E7030098
:105840008218934200D1704719700133F9E70000C4
:105850000FB40B4B13B51C68002C05D0A369002BAB
:1058600002D1200000F0AAFB05AB2000049AA16839
:10587000019300F0BDFD16BC08BC04B01847C0463B
:105880006C07002070B505000E00002804D0836965
:10589000002B01D100F092FBAB69AC68002B02D168
:1058A000280000F08BFB2D4B9C4222D16C68636E6C
:1058B000DB0705D4A3899B0502D4A06D00F01FFC73
:1058C000A3891B0702D52369002B29D121002800B9
:1058D00000F0CEF9002823D001256D42636EDB076E
:1058E00005D4A3899B0502D4A06D00F009FC280013
:1058F00070BD1B4B9C4201D1AC68D8E7194B9C4250
:10590000D5D1EC68D3E70136A360002B04DAA26995
:105910009A4216DC0A2914D023685A1C2260197096
:10592000A3683178013B0029EDD1A360002B0FDA89
:10593000280022000A3100F045F90A25431CCDD188
:10594000CAE72200280000F03DF9431CE8D1C3E774
:105950000A2523685A1C22601D70BFE7D09F0000F3
:10596000F09F0000B09F000010B5034B01001868C5
:10597000FFF788FF10BDC0466C070020020010B57D
:10598000137814000132002BFAD1CA5CE2540133BF
:10599000002AFAD110BDC9B20378002B04D08B4283
:1059A00000D170470130F7E74B4259414942084066
:1059B000F7E703000A7801311A700133002AF9D1A0
:1059C00070470023C25C0133002AFBD1581E704788
:1059D000030030B51D00002A06D00C78013A0133CF
:1059E0002C700131002CF5D100219A18934200D17E
:1059F00030BD19700133F9E70A7830B5002A0CD1AF
:105A000030BD9A4208D10123CC5C002CF8D0C55C93
:105A1000A54201D10133F7E701300378002BF0D123
:105A20001800EDE7F0B587B01E00059001910292D5
:105A3000012B45D00B00242E42D83F4A0821944622
:105A40001A00604614780133005D1D0007000F4006
:105A50000842F5D12D2C3AD101271C78951C002E37
:105A600065D0102E09D1302C07D120222B789343FA
:105A7000582B57D110266C780235304B3100FB186B
:105A800018000393FEF758FC0023012284461800F7
:105A9000049152422100303909291DD80C00A64238
:105AA00028DD002B24DB1300844506D302D10499A2
:105AB000A14202DB0123704320182C780135E9E76D
:105AC000FFF758FE16230360002007B0F0BD2B2C13
:105AD000C5D11C78951CC2E721004139192901D88C
